:020000022000DC
:10600000000200207969020015690200D1680200CF
:1060100025690200356902004569020000000000A0
:10602000000000000000000000000000B568020051
:1060300055690200000000006968020065690200FD
:106040007770020077700200397502006D6D0200F2
:10605000896D020077700200DD7102007770020026
:10606000777002007770020077700200777002008C
:10607000777002007770020077700200777002007C
:1060800077700200B1720200777002007770020030
:10609000777002007770020077700200777002005C
:1060A000777002007770020077700200777002004C
:1060B000777002007770020000000000000000000E
:1060C000777002007770020077700200A56D020001
:1060D000777002007770020077700200F57A020094
:1060E00077700200777002007770020000000000F5
:1060F000000000007770020000000000C16D020087
:1061000008B500F017F8FEE708B5084B187800F05E
:10611000D5FF074B20B91878BDE8084000F0E8BF6C
:106120001878BDE8084000F0F3BF00BF040200206B
:106130000002002013B50A4B0A4C1988207800F0A1
:106140009DFF207800F0E4FF00230748009303221E
:10615000064B00780C2101F001F802B010BD00BF21
:106160000202002000020020040200200961020057
:1061700070B5064E064CA41BA4080025AC4200D105
:1061800070BD56F8253098470135F7E7B0B20200E8
:10619000B8B2020013B5002001F096FC014608B920
:1061A00000F044F8084C204602F0D2FD204602F0F0
:1061B00067F8064B0648009401224FF4806102F014
:1061C000D3FD02B010BD00BF88060020C4AD0200A0
:1061D00088020020704700004FF080435722C3F828
:1061E0001C25BFF34F8F0549054BCA6802F4E062D6
:1061F0001343CB60BFF34F8F00BFFDE700ED00E01E
:106200000400FA0508B5EFF30583DBB243B9EFF3F9
:1062100010832BB9044803F00DFE00F0E5F9FCE70C
:106220000149032000F03AF8CAAD020008B57146F2
:10623000024803F077FDFFF7E5FF00BFDCAD020089
:1062400008B5FFF795FF034803F0F4FDFFF758FF8B
:10625000002008BDE5AD02001FB5EFF3108372B654
:10626000074B029300230193064B0093072204235C
:106270004FF4C061044800F0D1F900F0DFFA00BF2C
:106280001FAE0200416202003808002008B501F08C
:10629000D3FCBDE8084001F0EFBC704708B50B4BDC
:1062A0001A680C4652B901221A60FFF7F6FF084837
:1062B000214603F037FD074803F0BCFDEFF31083E0
:1062C00072B600F05FFAFFF787FF00BF380E0020BC
:1062D00024AE020040AE020038B50446EFF310854C
:1062E00072B6006810B985F3108838BD431C02D11E
:1062F00000232360F7E750F80C3923600C2100F0ED
:1063000085F8236813B94FF0FF33236085F31088B5
:10631000034B4FF080525A60BFF36F8FE5E700BF29
:1063200000ED00E008B503790B2B04BF0C230371CB
:10633000836A1A68934208D0B0F90610034803F044
:10634000F1FC03490D20FFF7A9FF08BD4DAE020087
:106350007CAE0200026810B54AB113688B4207D1C7
:106360009A4202D10023036001E01B68136010BD54
:1063700013461B681C68A14202D09A42F9D1F6E785
:10638000002BF4D00A681A6002689142EFD1EAE764
:1063900070B5184C184E2368356843BB15B12846B4
:1063A000FFF7C0FF00F08EFA2368002BFAD0002020
:1063B000124B00221A602368114AB3FA83F352F891
:1063C00023301C680C3C0B23AC4223710DD008B168
:1063D000FFF7A8FF0B4BA16AB4F906201A801F3102
:1063E000094A3460022000F0BDF9204670BD2846FD
:1063F000DEE700BF3C0E0020440E0020480E0020C7
:10640000500E0020400E00200800061670B50A2924
:10641000037904460D461AD90A2B14D84279184B31
:1064200000F10C0153F8220078B10068E06053F8E5
:106430002200016043F8221012494FF00043D3407C
:106440000A6813430B60257170BDE160F2E70A2B07
:10645000F9D90B4E407904F10C0106EB8000FFF7EF
:1064600079FF627956F82230002BECD105494FF0C4
:10647000004323FA02F20B6823EA0203E2E700BFBB
:10648000500E00203C0E00200B4B1B681A790A2A84
:1064900002D95B7983420DD9EFF30583DBB21BB1DF
:1064A000064B01221A607047054B4FF080525A602C
:1064B000BFF36F8F704700BF440E0020480E0020CE
:1064C00000ED00E008B5EFF3108372B6094B0A4AFD
:1064D0001B880A4D1BB2002442F82340084A286852
:1064E00013682146013B1360FFF790FF2C6000F01A
:1064F000A5F900BF400E0020900E0020440E0020A1
:106500004C0E002010B50346EFF3108472B60289DA
:1065100002EA010022EA01021A8184F3108810BD08
:106520000C4B10B51B68EFF3108472B61A89104239
:106530000DD1186107211846FFF768FF84F3108812
:10654000054B4FF080525A60BFF36F8F10BD84F33C
:106550001088FBE7440E002000ED00E013B5064B69
:1065600001901C68FFF7DCFF0199204602B0BDE8EE
:106570001040FFF7C7BF00BF440E002010B5EFF377
:10658000108472B6038902791943072A038A0181AC
:1065900004D0082A13D084F310880FE01942FAD0EF
:1065A0000C21FFF733FF074B01221A6084F3108898
:1065B000054B4FF080525A60BFF36F8F10BD8B4375
:1065C000E9D1EDE7480E002000ED00E0431E9BB24C
:1065D0001F2B05D8034B53F8200010B1C06A704739
:1065E00000207047900E002010B5EFF30583DBB25A
:1065F0007BB9EFF3108472B6064B02211868FFF7DF
:1066000005FF84F31088044B4FF080525A60BFF3AB
:106610006F8F10BD440E002000ED00E00F2A2DE921
:10662000F84F05468A469046994633D810F0030342
:106630001DBFC3F10402043B5B180B46A3F13403F6
:1066400018BFAD1833F0030324D419F0080F05EB7D
:10665000030416D02D60EFF3108B72B62749012288
:1066600051F8226017B2C6B10132212AF8D18BF35A
:1066700010886FF08A073DE012600432A242FBD31B
:10668000E9E72A46FAE702212046FFF7BFFE8BF32F
:1066900010882FE06FF015072CE041F822402A46C1
:1066A000DDE90A01E78000F095F80C9B144AE362EB
:1066B0004FF0FF33C4E9083613682060013319F046
:1066C000010FC4E90366C4E90566A562C4F830A0F9
:1066D00084F805802671E6611360D4D10C21204630
:1066E000FFF794FE19F0040FD1D18BF310884046C8
:1066F000FFF7CAFE3846BDE8F88F00BF900E0020B5
:106700004C0E00200C4B0D4A10B540219A600C4CE9
:10671000E02283F82220D9770022A0180132302A03
:1067200080F80013F9D11A6942F010021A615A690F
:1067300042F400725A6110BD00ED00E000600200FA
:1067400000E100E0064BD3F8942042F00502C3F8C4
:1067500094205A6A42F480325A620020704700BF87
:1067600000ED00E0064B21F01F0142F00102C3F8EA
:106770009800C3F89C100020C3F8A020704700BF09
:1067800000ED00E008B5EFF30581C1F3080119B190
:106790000548103903F0C6FA044BD3F8F030DB0794
:1067A00000D500BE08BD00BF8BAE020000ED00E0CA
:1067B000BFF34F8F0549064BCA6802F4E0621343EA
:1067C000CB60BFF34F8F00BFFDE700BF00ED00E0DF
:1067D0000400FA051A4422F0030210B54FF0773492
:1067E00042F8044C540758BF4FF08834A2F1040318
:1067F0005CBF42F8084CA2F108034FF0807243E9F5
:1068000002020D4A43F80C2C0020032243E9052024
:1068100043F8201C01220224194643E907246FF0A3
:10682000020241F8242D0B2241F8042D013A032ADB
:10683000FAD1A3F1440010BDC56402000023E1EECB
:10684000103AEFF3148323F0040383F31488BFF3A7
:106850006F8FEFF3108362B6024B4FF080525A6095
:10686000BFF36F8F00ED00E0114910B50C6872B6F0
:10687000FFF78EFD62B6A04208BF10BD2146BDE8FD
:10688000104049B1EFF309821EF0100F08BF22ED4E
:10689000108A22E9F04F0A600068B0E8F04F1EF05D
:1068A000100F08BFB0EC108A80F309887047000011
:1068B000440E0020024B4FF080525A60704700BFD8
:1068C00000ED00E030BF62B6BFF36F8F72B6704765
:1068D0000D4B0E4A0E496846904203D8984201D9A2
:1068E000002102E009468D46012104207246024241
:1068F00002D1EFF3088001E0EFF309802DE9F00FFA
:106900006B4600F08FF800BF580100200000042003
:106910000002002008B502490620FFF7BFFC00BFB7
:106920009AAE020008B502490520FFF7B7FC00BF88
:10693000A6AE020008B502490820FFF7AFFC00BF71
:10694000B9AE020008B502490920FFF7A7FC00BF55
:10695000CBAE020008B502490A20FFF79FFC00BF3A
:10696000DFAE020008B502490B20FFF797FC00BF1D
:10697000F1AE020070477047204AD2F8883043F4E5
:10698000700310B5C2F88830FFF7F4FF6A461C4B5D
:106990001C491C4693422DD31B4B1C48DA1C121A6F
:1069A000C11E22F003028B4238BF0022184902F0B8
:1069B0007FFF184B1848DA1C121AC11E22F003027E
:1069C000994288BF0022002103F088F824B1134ABD
:1069D00013490120FFF7C6FEFFF7B4FEFFF7CBFF18
:1069E00000F086F9FFF7F6FB02F03EFFBDE810402D
:1069F000FFF732BC43F8041BCCE700BF00ED00E01A
:106A000000000020FEE7FEE78802002000020020D0
:106A1000D0B20200FC1200208802002008000616F6
:106A20001F0000202DE9F04F2DED068B89B0904618
:106A300004935C4B9A6B08EE102A5A6BD3F828A08B
:106A400008EE902ADA6A09EE102A1A6BDB6B0AEE5E
:106A5000103A554B09EE902A1A68544B9A42044654
:106A6000894602D0524803F0E5F9B9F1000F6AD027
:106A7000504803F0DFF9504B5048198809B203F031
:106A800051F900252E464E4803F0D4F951464D48A1
:106A900003F048F919EE101A4B4803F043F919EEC8
:106AA000901A4A4803F03EF91AEE101A484803F0CB
:106AB00039F91AF4004F04D018EE101A454803F0C3
:106AC00031F91AF0800F04D018EE901A424803F002
:106AD00029F9424803F0AEF94148414603F022F952
:106AE000B9F1000F2BD118F0080F54D0324B198890
:106AF00009B208460391FFF769FD03990246394838
:106B000003F010F9384803F095F93146374803F09F
:106B100009F96946364BC91A03D53648494203F08C
:106B200001F9049E20468268C36801698C46416968
:106B30008E46AD46314691E8F00F416800682E4917
:106B40000720FFF7ABFBD4E90230D4E90012E76974
:106B5000039020690591D4E905B60AEE900AB805BC
:106B60002648CDE9062354BF04F1200504F124058D
:106B700003F060F9039B059900932148DDE90623A2
:106B800003F0D0F81AEE901A009733465A461D4883
:106B900003F0C8F877E7217F1B48103903F0C2F8EB
:106BA000B0E700BF00ED00E000000020FEE7FEE7D8
:106BB000FFAE020015AF0200400E002044AF0200FD
:106BC000EEAF0200F7AF020007B0020017B00200FC
:106BD00027B0020037B0020047B0020057B00200F1
:106BE0005CB002006EB00200ADB00200DEB0020088
:106BF0005801002006B1020033B1020058AF020074
:106C000073AF0200B0AF020087B00200704700000F
:106C1000EFF3108172B6094A13680133012B136038
:106C200009D14FF080420020C2F800011360D2F871
:106C30000031002BFBD081F310887047140F002027
:106C4000094A08B513680BB9FFF7F0FAEFF31081A2
:106C500072B61368013B13601BB94FF080430122E9
:106C60005A6081F3108808BD140F0020114A38B50E
:106C70001378EBB94FF08044C4F81835C4F80431E8
:106C80000123A360D4F80431002BFBD0012515703B
:106C9000FFF7BEFF0023C4F80C314FF0804225619E
:106CA000D2F80C31002BFBD0BDE83840FFF7C8BF4D
:106CB00038BD00BF180F00204FF0704393F8E02F4D
:106CC000062A12D1D3F8E40F10F00F000DD1D3F83B
:106CD000E82F02F0F002302A08D1D3F8EC3F13F08D
:106CE000F00F0CBF0120002070470020704700000B
:106CF00008B5FFF7E1FF30B1134AD2F8FC3023F0BA
:106D00008073C2F8FC30FFF7D7FF20B14FF080430B
:106D10000322C3F8A025FFF7CFFF30B14FF0804327
:106D20000022C3F80C21C3F81021FFF76FFF074BB7
:106D30000122C3F84025FFF7E5FCFFF7A7FABDE8FD
:106D4000084000F08FBF00BF00ED00E000E0014010
:106D5000044B1B682BB1044B4FF080525A60BFF3B9
:106D60006F8F7047480E002000ED00E008B5044A20
:106D7000044B10681B689847BDE80840FFF7E8BF60
:106D80002C0F00201C0F002008B5044A044B50684B
:106D90005B689847BDE80840FFF7DABF2C0F00207A
:106DA0001C0F002008B5044A044B90689B68984764
:106DB000BDE80840FFF7CCBF2C0F00201C0F0020BF
:106DC00008B5044A044BD068DB689847BDE8084022
:106DD000FFF7BEBF2C0F00201C0F002003680246E7
:106DE0003BB11868834219BF02681A600023136020
:106DF00070471846704708B500B109B9FFF716FA91
:106E00004B68002BFAD0EFF3108272B60B6833B9DF
:106E100003686BB11B680B60036819600160406810
:106E200082F3108830B1BDE808400121FFF7A6BB0E
:106E30000960F3E708BD08B5EFF3108172B6FFF7FC
:106E4000CDFF81F3108808B10023036008BD000066
:106E500038B1054B0A0901F00F019A5C5B5C0270C6
:106E600043700220704700BF46B10200F8B50D46DE
:106E70005700064610B18C18A54201D13846F8BD1E
:106E8000304615F8011BFFF7E3FF0644F4E790B125
:106E9000D9B1002340EA0102D2070ED5C20710D5AE
:106EA000CA0710D581423EBF024608461146091A5C
:106EB000F6D100FA03F1084670474008490801334B
:106EC000E8E74008EAE74908EAE70146F3E72DE981
:106ED000F84307460D4614460AB9FFF7A7F91146CD
:106EE0002846FFF7D4FFA042F7D8A8423BD8B4FB0E
:106EF000F0F9B5FBF0F00026B0FA80FE4FF0004844
:106F0000CEF1200528FA0EF834463346B446CEF1C9
:106F10005F0EDB184CEB0C0110EA080F18BF43F0B2
:106F200001034B4571F100028C464FEA44044FEADD
:106F3000580811D3B3EB090361F1000C44F00104CC
:106F4000002C0CDA53EA0C0300D00134C5F1200503
:106F50003C603D71BDE8F883002CF1D1013D013664
:106F60007645D6D3EEE700252C46EFE738B5054643
:106F700000F000FF044605F11000FFF7ADF92046D0
:106F800038BD73B50A460C462321054602F0A6FD1E
:106F9000684600F045FE6946002241F2055311F8AB
:106FA000010B03EB43130344B2FBF4F004FB10208A
:106FB00001322E5C082A86EA03062E54EFD1002304
:106FC00041F205529C4201D102B070BDE95C02EB76
:106FD00042120A44B3FBF4F104FB11310133685C43
:106FE00050406854EEE70000014B186802F0D8BB2F
:106FF000200200207047000030B50346EFF31084F4
:1070000072B60A4A0A4D10680144A94206D90C22F8
:107010001A604FF0FF3084F3108830BD054DA9424F
:10702000F5D31160421CF6D1F1E700BF0802002041
:1070300000000420FC1200201946104600F04CBE4F
:107040001946104600F02EBE132303604FF0FF30A8
:107050007047132303604FF0FF3070471323036022
:107060004FF0FF30704702294FF0000303608CBFE0
:10707000002001207047FFF775BC00000C2908D8DC
:1070800001238B4041F21902134206D14FF0FF3029
:10709000704740F20C639942F8D110F0200F00F0D5
:1070A0001F00054B00F5E07008BF4FF0A04343F808
:1070B00020100020704700BF0003005010F0200F88
:1070C0000A4A08BF4FF0A0420123D2F8141500F07D
:1070D0001F0003FA00F0014214BFD2F80435D2F8C1
:1070E0001035184214BF01200020704700030050E3
:1070F00000F01F03012210F0200F02FA03F2034BED
:1071000008BF4FF0A043C3F80825704700030050A4
:1071100000F01F03012210F0200F02FA03F2034BCC
:1071200008BF4FF0A043C3F80C2570470003005080
:1071300010B5084B084A19780023994201D8FF205E
:1071400004E012F8014B844201D1D8B210BD0133E2
:10715000F3E700BF440F00203C0F0020F7B50446C2
:10716000019116461F46FFF7E3FFFF2801990546E8
:1071700009D1154B1D78072D01D9FFF757F8134A90
:1071800054556A1C1A701248089B40F8357000EB81
:10719000C50043602046FFF771FF0E4B40221A6086
:1071A000240204F47C540C4B05F5A27144EA064217
:1071B000012000FA05F542F00102002043F82120E9
:1071C000C3F8045303B0F0BD440F00203C0F00206F
:1071D000480F002000E100E00060004010B5114BB6
:1071E000114A1878002398420FD903F1400152F850
:1071F0002140012C13D1002042F821000B4A02EB60
:10720000C30152F8333048689847094B1B682BB1CB
:10721000084B4FF080525A60BFF36F8F10BD01339F
:10722000E1E700BF440F002000600040480F00204D
:10723000480E002000ED00E008B5FFF717FD064BF3
:1072400001225A6005494FF4003008600021C3F85C
:1072500008151A6008BD00BF0010014000E100E001
:10726000014BD3F80405704700100140064B19602C
:10727000064B1A60064B20F07F404FF48032C3F873
:107280004005C3F8042370478C0F0020880F0020AE
:1072900000100140024B4FF48032C3F808237047BE
:1072A00000100140014B01221A607047001001409C
:1072B00010B5134CD4F84031012B0BD10023C4F886
:1072C00040314FF480330F4AC4F808330E4B106836
:1072D0001B689847D4F80431012B07D100230B4ACF
:1072E000C4F804310A4B10681B689847094B1B68A7
:1072F0002BB1094B4FF080525A60BFF36F8F10BD16
:1073000000100140880F00208C0F0020900F0020FB
:10731000940F0020480E002000ED00E070B50C46F0
:1073200015460146002840F092804B4A4B4EC2E978
:107330000053C6F86C052DB11820FFF79FFE1823E7
:10734000C6F8143503211920FFF798FE434B192284
:10735000C3F80C25B4F5614F4FF0FF32C3F8082590
:10736000C3F8102565D020D8B4F5615F5AD011D884
:10737000B4F5965F54D008D8B4F5966F2FD0B4F515
:10738000166F4AD06FF0850070BDB4F5165FF9D165
:10739000334A26E0B4F5E14F47D0B4F5164F46D056
:1073A000B4F5964FEED12F4A1BE02F4A944246D0B7
:1073B0000AD8B4F5E13F3ED0B4F5613F3DD0B4F515
:1073C000963FDFD1294A0CE0B4F5612F3AD0284A24
:1073D000944239D0B4F5E12FD4D1264A01E04FF4DC
:1073E0009E22C3F824251D4B0822C3F800258DB327
:1073F0000121214AC3F83815C3F834251022C3F8F7
:107400000423D3F8002242F02002C3F800221960BE
:107410001A4B04221A600020B6E74FF41D22E0E761
:10742000174ADEE74FF46C12DBE7164AD9E7164A33
:10743000D7E7164AD5E7164AD3E7164AD1E74FF001
:107440008062CEE7144ACCE74FF08052C9E76FF074
:10745000120099E7284697E7980F00200020004087
:107460000050270000A04E0090D0030000903A0189
:1074700040420F0000705F07A00F002000E100E015
:1074800000B0130000F0750000509D0000F0EB000C
:1074900000E0D70100B0AF0300D0BE0E08B508B1C0
:1074A000FEF7C4FE024B01225A60C3F8000508BD76
:1074B000002000402DE9F0410D4688B0164608B185
:1074C000FEF7B4FE1B4CD4F8003523B111F0005781
:1074D00021D1B74202D308B0BDE8F081A6EB07087E
:1074E000B8F1200F28BF4FF020084246E91968463E
:1074F00002F0DEF90023C4F820310123C4F844D59A
:10750000C4F84885A360D4F82031002BFBD00123B8
:10751000E3604744DDE70123C4F82001C4F84415C3
:10752000C4F84825A360D4F82031002BFBD00123F8
:10753000E360D0E70020004008B50D4BD3F81021E0
:107540005AB10022C3F81021D3F83C352BB1094BB6
:1075500009491A68097858689047084B1B682BB18D
:10756000074B4FF080525A60BFF36F8F08BD00BFCA
:1075700000200040980F0020A00F0020480E00209F
:1075800000ED00E00129F0B504460BD1012A0CBF43
:10759000103004F17000002585720460027241729F
:1075A000436003E0881E012801D90020F0BD04F1EA
:1075B0001C050126012A0CBF284605F16000477A08
:1075C0003FB986720136082E05D00C350028F1D05F
:1075D000E3E70020F6E70028E7D0DEE7017A03685A
:1075E000827A012907D12AB9D3F8D0304FF48062CA
:1075F000C3F804237047002AFCD1D3F8D0304FF4ED
:107600000002F5E7017A0368827A012907D12AB9D5
:10761000D3F8D0304FF48062C3F808237047002AB3
:10762000FCD1D3F8D0304FF40002F5E7D0F8D030D9
:1076300001225A6570470268837AD2F8D02010B4CC
:107640000BB9C2F85C31047A0121994014B94C336A
:1076500042F823405DF8044BC2F86C14FFF7BEBF3C
:1076600038B5D0F8D030D3F8002104466AB10022F2
:10767000C3F800210421436880F8D4209847D4F847
:10768000D0300122C3F8042338BDD3F85821002A92
:10769000FAD0D3F80054EA0502D54368062198478A
:1076A000AB0503D56368072120469847D4F8D0304E
:1076B0000022C3F8582140F60172C3F800244FF4A9
:1076C0008002DFE770B5867A04681546AEBB8B078B
:1076D00001D0FEF7ABFD027AD4F8D030012A16D1E2
:1076E00075B994F8D40002280AD11A651146A36826
:1076F00004F110009847042384F8D430284670BD64
:107700000122C3F80016C3F804565A60F6E7C3F81E
:107710000017C3F8045794F8D410012908D119654B
:10772000032384F8D43004F17000A3689847E5E798
:107730000229E3D10122DA64E0E7007AD4F8D030FC
:107740001422012802FB063214D1C2F8001603EB02
:107750008603C2F804560C4A8221C2F81C1C5860E9
:10776000D3F808110029FBD00021C3F80811C2F892
:107770001C1CC3E706F59476C2F80017C2F804573C
:10778000012243F82620B9E700700240027A08B5CA
:1077900003680AB1FEF74AFD0A4AD3F8D0308221C5
:1077A000C2F81C1C817A03EB810301219962D3F892
:1077B00030110029FBD00021C3F83011C2F81C1C85
:1077C00008BD00BF0070024008B5837A0BB9FEF710
:1077D0002DFD0268007AD2F8D02001280CBF80204D
:1077E000002003F00703002943EA000314BF4FF40D
:1077F000807100210B43C2F8183508BDFFF7E4BFC4
:10780000012908B50ED1012B01D0FEF70FFD12782A
:10781000D0F8D0101AB1C1F80435184608BDC1F827
:107820000425FAE76FF08500F8E738B505461C46F1
:1078300029B101292FD06FF08504204638BD012BD6
:1078400001D0FEF7F3FC2B681278D3F8D010AB7A96
:10785000007A04FA03F382B148B9D1F8142513432E
:10786000C1F814352846FFF7E6FE0124E5E7D1F814
:1078700010251343C1F81035F4E7DB4328B9D1F8DC
:1078800014251340C1F81435D7E7D1F8102513405B
:10789000C1F81035D1E7012BD3D11178FFF794FF50
:1078A000CBE7012908B504D002291CD06FF0850070
:1078B00008BD012B01D0FEF7B9FC0368D3F8D01046
:1078C000837A007A50B903F5887301EB83035B6810
:1078D000003B18BF012313700120E9E703F584730F
:1078E00051F82330F4E7042BE5D10368817A007A5C
:1078F000D3F8D03030B901F5947153F821301360CA
:107900000420D5E7142000FB0133D3F80836F6E74E
:10791000032908B504D0042902D06FF0850008BD02
:10792000012B01D0FEF782FC13701846F7E7F8B57B
:10793000837A0568027A0446002B5DD195F8D4104D
:10794000002A4CD1032908D185F8D42008212368C6
:10795000C9B29B682046984734E0D5F8D030D3F8B8
:107960005C11A1B3C3F85C21D3F80017D3F880747D
:107970000F70D3F88404C0B24870D3F88864D3F889
:107980008CC446EA0C264E80D3F89064D3F894C495
:1079900046EA0C268E80D3F89864D3F89CC417F07E
:1079A000800F46EA0C26CE8014BF01210221052853
:1079B00014BF85F8D41085F8D420D3F88434DBB212
:1079C000052BC3D12046BDE8F840FFF707BED3F82A
:1079D0002821BAB3C3F82811FFF7D8FEB6E7042967
:1079E00002D185F8D430B1E7D5F8D020D2F82811EB
:1079F00041B3C2F82831A9E7012AD5F8D0100FD138
:107A0000D1F86C0402FA03F318421BD0C1F86C34AD
:107A10000023C1F860314FF08073C1F8043395E75B
:107A2000D1F86C241033012606FA03F3134209D06F
:107A3000FFF7ACFEA37AD5F8D02010339E40C2F8F1
:107A40006C6483E74FF0FF3181E700004FF0805313
:107A500010B5D3F80431B3F1413F01D1FEF7E6FB95
:107A6000174AD0F8D03049F275310324C2F8001C0F
:107A7000C2F8144DC2F8001C0121C3F80015D3F858
:107A800000140905FBD5D3F8001421F40061C3F8F4
:107A9000001449F275340021C2F8004CC2F8141DDC
:107AA000C2F8004C0122C3F8002502F1A07280F850
:107AB000D410C3F80023034B80225A6010BD00BFCE
:107AC00000E0064000E100E008B508B1FEF7AEFBBB
:107AD000004808BDA40F0020034B044A1A60044A62
:107AE000C3F8D020704700BFA40F002058B1020097
:107AF000007002402DE9F041444CD4F8D030D3F866
:107B00000021A2B1D3F80023D00710D50121C3F87A
:107B100008136368204698473D4B1B682BB13D4BCB
:107B20004FF080525A60BFF36F8FBDE8F081D3F8F9
:107B300058215AB1D3F80023510207D54FF48002DF
:107B4000C3F80823314863680121E4E7D3F85C21D6
:107B500052B1D3F800331A0206D52F48A368012189
:107B600098472D48FFF74EFDD4F8D030D3F82821A0
:107B7000C2B1D3F800335B0514D594F8D4100129B1
:107B800005D12648A36898472448FFF73BFD94F8A1
:107B9000D430022B06D12048A368012198471F4802
:107BA000FFF730FDD4F8D030D3F86021002AB3D0ED
:107BB000D3F86C24002AAFD00022C3F86021D3F898
:107BC0006C840C260127B8F1000FA5D098FAA8F50F
:107BD000B5FA85F5102D10DDA5F1100070432318BE
:107BE00093F8793023B17030A3680121204498477D
:107BF00007FA05F528EA0508E5E706FB05F023186E
:107C00005B7E002BF4D01030EEE700BFA40F002005
:107C1000480E002000ED00E014100020B40F0020FA
:107C2000024A034603CA186059607047600000109A
:107C30000C212220FFF722BA10B50321084C29207D
:107C4000FFF71CFA4FF40073C4F80C3503212A2007
:107C5000FFF714FA4FF48063C4F80C3510BD00BF71
:107C60000003005008B5FFF7E3FFFFF7E5FABDE8B2
:107C70000840FFF731BF0000F8B5084E084C00255A
:107C8000A41B0C27B4FBF7F4AC4200D1F8BD07FBF2
:107C900005F3F35803B198470135F5E7B8B2020090
:107CA000D0B20200F8B50A4D0A4C0C23641B0646FC
:107CB000B4FBF3F40F4603FB0454A54201D138464C
:107CC000F8BDAB683946304698470C35F5E700BF3C
:107CD000B8B20200D0B202006FF08500704710B554
:107CE0000A460C4601460020FFF7E4FB204610BD83
:107CF0000020FFF7D3BB00231A464FF4E1311846AA
:107D0000FFF70CBB82680168531C83604368013B2A
:107D10001340C85C704710B5EFF3108472B6EFF3F0
:107D2000108172B6D0E9022381F310889A4204D000
:107D3000FFF7E8FF84F3108810BD4FF0FF30F9E73C
:107D4000F8B504460E46EFF3108772B60D4645B1FE
:107D5000EFF3108172B6D4E9022381F310889A42BE
:107D600003D187F31088701BF8BD2046FFF7CAFFC8
:107D7000013DECE730B5EFF3108472B6EFF31085F8
:107D800072B6D0E902239B1A426885F310889342A9
:107D90000BD0C2680568531CC3604368013B1340A5
:107DA0000020E95484F3108830BD4FF0FF30F9E72C
:107DB000F0B5EFF3108772B6144654B1EFF31086A6
:107DC00072B6D0E902535B1B456886F31088AB425C
:107DD00003D187F31088101BF0BDC66811F801CBE2
:107DE0000568731CC3604368013B3340013C05F8E0
:107DF00003C0E2E7B1F5167F08B506D0B1F5966F7E
:107E000001D1FEF7E9F9002008BDFEF7D1FCFEE73D
:107E10000AB981F87C20704713B50B238DF8013027
:107E20000B8D8DF80230082402238DF803308DF875
:107E300004308DF805302246002369468DF8004055
:107E40008DF806308DF8073000F083FC204602B034
:107E500010BD00002B4B2DE9F743C1F884302A4BAD
:107E60000962C1E9153140F202234B8501F150034B
:107E70004B610A230026A1F84A3001F110080823BB
:107E80000E6581F82C6081F84C604E6309640C46E5
:107E90000093022201234146054601F059F808B932
:107EA000FEF7C4F940F2FF1304F130074FF0400928
:107EB000C3810322CDF8009001233946284601F002
:107EC00047F886730028EBD00123C3730322CDF853
:107ED000009033463946284601F03AF80028DFD0B2
:107EE0004FF48073C3814146284601F00BF83946B0
:107EF000284601F007F8E36843F00103E36003B0AC
:107F0000BDE8F0839780020088B102002DE9F743B5
:107F1000052405460E4624274FF0000820234FF085
:107F20000109224669468DF803308DF800408DF82E
:107F300004908DF801708DF8028000F00AFC022395
:107F40000422694628468DF800208DF802308DF80D
:107F500003308DF8017000F0FCFB328DB6F848302C
:107F60008DF8032006218DF8021022466946284626
:107F70008DF804308DF800408DF8017000F0E9FBB9
:107F8000B6F848308DF800402246694628468DF8FC
:107F900001708DF802908DF803808DF8043000F0A8
:107FA000D8FB132003B0BDE8F08310B508B9FEF785
:107FB0003DF90368002BFAD01B68BDE81040DB6A6E
:107FC0001847F8B5436F93F89831032B04460D46D4
:107FD00026D190F87C30012B22D1EFF3108672B6B7
:107FE00000F16407EFF3108172B6D4E91B2381F32B
:107FF00010889A420AD03846FFF78DFEA36F5A1CAC
:1080000023443F2AA26783F8D000EBD986F3108877
:10801000A26F04F1D0012846BDE8F840FFF7C5BFC4
:10802000F8BD7FB51389B3F5407F0C46154619D1CD
:108030000AB9FEF7FBF81368002BFAD01B6803AAF5
:108040001E6A022104232846B047039A04F19001D6
:1080500022B1E36D019120469847019940222846BC
:10806000FFF7A3FF2A8940F201339A4211D100237E
:10807000A367EFF3108172B6D4E91B2381F3108854
:108080009A4206D02946204604B0BDE87040FFF76A
:1080900098BF04B070BD50F8083C803823B9836B9A
:1080A0001B689968FFF78DBF70472DE9F0410346C3
:1080B00000F1640790F87C000D46144648B1EFF3D8
:1080C000108472B63846FFF773FE84F31088BDE85B
:1080D000F081EFF3108672B6EFF3108272B6186F6C
:1080E000D3E91A130B44A3EB000882F3108844452C
:1080F00010D92118C91A3846FFF722FE00EB0802F2
:10810000A31A1D4429463846FFF752FE86F310880D
:108110002046DCE72246F5E7436F2BB100F18001F2
:1081200003F5B870FEF767BE70477FB50C46597807
:10813000212933D0222937D020292BD1DB88072BC6
:1081400028D1032A1BD1002303A9039300F0DAFAF4
:10815000039B072B05461DD143798279016800797D
:1081600000902046FFF746FE266E56B92B68C4F8ED
:108170008830AB88A4F88C30AB7984F88E3001203D
:108180000AE028796B79AA79296800902046B047DF
:108190000028EBDA4FF0FF3004B070BD072204F185
:1081A000880100F0D6FAEAE75B8813F001034FF08C
:1081B000010514D084F87C500022032104F1300022
:1081C00000F0B9FE08B9FEF731F88068402204F1EA
:1081D0009001FFF7EAFE2046FFF79EFFCFE784F805
:1081E0007C30CCE72DE9F843DDE908960C460546DE
:1081F000904600214FF4A87220461F4601F06EFC05
:1082000065671EB1734236EA030301D0FEF70EF82C
:10821000054B6360C4E91996C4E9178721462846CF
:10822000BDE8F84300F07DBE98B1020070B5064E7F
:108230000C468D18AC4200D170BD14F8011B3046BD
:10824000FEF794FEF6E700BF0C0200202DE9F04196
:10825000DFF8288005460C46064614B9701BBDE8B9
:10826000F081224631464046FFF71FFF0746404651
:10827000FFF752FF3E44E41BEFE700BF3C11002034
:1082800007B580230193054B0093054A0549002358
:10829000FFF7A8FF03B05DF804FB00BFBC1000208F
:1082A0002D8202003C11002010B508B9FDF7BEFF79
:1082B0000368002BFAD01B68BDE810409B69184783
:1082C000F7B5CB6843F001030026CB6040270123BC
:1082D0000C460E761A4631460097054600F038FEE9
:1082E0008368A3630097334601223146284600F095
:1082F0002FFE8368636303B0F0BD10B50A4608B96A
:10830000FDF794FF0368002BFAD01B681C6A02215A
:10831000A4460423BDE81040604710B50A4608B9DA
:10832000FDF784FF0368002BFAD01B685C6A00210C
:10833000A4460123BDE81040604710B508B9FDF719
:1083400075FF0368002BFAD01B68BDE81040DB6A9C
:108350001847000010B50C46C2B980F89B210A7678
:10836000886BFFF7A1FF606BFFF79EFFA06B0849CA
:10837000FFF7D3FF606B0649FFF7CFFF606B04F197
:108380003C014022BDE81040FFF7D7BF10BD00BF41
:10839000B8B102002DE9F3470C460B7C91F910109F
:1083A0000029054603DBE28A206B904210D803F0D7
:1083B0001F02012A00F0C180022A00F0DD80002A9D
:1083C00040F003810029637C77DA43B1062B11D09A
:1083D000D5F87801002840F0F380FDF727FF95F8E5
:1083E0009B315B00022201A92846ADF8043000F061
:1083F000B0F94AE0638A1A0A013A052AE8D801A1CD
:1084000051F822F01D8402002D8402003584020000
:10841000D1830200D1830200A3840200284600F029
:1084200083FB0028D4DB00F0D0802EE0284600F04B
:108430006FFAF6E7D5F88461002EC9D013F0FF0378
:108440004FF003020CD104238DF80120694602226B
:1084500028468DF8003000F07CF940F20943C1E76E
:108460008DF8052032899A4200F0B9803668002ED6
:10847000F8D1ADE7284600F099F90021284600F030
:1084800095F916F8011F0029F4D194F91030002B4A
:108490002EDA01232846237602B0BDE8F04700F02B
:1084A000A1B9D5F8780100238DF80430036801AA3A
:1084B0009E6804210123B0478AE7052B15D0092BBC
:1084C00086D10323D5F88861DFF83891DFF838A129
:1084D00085F89831002ED8D0B768C7B9D6F80C8087
:1084E000B8F1000F1BD13668F4E7638A85F89A313A
:1084F000E38A226B9A426BD20323606B237640227D
:1085000004F13C0102B0BDE8F047FFF716BFFB7B6A
:108510001BB1B8684946FFF700FF3F68DDE7D8F8B0
:10852000087017B9D8F80080DAE7FB7B1BB1B86890
:108530005146FFF7F2FE3F68F3E7617CA28A03F041
:1085400060030B4302F00F023FF44CAFD5F88831C3
:10855000002B3FF43DAF198B91420BD1196948684C
:10856000C6683EB1D5F87C2104F11003127E28467E
:10857000B04756E71B68EBE7A38A03F00F0000EB58
:1085800080001B06637C4FEA80004CBFD030303047
:10859000012B28440DD0032B04D0002B7FF418AFFF
:1085A000037C1FE7638A002B7FF412AF00F0F5FC19
:1085B0006BE7638A002B7FF40BAF00F0FBFC64E7F2
:1085C00003685B6998470023237602B0BDE8F08713
:1085D0000423A06B2376002204F17C0192E702279A
:1085E0008DF80470706801F08BFC013040008DF84C
:1085F00004003A4601A9284600F0ABF87668013E2F
:108600003FE700BFBAB10200B9B1020073B5054639
:108610000C466BBB0B7E042B13D8DFE803F0512B09
:1086200026400300137A012B22D190F89A318BB1A6
:1086300090F89831012B0DD1D0F8780105F5CD7265
:1086400008B9FDF7F3FD0168CE680021B0470223A9
:1086500085F898310023606B2376402204F13C01B9
:1086600002B0BDE87040FFF768BE137A002BF2D06D
:1086700002B070BD167A012EFAD100F052F828B17E
:1086800021462846FFF786FE2676F1E7606B4022FA
:1086900004F13C01FFF751FE02232376E8E7137A49
:1086A000002BE5D1606B019301A9FFF726FE236B38
:1086B000019A1344236321462846FFF76BFED7E750
:1086C000167A002ED4D13146102204F11C0001F09C
:1086D00005FAE36B2361236C6361E38A2663214619
:1086E0002846E36202B0BDE87040FFF753BE0000C9
:1086F000034B4B60D0F88C310B60C0F88C11704785
:10870000A8B1020010B5D0F87C4109B9FDF78EFD83
:10871000237E032BFAD1606BFFF7EFFD04F13C00E1
:1087200010BDD0F87C319A6BD8695268196A02443E
:1087300091420CD9D96A884209D2986A81424FF095
:10874000000005D9C3E907205862012070470020C6
:108750007047D0F87C01F8B5836BC7695D68036A20
:108760009F423D4403EB020C09D9AB4202D2FE1AF0
:10877000964207D9C0F820C000242046F8BDAB427D
:10878000F8D20026AC452CBFEC1A941B426AC0F804
:1087900020C028BFA41B2244DB1B426233447C3030
:1087A00022463144184401F083F8E6E7D0F87C21F2
:1087B000D2E90703984210B510D8946B646804445A
:1087C000A3420BD21B1A1344012083F87C10136AB6
:1087D00001331362536A0133536210BD01331362D4
:1087E0000020FAE7D0F87C11CB6ACA69486A9A1A65
:1087F00082428B6A28BF0246886B134410B57C31D5
:1088000041F8543C08B9FDF711FD0368002BFAD07C
:108810001B68BDE81040DB6A184770B506460C4679
:1088200000250CB9284670BD62689368127B1AB1A6
:10883000A16830469847034624681D44F1E770B5A7
:1088400006460C4600250CB9284670BD63681B68B7
:108850001BB1A16830469847034624681D44F2E7DF
:1088600070B506460C4600250CB9284670BD6368F5
:108870005B681BB1A16830469847034624681D44D5
:10888000F2E700002DE9F7434FF00009DFF87C80A4
:1088900005460C464E4607271CB9484603B0BDE8BE
:1088A000F08361682846FFF7CAFFA268CDF803602D
:1088B0000523117A8DF80130937A8DF80230012961
:1088C00004BF63F07F038DF80230537A8DF8007097
:1088D000013BDBB2032B17D818F803308DF80330B7
:1088E000A389ADF804300722A37B8DF806306946D2
:1088F0002846FFF72EFF61682846FFF7B1FF9DF875
:10890000003024689944C7E7FDF790FCBBB1020032
:108910002DE9F04F8DB0092200238DF80C20ADF821
:108920000E200122ADF810308DF8112080228DF834
:108930001320322202218DF81420D0F888218DF8DE
:10894000123004468DF80D105ABBD4F880118DF802
:1089500010302046FFF761FFD4F8885100F1090676
:1089600015BB238C8DF81230092203A92046ADF8DF
:108970000E60FFF7EEFED4F880112046FFF770FF7F
:10898000D4F8886100F109030193A946002E43D170
:10899000019BBDF80E002B44984200F0C280FDF709
:1089A00045FC12680133CFE769682046FFF735FFC1
:1089B00000F109073744AE684FF0000846B9D5F812
:1089C0000C904744B9F1000F0AD12D683E44C7E727
:1089D00071682046FFF721FF073036688044EDE7D5
:1089E000D9F804102046FFF718FFD9F8088009309D
:1089F00006444FF0000AB8F1000F03D1D9F80090F7
:108A00005644DFE7D8F804102046FFF706FF07308A
:108A1000D8F800808244EEE771682046FFF70FFF28
:108A20000923CDE906998DF8183004238DF8193003
:108A3000338B8DF81A30B37E8DF820908DF81D3071
:108A4000F37E8DF81E30B268337F8DF81F3000F151
:108A5000090800231ABB8DF81C30736913B11B89F8
:108A60008DF82030092206A92046FFF772FE7168B2
:108A70002046FFF7F5FE45440544B1682046FFF760
:108A800001FFD6F80C802F18012200254FF0090BAA
:108A90000423B8F1000F05D136683D4476E712682B
:108AA0000133D7E7318B8DF82610B17ECDF82890B1
:108AB0008DF82910F17E8DF82C908DF82A10317FD9
:108AC0008DF82B1002F1010AD8F808108DF8272034
:108AD0008DF824B08DF825305FFA8AFA0022E9B9C2
:108AE0008DF82820D8F80C2012B112898DF82C208E
:108AF000092209A92046FFF72CFED8F804102046C9
:108B0000FFF7AEFE0930D8F8081005442046FFF7FD
:108B1000B9FED8F8008005445246B9E70968013229
:108B2000DDE70DB0BDE8F08F10B586B04FF40071F1
:108B3000ADF8061040218DF80B1041F20921ADF877
:108B40000C104FF4FA41ADF80E104FF48071002272
:108B5000ADF810100189ADF8082012248DF80A2014
:108B60008DF812100122818A838D8DF805208DF8F1
:108B700013108DF8152001A922468DF804408DF8B8
:108B80001430FFF7E6FD204606B010BD10B508B959
:108B9000FDF74CFB0368002BFAD01B68BDE81040C2
:108BA0009B6A184710B508B9FDF740FB0368002B16
:108BB000FAD01B68BDE81040DB6918470129F8B5F9
:108BC000C4680ED1B4F99421531E9BB21F2B96BFDB
:108BD000254B002053F822000221BDE8F840FDF7A4
:108BE000CDBC062924D007292BD004291FD1D4F8C5
:108BF00078010123002584F8983184F89A5104F50E
:108C0000CD7208B9FDF712FB0168CE682946B0475E
:108C1000234604F1A00283F8405083F8E050143357
:108C20009A42F8D101260027D4F88C5185B9F8BDB5
:108C300094F8983184F89931042684F898610227D1
:108C4000F2E794F8993184F8983108260327EBE786
:108C5000EB681E4205D06B683A465B6829462046A1
:108C600098472D68E2E700BF900E002070B50A46D5
:108C700004460368A17AD868012A22D1237A012BFD
:108C80000CBF08230023EFF3108472B60B44D0F816
:108C90009051DBB202FA03F12943C0F8901184F33A
:108CA0001088B0F99421531E9BB21F2B98BF264BFE
:108CB000BDE8704094BF53F8220000200421FDF766
:108CC0005DBC89B9D0F88C1189B1082A26D0092A4F
:108CD0000DD1CB689B060AD54B6822469D680223BE
:108CE000A8471CBBFDF7A2FAD0F8883103B970BDC4
:108CF000996819B9D96841B91B68F7E78D68AC4222
:108D000001D11969E0E70968F3E78D680DB90968D1
:108D1000F1E7AE68B442F4D02D68F7E74B689D6880
:108D20002246AC460023BDE8704060472368002B14
:108D3000D8D01B68054A5D6A01232046AC46194617
:108D4000BDE87040604700BF900E0020F7B1020000
:108D500038B504460D464FF4D872002100F0BEFE2F
:108D6000C4F8785138BD00001FB50293069B0193EB
:108D7000054B00930023FDF751FC002801DCFDF7B3
:108D800055FA05B05DF804FBAD8D020010B5D0F8C2
:108D900084310B60B0F89631C0F884115C1CA0F8E7
:108DA00096410B814A60184610BD00002DE9F0473E
:108DB0004C4BB2B01B68C0F87431002603A9C0F850
:108DC0007061C0F87C11044600F5B878FFF790FC9C
:108DD000454BD4F878511B88A4F894310123A4F8AA
:108DE0009631424B84F89A61C4F888616B60404BBD
:108DF000C5E902340DB9FDF719FA2B6828461B683E
:108E000098473C4A04F118012046FFF7BFFF3A4A51
:108E100004F10C012046FFF7B9FF384A21462046ED
:108E2000FFF7B4FF04F5CE77082101A8FEF7A9F8F3
:108E3000082201A93846FEF719F83A4604F1240140
:108E40002046FFF7A3FF84F89861D4F88C61F6B947
:108E50002B682B4ADE68012319462846B0474FF09D
:108E600001090720FDF77AFB8107064603D52B6829
:108E700028461B699847720710D4F307F1D540467E
:108E8000FDF7D9FF0028ECD043689847E9E77368FD
:108E900031461B68204698473668D8E7EFF31083C1
:108EA00072B60022D4F890A1C4F8902183F3108800
:108EB0001427BAF1000FE0D09AFAAAF3B3FA83F3B9
:108EC000072B09FA03F2CBBF083B07FB034307FB61
:108ED0000343986BC8BFD3F8D8002AEA020AFFF709
:108EE00055FEE6E7440E0020400E0020BD8B020038
:108EF0006D8C0200BFB10200CAB10200EAB10200EB
:108F0000F6B10200D0F8883110B5002200F5C47423
:108F100090B2013213B90883216010BD1C461B6852
:108F2000F6E7D0F88C3100F5C6720BB911607047C6
:108F30001A461B68F9E710B5806800B910BD836850
:108F40005C7A8C4202D11B7A9342F7D00068F4E736
:108F5000F8B50446D0F87801069E0D4611461A462B
:108F600008B9FDF763F903685F683346B8470246FE
:108F700090B1137A807A012B4FF014030BBF03FBDF
:108F8000004003FB0044D03004F130008681826051
:108F900015B1AB680360A860F8BD08B583689A7A1C
:108FA0000AB9FDF743F9012101741846BDE80840EC
:108FB000FFF7F8BD08B583689A7A0AB9FDF736F964
:108FC000002101741846BDE80840FFF7EBBD10B55D
:108FD0000446006A4369013314D000F0D0F880B130
:108FE000636BA0FB033294F83800C0F12004A0F1B9
:108FF000200102FA04F423FA00F0204322FA01F1DE
:10900000084310BD83685B689847E8E730B4426C5A
:1090100090F840501144C26BC5F12004A1FB02122C
:1090200002FA04F4A5F12003E940214322FA03F3F4
:1090300041EA030230BC00F12401006A00F0F5B8F7
:109040002DE9F04104460F461546002148221E46F0
:1090500000F044FD1D4BA3601D4B2762C4E90B3497
:109060000DB9FDF7E3F8002EFBD03246294604F196
:109070003400FDF72CFF2A46314604F13C00FDF791
:1090800026FFB5424FF0FF3219D294F83850616B89
:10909000C5F12000A1FB0212A5F12003E94002FA6C
:1090A00000F022FA03F3014319434B1C61610AD01B
:1090B000A36820461B68BDE8F04149081847B5FB86
:1090C000F6F562616564BDE8F08100BFF8B10200A9
:1090D0009992020000F12401006A00F08DB8036843
:1090E00043B10B6823B9C068431A584258417047CE
:1090F00001207047184670470346006848B1416830
:1091000031B902681A600AB9DA60704701607047C5
:1091100000207047416902688368B1F1FF3F07D0C2
:109120001B6849081AB15268914228BF1146184776
:1091300012B11B685168FAE79B68184710B50A46D8
:109140000446FFF7CCFF08B9FDF770F8204601464A
:10915000006898B19042FAD1E368934204D1A142E9
:1091600014BF0B460023E36013680B601BB1596802
:1091700050680144596000231360012010BD38B5C8
:10918000436904460BB9FDF751F8EFF3108572B649
:1091900083685B6898470246D4E90501E3698A421F
:1091A0003ABF0130801810465B1A1844C4E9062003
:1091B00085F3108838BD4269013201D0FFF7DFBF67
:1091C00083685B68184738B505464468FFF7F3FFC6
:1091D0002B6833B1021B00245968914203D38A1AC9
:1091E0005A60686038BD521A5C601B68002BF8D06A
:1091F00059680029F9D0EFE7F8B505460E46EFF3B8
:10920000108772B6FFF76BFF044650B12846FFF790
:10921000DAFF31462846FFF791FF04462846FFF75C
:1092200079FF87F310882046F8BD2DE9F041054607
:109230000E461446EFF3108872B6FFF7C4FF3146AE
:1092400007462846FFF74BFF10B12846FFF776FF89
:109250002A8AA24234BFA21A002272602B46002141
:109260001C461B6883B9501A3360706093B18A1A28
:1092700059680A445A6026602846FFF74BFF88F376
:1092800010883846BDE8F081586808448242EAD325
:109290000146E5E7EE60EEE74369013310B50446A9
:1092A00019D0FFF788FF236883B161685B681944B0
:1092B000081A00280FDD6169A368490881421B680C
:1092C00028BF01462046BDE8104018476169A368E1
:1092D00049081B68F6E723683BB92046FFF71AFFE9
:1092E000EFF30583DBB2BBB110BD626859680A4475
:1092F000626000225A602046FFF7FEFE0028ECD094
:10930000D0E9023098472046FFF7F6FE0028F5D155
:109310002046FFF758FFEEE7034B4FF080525A60AC
:10932000BFF36F8FE0E700BF00ED00E010B5074925
:10933000084600F02DF8BDE81040044904484FF4F9
:1093400000434FF47A72FFF77BBE00BFD4120020B7
:109350008C120020FDF79EBFFDF782BF37B50C468B
:109360000190EFF3108572B6FDF77AFF022C2CBF47
:1093700000190230019A044920F07F40FDF776FF82
:1093800085F3108803B030BD8D930200FFF784BFD2
:109390000A4B10B5044683606FF07F434361FDF7CD
:1093A0004BFFFDF77FFF61694B1C06D0A368204689
:1093B0001B68BDE810404908184710BD04B2020000
:1093C0008B891A072DE9F0410C4680463FD44A6844
:1093D000002A58DDE66A002E52D00022D8F800504C
:1093E000C8F8002013F4805251D10123216A40466D
:1093F000B047431C5ED0A389E66A5F0705D5636862
:10940000C01A636B0BB1236CC01A216A0246002399
:109410004046B047411C3CD1D8F80030002B38D032
:109420001D2B01D0162B4DD123690022C4E9003237
:10943000616BC8F8005019B304F14403994202D09B
:10944000404600F09DFB00206063BDE8F0810E699E
:10945000B6B10D680E609A070CBF4B690023AD1BB7
:109460008B600BE02B463246216AA76A4046B8471C
:10947000B0F1000CA5EB0C05664413DD002DF1DC0A
:109480000020BDE8F0810A6C002AA3DCF8E7606DDB
:10949000B3E70023636023692360A389DB04C7D596
:1094A0006065C5E7A38943F040034FF0FF30A38117
:1094B000BDE8F081D8F80030002B9CD01D2B06D0E1
:1094C000162B04D0A38943F04003A381D9E7C8F841
:1094D0000050D5E738B50B69BBB10D46044608B15D
:1094E0008369B3B10D4B9D4211D00D4B9D4213D0FA
:1094F0000C4B9D4208BFE568B5F90C302BB12946ED
:109500002046BDE83840FFF75BBF002038BD6568E6
:10951000F2E700F045F9E5E7A568EDE750B2020093
:1095200030B2020010B2020038B540B303690446FD
:10953000E3B1174B1D680DB1AB69CBB1154B9C4224
:109540000FD0154B9C4221D0144B9C4208BFEC68B5
:10955000B4F90C3053B121462846BDE83840FFF736
:109560002FBF6C68B4F90C30002BF4D1002038BD4B
:10957000284600F015F9074B9C42E2D1F1E7084B71
:1095800008491868BDE8384000F04AB9AC68DFE720
:109590002002002050B2020030B2020010B20200DD
:1095A00070B20200D594020000207047014900F01B
:1095B00037B900BFD59402000020704770B568220B
:1095C0004D1E02FB05F50E4605F1740100F03AFB55
:1095D000044640B100210C30C4E90016A06005F13A
:1095E000680200F07BFA204670BD00BF274B2DE9D2
:1095F000F0411E68B369074653B348364FF004087C
:10960000D6E90134013B04D51EE05A1C04F168047C
:109610001AD0B4F90C50013B002DF6D11C4B6566F5
:10962000C4E90055C4E90253C4E90455A561082200
:10963000294604F15C0000F051FAC4E90D55C4E973
:1096400012552046BDE8F08135682DB12E46D7E78A
:10965000304600F01FF8D0E74FF4D671384600F0DE
:10966000F1FA044668B10560C0F804800C30294660
:10967000A06025464FF4D07200F030FA34602E46D8
:10968000BEE70C2330603B60DBE700BF70B2020036
:109690000100FFFF2DE9F84F344B35491A6881620C
:1096A00090424FF00003C0E91233036504BF012369
:1096B00083610546FFF79AFF68602846FFF796FF2B
:1096C000A8602846FFF792FF6F68E8600024042333
:1096D000C7E9024308222146C7E90044C7E9044418
:1096E0007C66BC6107F15C0000F0F8F9DFF88CB033
:1096F000AE68DFF88CA0DFF88C90DFF88C801D4B13
:10970000C7F828A0C7E9087BC7F82C90C7F83080B5
:109710000822F360C6E90044C6E904447466B460F4
:10972000B461214606F15C0000F0D8F9C6E9086B87
:10973000C6E90AA9C6F83080EE680F4BF360C6E9A7
:109740000044C6E904447466B460B461214608224A
:1097500006F15C0000F0C2F90123C6E9086BC6E916
:109760000B98C6F828A0AB61BDE8F88F70B2020074
:10977000AD9502000900010012000200459E0200A2
:109780006D9E0200AD9E0200CD9E0200024B034979
:10979000186800F045B800BF70B20200D59402000E
:1097A000836903B976E77047704700BF704700BF11
:1097B000704700BF704700BF024B0349186800F0B4
:1097C0000FB800BF20020020A9950200024B0349F8
:1097D000186800F005B800BF20020020B99502000B
:1097E0002DE9F041884600F148070026D7E90154E9
:1097F000013D0FD4A389012B05F1FF3506D9B4F93A
:109800000E300133204601D0C04706436B1C04F1E3
:109810006804EFD13F68002FE8D13046BDE8F08101
:109820002DE9F8430746884600F148064FF0000945
:10983000D6E90154013D11D4A389012B05F1FF356F
:1098400008D9B4F90E300133214603D03846C04759
:1098500049EA00096B1C04F16804EDD13668002E5A
:10986000E6D14846BDE8F88370B50D4E0D4D761B28
:10987000B61006D0002455F8043B01349847A642A0
:10988000F9D1094E094D761BFDF7AEFBB61006D097
:10989000002455F8043B01349847A642F9D170BD25
:1098A000D0B20200D0B20200D0B20200D0B20200A8
:1098B000844641EA000313F003036DD1403A41D3DB
:1098C00051F8043B40F8043B51F8043B40F8043B9A
:1098D00051F8043B40F8043B51F8043B40F8043B8A
:1098E00051F8043B40F8043B51F8043B40F8043B7A
:1098F00051F8043B40F8043B51F8043B40F8043B6A
:1099000051F8043B40F8043B51F8043B40F8043B59
:1099100051F8043B40F8043B51F8043B40F8043B49
:1099200051F8043B40F8043B51F8043B40F8043B39
:1099300051F8043B40F8043B51F8043B40F8043B29
:10994000403ABDD2303211D351F8043B40F8043BC9
:1099500051F8043B40F8043B51F8043B40F8043B09
:1099600051F8043B40F8043B103AEDD20C3205D3D9
:1099700051F8043B40F8043B043AF9D2043208D0D1
:10998000D2071CBF11F8013B00F8013B01D30B8843
:1099900003806046704700BF082A13D38B078DD021
:1099A00010F003038AD0C3F10403D21ADB071CBFF3
:1099B00011F8013B00F8013B80D331F8023B20F85D
:1099C000023B7BE7043AD9D3013A11F8013B00F896
:1099D000013BF9D20B7803704B7843708B7883701E
:1099E0006046704788420DD98B1883420AD900EB34
:1099F000020CBAB1624613F801CD02F801CD9942CA
:109A0000F9D170470F2A0ED8034602F1FF3C4AB144
:109A10000CF1010C013B8C4411F8012B03F8012FD0
:109A20006145F9D1704740EA01039B0750D1A2F18B
:109A3000100370B501F1200C23F00F0501F1100E99
:109A400000F11004AC441B095EF8105C44F8105C93
:109A50005EF80C5C44F80C5C5EF8085C44F8085C4A
:109A60005EF8045C44F8045C0EF1100EE64504F167
:109A70001004E9D1013312F00C0F01EB031102F0D5
:109A80000F0400EB031327D0043C24F003064FEA35
:109A9000940C1E441C1F8E465EF8045B44F8045F61
:109AA000B442F9D10CF1010402F0030203EB840388
:109AB00001EB840102F1FF3C4AB10CF1010C013BC6
:109AC0008C4411F8012B03F8012F6145F9D170BDC9
:109AD00002F1FF3C03469BE72246EBE7830730B5E4
:109AE00048D0541E002A3FD0CAB2034601E0013CD0
:109AF0003AD303F8012B9D07F9D1032C2DD9CDB210
:109B000045EA05250F2C45EA054536D9A4F1100292
:109B100022F00F0C03F1200EE6444FEA121C03F171
:109B2000100242E9045542E9025510327245F8D15B
:109B30000CF1010214F00C0F03EB021204F00F0CF5
:109B400013D0ACF1040323F003030433134442F8AD
:109B5000045B9342FBD10CF003042CB1CAB21C4449
:109B600003F8012B9C42FBD130BD64461346002C08
:109B7000F4D1F9E703461446BFE71A46A446E0E7E6
:109B8000002958D030B551F8043C83B0002BA1F126
:109B90000404B8BFE418019000F094FB284A01982F
:109BA000136833B1A3420DD9216804EB010C63455E
:109BB0002FD06360146003B0BDE8304000F084BB78
:109BC000A34210D81A465B68002BF9D1116802EB4A
:109BD000010C644519D02FD36360546003B0BDE815
:109BE000304000F071BB116802EB010CA44516D0A7
:109BF00022D8216804EB010C6345EDD11D685B6838
:109C00002944C4E900135460D5E72368194411605E
:109C1000D1E71D685B682944C4E90013CAE72468DA
:109C200021445418A3421160C5D1D3E90043214413
:109C3000C2E90013BFE770470C230360BBE700BF16
:109C4000F4120020F8B5CD1C25F0030508350C2DC5
:109C500038BF0C25002D064623DBA94221D8254F0D
:109C600000F030FB3A6822B3144603E063682246F2
:109C7000FBB11C4623685B1BF8D40B2B15D863681B
:109C800094420CBF3B605360304600F01DFB04F172
:109C90000B00231D20F00700C21A01D01B1AA3508D
:109CA000F8BD0C2333600020F8BD23601C44256000
:109CB000EAE77968C9B129463046FDF79DF9431CAA
:109CC0000CD0C41C24F00304A04205D0211A304655
:109CD000FDF792F9013001D02560D5E70C2330461D
:109CE000336000F0F1FA0020F8BD3046FDF784F94A
:109CF0007860E0E7F41200200EB410B5044683B09B
:109D000008B183695BB106ABA168059A019320464F
:109D100000F048FB03B0BDE8104003B07047FFF708
:109D20003FFDF0E70FB410B50A4B1C6882B00CB1D0
:109D3000A3695BB105ABA168049A0193204600F0CA
:109D400031FB02B0BDE8104004B070472046FFF779
:109D500027FDEFE7200200202DE9F0410E460746DF
:109D6000002833D083697BB384682F4B9C4237D063
:109D70002E4B9C423FD02E4B9C4208BFFC68A389CF
:109D80001B0731D523697BB33578B0463DB934E044
:109D900023685A1C22601D7018F8015F6DB3A36818
:109DA000013B002BA360F3DAA669B34229462246A1
:109DB000384601DB0A2DEBD100F010F90130EBD170
:109DC0004FF0FF30BDE8F081FFF7EAFCBB69BC68EB
:109DD000002BCAD13846FFF7E3FC134B9C42C7D196
:109DE0007C68A3891B07CDD42146384600F05AF978
:109DF0000028C9D0E4E7BC68C1E7A368013B002B99
:109E0000A36009DA22460A21384600F0E7F801305B
:109E1000D6D00A20BDE8F08123680A22591C2160AF
:109E20001A701046BDE8F08150B2020030B2020054
:109E300010B20200024B01461868FFF78DBF00BF49
:109E40002002002010B50C46B1F90E10FDF7F4F811
:109E5000002803DB636D0344636510BDA38923F40D
:109E60008053A38110BD00BF002070472DE9F04151
:109E70000C46B1F90C101F46CB05054616460BD40F
:109E800021F48051A1813B46B4F90E103246284698
:109E9000BDE8F041FDF7D4B8B4F90E10022300225A
:109EA000FDF7D7F8B4F90C10EAE700BF10B50C467F
:109EB000B1F90E10FDF7CDF8A389421C0EBF23F4B3
:109EC000805343F480536065A38110BDB1F90E1037
:109ED000FDF7BAB80000000000000000000000001C
:109EE0000000000000000000000000000000000072
:109EF0000000000000000000000000000000000062
:109F000090F800F06DE9024520F007016FF0000CB9
:109F100010F0070491F820F040F049804FF0000461
:109F20006FF00700D1E9002391F840F000F108003C
:109F300082FA4CF2A4FA8CF283FA4CF3A2FA8CF374
:109F40004BBBD1E9022382FA4CF200F10800A4FADB
:109F50008CF283FA4CF3A2FA8CF3E3B9D1E904232F
:109F600082FA4CF200F10800A4FA8CF283FA4CF366
:109F7000A2FA8CF37BB9D1E9062301F1200182FA20
:109F80004CF200F10800A4FA8CF283FA4CF3A2FA26
:109F90008CF3002BC6D0002A04BF04301A4612BA34
:109FA000B2FA82F2FDE8024500EBD2007047D1E937
:109FB000002304F00305C4F100004FEAC50514F0C6
:109FC000040F91F840F00CFA05F562EA05021CBF97
:109FD00063EA050362464FF00004A9E7F8B50D46B1
:109FE0001446064608B1836943B3254B9C422AD0E8
:109FF000244B9C4229D0244B9C4208BFF468A3897F
:10A00000A269A2601A0722D5236903B32268616995
:10A01000D31AEDB299422F4629DD0133A1680139E7
:10A02000A160511C2160157062699A4216D0A38903
:10A03000DB0701D50A2D11D03846F8BDFFF7B0FB7C
:10A040000F4B9C42D4D17468D9E7B468D7E7214656
:10A05000304600F027F838B92369D7E72146304663
:10A06000FFF738FA0028E7D04FF0FF37E4E7214642
:10A070003046FFF72FFA0028F6D122680123CDE7FA
:10A0800050B2020030B2020010B2020010B4044C10
:10A0900003460A4620685DF8044B1946FFF79EBF49
:10A0A000200200203C4B70B51D6806460C460DB1E1
:10A0B000AB69E3B1394B9C421FD0394B9C424DD028
:10A0C000384B9C4208BFEC68B4F90C3018079AB2C0
:10A0D00019D5216911B312F001002FD00020A06022
:10A0E00060694042A06100292ED0002070BD284642
:10A0F000FFF756FB294B9C42DFD16C68B4F90C305A
:10A1000018079AB2E5D4D1063ED5520728D4216962
:10A1100043F00803A3819AB20029DCD102F4207035
:10A12000B0F5007FD7D02146304600F03DF8B4F9B5
:10A130000C3021699AB212F00100CFD1950758BFB7
:10A140006069A0600029D0D1120658BF0846CDD55D
:10A1500043F04003A3814FF0FF3070BDAC68B3E71C
:10A16000616B51B104F14402914204D03046FFF7D3
:10A1700007FDB4F90C300022626321690022C4E9B2
:10A18000001223F02403C3E7092243F040033260A6
:10A190004FF0FF30A38170BD2002002050B20200BA
:10A1A00030B2020010B20200F0B58B890C4699075C
:10A1B00097B007D504F147030122C4E904322360B4
:10A1C00017B0F0BDB4F90E10002905462DDB6A4624
:10A1D000FCF744FF002827DB019E06F470464FF48D
:10A1E0008067A6F50056B6FA86F6394628467609FF
:10A1F000FFF728FD30B3A3891A4AAA6243F080030F
:10A20000C4E90407A3812060002ED9D0B4F90E1050
:10A210002846FCF728FF0028D2D0A38923F00303A7
:10A2200043F00103A381CBE7A38913F0800F14BF90
:10A2300040274FF48067394628460026FFF702FD85
:10A240000028D8D1B4F90C309A05B9D423F003030F
:10A2500004F1470243F002030121C4E90421A38170
:10A260002260ADE7AD95020070B50C46B1F90E1055
:10A27000002996B016461D4613DB6A46FCF7EEFE33
:10A2800000280EDB019901F47041A1F50051B1FAEB
:10A2900081F14FF48063490900202960336016B0D2
:10A2A00070BDB4F90C3000221B062A6004D540238F
:10A2B0000020336016B070BD4FF48063002033601F
:10A2C00016B070BD704700BF704700BFF8B51446A8
:10A2D000F9B1CAB106460D4600F06AFDA04202D3AC
:10A2E0002F463846F8BD21463046FFF7ABFC0746FF
:10A2F0000028F6D022462946FFF7DAFA30462946EA
:10A30000FFF73EFC3846F8BD2746FFF739FC3846D4
:10A31000F8BDBDE8F8401146FFF794BC9368013BD7
:10A32000002B936011DA10B49469A34209DB0A2967
:10A3300007D01368581C1060197008465DF8044B6C
:10A3400070475DF8044BFFF749BE1368581C106056
:10A3500019700846704700BF9BB1F8B51344064614
:10A360000F46541E5D1E01E0AC4208D014F8011FD8
:10A370003A463046FFF7D2FF431CF5D1F8BD002026
:10A38000F8BD0020704700BF936810B5144613B99C
:10A390005360184610BD00F043FB0023C4E90133AD
:10A3A00010BD00BF2DE9F04F88469FB015461C46F2
:10A3B000814618B18369002B00F0A280924B98452A
:10A3C00000F0A480914B984500F0B180904B9845E7
:10A3D00008BFD9F80C80B8F80C30180740F19D8000
:10A3E000D8F81030002B00F0988000230B932978C8
:10A3F000884E059420238DF8313030238DF832308B
:10A400000127002974D02C460B4604E014F8013FC4
:10A41000002B00F08F80252BF8D1B4EB050B40F01A
:10A420008C802378002B63D000234FF0FF32CDE9DE
:10A430000723069309938DF85B301C93013404E0E5
:10A44000069A07FA03F3134306932546052214F8E8
:10A45000011B304600F05CFC831B0028F0D1069BFA
:10A46000D90644BF20228DF85B2029781A0744BF03
:10A470002B228DF85B202A2970D1059A11680432AD
:10A4800000290592C0F29B800991697801352E2937
:10A4900076D0614C0322204600F03AFC38B1069B8E
:10A4A000001B402404FA00F003430693013515F81D
:10A4B000011B5A488DF83010062200F029FC0028B4
:10A4C00000F08380564B002B6DD005AA0092554BAF
:10A4D000424606A94846AFF300800390039B013330
:10A4E00006D00B9B039A297813440B9300298AD139
:10A4F000B8F80C305B0617D40B981FB0BDE8F08F8E
:10A50000FFF74EF9404B98457FF45CAFD9F80480D3
:10A51000B8F80C3018073FF563AF41464846FFF7DF
:10A52000C1FD00283FF461AF4FF0FF30E5E7D9F8F7
:10A53000088050E7B4EB050BDAD0AA46C5F1010557
:10A5400003E0934536D91AF8011F42464846FFF703
:10A55000E5FE013005EB0A02F3D1C9E7A1F13002B3
:10A56000092A94D8099B15F8011F03EB830302EB1A
:10A570004303A1F13002092AF5D92E29099388D184
:10A5800069782A292BD1059BA9781A680792043388
:10A59000002A05F102000593B8BF4FF0FF330546CE
:10A5A000B8BF079375E7059B073323F0070308330C
:10A5B000059396E70B9A23785A440B9232E7494267
:10A5C00043F00203099106935FE705AA0092154B39
:10A5D000424606A9484600F0CBF803907EE7A1F179
:10A5E00030020023092A079305F101053FF651AF18
:10A5F00015F8011F03EB830302EB4303A1F13002C3
:10A60000092AF5D9079344E750B2020030B202009C
:10A6100010B2020074B202007CB2020080B20200EA
:10A620000000000059A3020010B4054C84461346F4
:10A6300020685DF8044B0A466146FFF7B3BE00BFD1
:10A64000200200202DE9F84F92461F460A698B68C8
:10A65000DDF828909A42B8BF1A46CAF8002091F84F
:10A6600043300C46064613B10132CAF80020226876
:10A6700091065DD5DAF800300233CAF8003022685E
:10A6800012F0060F11461ED1E168CB1A002BD8BF7D
:10A69000114618DD04F1190B4FF0000805E0E568DC
:10A6A000DAF80030ED1A45450CDD01235A463946EB
:10A6B0003046C847013008F10108F0D14FF0FF30B3
:10A6C000BDE8F88F216894F84330003B18BF0123A0
:10A6D0008A060AD5E1185A1C302081F8430022442A
:10A6E00094F8451082F84310023304F143023946CE
:10A6F0003046C8470130E1D0236803F00603042B3D
:10A700001DD0A3682269934225DD4FF000089B1AF3
:10A7100098441A34002501E045451CDA01232246FD
:10A7200039463046C847013005F10105F4D1C5E787
:10A7300012F0060F12D0003B18BF0123D5E7DAF85C
:10A740000030E1682269C91AA368934221EAE178DE
:10A75000DDDC0029DDDC0020BDE8F88FE168DAF8F7
:10A760000030CB1A002BD8BF114693DCABE700BFFB
:10A770002DE9F0470C4684B09046227E0C9907469E
:10A78000994604F14300002A33D0A2F15803DDB208
:10A79000202D67D8202B65D8DFE813F0DE00640099
:10A7A0006400640064006400640064006400640089
:10A7B0006400A3006E0064006400640064006E0026
:10A7C000640064006400640021007F00C000640035
:10A7D0006400AE0064007F0064006400E50023684C
:10A7E0001A0640F104810B6862691D1D0D601B682B
:10A7F0001A60002382462361CDF80090434603AAE5
:10A8000021463846FFF71EFF013020D0236952460B
:10A8100041463846C847013019D02368E068039E96
:10A820009B0719D5831B002B16DD04F1190A00259F
:10A8300004E0E068039E831BAB420DDD012352461A
:10A8400041463846C847013005F10105F1D14FF0C6
:10A85000FF3004B0BDE8F087B042B8BF304604B066
:10A86000BDE8F087012384F84220236104F1420A05
:10A87000002384F84330BFE723681A0602D45E063B
:10A8800000F1C1800D682A6804350D601546002A64
:10A890006BDBDFF884C10A2610E023681D0640F157
:10A8A0009C800B681D1D0D601D68DFF86CC16F2A50
:10A8B0000CBF08260A26002384F843306268A26091
:10A8C000002A7FDB236823F004032360002D5BD183
:10A8D000002A79D18246082E65D0A0EB0A002061BB
:10A8E0008AE70B680122186804330B6004F1420AFE
:10A8F00084F842002261BBE70B686268181D08609B
:10A90000D3F800A00021504600F002FA002800F021
:10A910008180A0EB0A0060602061A9E7236843F012
:10A92000200323607822DFF8F4C084F845200A6809
:10A93000151D0D601D0643D4590641D51588DE0747
:10A9400044BF43F020032360002D44D1236823F04B
:10A95000200323601026AEE7582384F84530DFF843
:10A96000B8C02368E3E72368DCE76268A2602D21B2
:10A97000002AC5F1000584F8431002DB23F004032C
:10A980002360DFF894C00A268246B5FBF6F306FB87
:10A9900013512A461CF801100AF8011DB2421D4647
:10A9A000F3D2082E99D12368D90796D56268236916
:10A9B0009A4292DC30230AF8013C0AF1FF3A8CE714
:10A9C0001568BCE7002DDFD19CF8003084F84230D8
:10A9D00004F1420A7FE710266DE713F0400F0B6881
:10A9E00003F104050D600CBF1D681D885DE713F0C1
:10A9F000400F0B68626903F104050D601B6814BF0A
:10AA00001A801A60F5E60A68B2F9005004320A604A
:10AA10002A463CE760687FE788B202009CB20200E9
:10AA20009368002B00F085802DE9F04FB1F90C30D0
:10AA30000C461907804683B0174698B225D523697E
:10AA40001BB310F002033D682DD04FF0000ADFF871
:10AA5000BCB25646B9465E453346524628BF5B46B1
:10AA60004046002E52D0216AA76AB847002856DD1A
:10AA7000D9F808301B1A8244361AC9F80830002B5E
:10AA8000E9D1002003B0BDE8F08F21464046FFF732
:10AA900009FB002840F03681B4F90C303D6898B2CB
:10AAA00010F00203D1D110F0010944D14E460097B5
:10AAB00046B38205D4F808B040F18380B3455A46C6
:10AAC00000F2B28010F4906F40F0BF8020680192D5
:10AAD0004946FEF787FFA368019AA3EB0B012368A1
:10AAE000A1601344B24623600026009B9868A0EB47
:10AAF0000A00D14498600028C3D0B4F90C0080B299
:10AB0000002ED6D1D5E900960835D1E7D5E900A6C3
:10AB10000835A0E721464046FEF7DCFC80B3B4F9D7
:10AB20000C3043F040034FF0FF30A38103B0BDE889
:10AB3000F08F002070471E46AA46994618461D46CB
:10AB4000009756B388B34A46D4E904132068B2424A
:10AB500028BF3246884205D9A16803EB010B5A454C
:10AB600000F3A680934263DC216AA76A2A46404626
:10AB7000B847B0F1000BD2DDB9EB0B09CAD0012008
:10AB8000009A9368A3EB0B035D44A6EB0B0693605E
:10AB9000002B3FF476AF002ED4D10AF1080353E91D
:10ABA00002569A460833002EF9D032460A2128462A
:10ABB00000F0AEF8002800F09C800130A0EB050901
:10ABC000C1E720682369984216D86369B34213D855
:10ABD0006FF00042B24228BF3246216A92FBF3F284
:10ABE000A76A02FB03F340464A46B847B0F1000AA1
:10ABF00095DDA6EB0A0678E7B345DA4628BFB246EC
:10AC000052464946FEF7EEFEA3682268A3EB0A030C
:10AC10005244A3602260002BEBD121464046FEF750
:10AC200059FC0028E5D07AE72068B34632464EE763
:10AC300029460192FEF7D6FE019AA3689B1AA360EB
:10AC4000236813442360934696E723682169A3EBA6
:10AC5000010B636903EB430A0AEBDA7A0BF1010398
:10AC60004FEA6A0A33445345524684BF9A465246D5
:10AC700043052CD511464046FEF7E4FF00283BD0A3
:10AC80005A4621690190FEF713FEA289019B22F426
:10AC9000906242F08002A28103EB0B002361AAEBD9
:10ACA0000B03C4F814A0A3602060B34632460EE73D
:10ACB00029465A46FEF796FE23685B4423602146E8
:10ACC0004046FEF707FC00283FF456AF27E7404612
:10ACD000FFF7FCFA03460028DED121694046FEF763
:10ACE0004FFFB4F90C300C2223F08003C8F8002089
:10ACF00017E7721C914627E70C22B4F90C30C8F80C
:10AD000000200EE74FF0FF30BCE600BF00FCFF7FE5
:10AD100001F0FF01102A2BDB10F0070F08D010F80C
:10AD2000013B013A8B422DD010F0070F42B3F6D110
:10AD3000F0B441EA012141EA014122F007047FF029
:10AD400000070023F0E80256083C85EA010586EA80
:10AD5000010685FA47F5A3FA87F586FA47F6A5FABC
:10AD600087F68EB9EED1F0BC01F0FF0102F00702C8
:10AD700032B110F8013B013A83EA010313B1F8D173
:10AD80000020704701387047002D06BF3546033854
:10AD9000073815F0010F07D1013015F4807F02BF8D
:10ADA000013015F4C03F0130F0BC0138704700BFDE
:10ADB00051F8040C0028A0F10400BCBF0B58C018C7
:10ADC000704700BF7573627573004641494C454436
:10ADD00020415353455254494F4E2E003078257828
:10ADE000203D3E20006D61696E28293A2054686933
:10ADF000732069732052494F54212028566572737D
:10AE0000696F6E3A20323032352E30372D646576D8
:10AE1000656C2D3234392D67666332653229006DD9
:10AE200061696E002A2A2A2052494F54206B6572AC
:10AE30006E656C2070616E69633A0A25730A0A00B8
:10AE40002A2A2A2068616C7465642E0A007363687C
:10AE50006564756C657228293A20737461636B2090
:10AE60006F766572666C6F77206465746563746570
:10AE7000642C207069643D2568690A00535441437D
:10AE80004B204F564552464C4F5700496E736964EC
:10AE900065206973722025640A004E4D492048419F
:10AEA0004E444C4552004D454D204D414E41474585
:10AEB0002048414E444C455200425553204641558E
:10AEC0004C542048414E444C45520055534147454F
:10AED000204641554C542048414E444C4552004474
:10AEE00045425547204D4F4E2048414E444C455217
:10AEF0000044554D4D592048414E444C4552000A9E
:10AF000049535220737461636B206F766572666C6F
:10AF10006F77656400537461636B20706F696E7442
:10AF2000657220636F727275707465642C2072652F
:10AF300073657420746F20746F70206F6620737453
:10AF400061636B0061637469766520746872656122
:10AF5000643A202568690A000A436F6E7465787444
:10AF6000206265666F726520686172646661756CE7
:10AF7000743A0020202072303A2030782530386C26
:10AF8000780A20202072313A2030782530386C78C9
:10AF90000A20202072323A2030782530386C780A26
:10AFA00020202072333A2030782530386C780A001F
:10AFB00020207231323A2030782530386C780A20DF
:10AFC00020206C723A2030782530386C780A2020A6
:10AFD0002070633A2030782530386C780A20207051
:10AFE00073723A2030782530386C780A0A0046535C
:10AFF000522F4641523A0020434653523A2030786D
:10B000002530386C780A0020484653523A20307870
:10B010002530386C780A0020444653523A20307864
:10B020002530386C780A0020414653523A20307857
:10B030002530386C780A0020424641523A20307858
:10B040002530386C780A004D4D4641523A20307810
:10B050002530386C780A004D697363004558435FAA
:10B060005245543A2030782530386C780A004163D4
:10B0700074697665207468726561643A2025686930
:10B0800020222573220A0048617264206661756C73
:10B0900074206F6363757272656420696E20495312
:10B0A00052206E756D6265722025640A00417474C9
:10B0B000656D7074696E6720746F207265636F6E62
:10B0C00073747275637420737461746520666F7233
:10B0D00020646562756767696E672E2E2E00496E63
:10B0E000204744423A0A2020736574202470633D4F
:10B0F0003078256C780A20206672616D6520300AF0
:10B10000202062740A000A49535220737461636BF1
:10B11000206F766572666C6F776564206279206156
:10B1200074206C6561737420256420627974657382
:10B130002E0A0048415244204641554C5420484173
:10B140004E444C455200303132333435363738397D
:10B1500041424344454600004D7A02008575020095
:10B160001179020001780200617602002D7602005A
:10B1700037760200FD770200A37802002B780200E8
:10B180002F790200C5760200197E02000D7F0200B1
:10B190001B00000000000000557E0200117E02002E
:10B1A000238002002B810200C1820200558302002D
:10B1B0000D8602000000000001010100030201559C
:10B1C000534220636F6E66696700616461667275E1
:10B1D00069742D666561746865722D6E72663532AC
:10B1E0003834302D73656E73650052494F542D6F9E
:10B1F000732E6F72670001000D900200CF8F020066
:10B20000D59002005D93020059930200559302000D
:10B21000000000000000000000000000000000002E
:10B22000000000000000000000000000000000001E
:10B23000000000000000000000000000000000000E
:10B2400000000000000000000000000000000000FE
:10B2500000000000000000000000000000000000EE
:10B2600000000000000000000000000000000000DE
:10B2700024020020232D302B20000000686C4C009D
:10B28000656667454647000030313233343536371E
:10B2900038394142434445460000000030313233E2
:10B2A0003435363738396162636465660000000002
:10B2B0002D93020095610200F77C0200F17C0200F0
:10B2C000DF7C020000000000000000004D82020050
:10B2D0002A00030022000000FC1200207C10002045
:10B2E000400000000000000000000000FFFFFFFF22
:10B2F000240200200000000050B2020030B2020020
:10B3000010B2020000000000000000000000000079
:10B31000000000000000000000000000000000002D
:10B32000000000000000000000000000000000001D
:10B33000000000000000000000000000000000000D
:10B3400000000000000000000000000000000000FD
:08B35000000000002C210000A8
:0400000320006979F7
:00000001FF
