:020000022000DC
:1060000000020020CD6A0200696A0200256A0200CF
:10601000796A0200896A0200996A020000000000A1
:10602000000000000000000000000000096A0200FB
:10603000A96A020000000000BD690200B96A0200FE
:10604000DD7E0300296D030021820300B56E02008E
:10605000D16E0200DD7E0300DD7E0300DD7E0300E5
:10606000DD7E0300DD7E0300DD7E0300416D030065
:10607000DD7E0300356D0300DD7E0300DD7E030061
:10608000DD7E0300B17F0300DD7E0300DD7E0300C3
:10609000DD7E0300DD7E0300DD7E0300DD7E030088
:1060A000DD7E0300DD7E0300DD7E0300DD7E030078
:1060B000DD7E0300DD7E0300000000000000000024
:1060C000DD7E0300DD7E0300DD7E0300ED6E020059
:1060D000DD7E0300DD7E0300DD7E0300CD8703004F
:1060E000DD7E0300DD7E0300DD7E03000000000096
:1060F00000000000DD7E030000000000096F0200C8
:1061000008B5094B0321186814F068F8074814F023
:1061100023FE0749074814F097FD0749074814F084
:1061200093FD002008BD00BFBCC9030070BF030081
:106130007DBF03009DBF0300C5BF0300CBBF0300AD
:1061400070B5064E064CA41BA4080025AC4200D135
:1061500070BD56F8253098470135F7E7F8CA0300B7
:1061600004CB030013B5002012F01AFB014608B956
:1061700000F046F8084C204613F0E4FC204612F0EC
:106180009BFF064B0648009401224FF4806113F0F8
:10619000E5FC02B010BD00BFE0060020EDBF03002B
:1061A000E0020020704700004FF080435722C3F800
:1061B0001C25BFF34F8F0549054BCA6802F4E06206
:1061C0001343CB60BFF34F8F00BFFDE700ED00E04E
:1061D0000400FA0508B5EFF3058313F0FF0F08D1AB
:1061E000EFF310832BB9054814F0B6FD00F096FAD2
:1061F000FCE70249032000F03BF800BFF3BF0300B7
:1062000008B57146024814F01FFDFFF7E3FF00BF19
:1062100005C0030008B5FFF793FF034814F09CFD89
:10622000FFF76EFF002008BD0EC003001FB5EFF39F
:10623000108372B6074B029300230193064B009321
:10624000072204234FF4C061044800F097FA00F0DD
:106250009FFB00BF4DC003001562020090080020A4
:1062600008B512F055FBBDE8084012F005BC7047B8
:1062700008B50B4B1A680C4652B901221A60FFF799
:10628000F6FF0848214614F0DFFC074814F064FDCF
:10629000EFF3108372B600F021FBFFF785FF00BF1C
:1062A000900E002052C003006EC00300F8B50446F3
:1062B0000D46EFF3108772B603683BB94FF0FF331A
:1062C000036087F3108801252846F8BD11B987F3CC
:1062D0001088F9E70F4B1E680EB9FFF791FF0321F5
:1062E000304600F029F9236801330DD106F10C0383
:1062F00023600023F36087F31088074B4FF0805230
:106300005A60BFF36F8FDFE73146204600F022FA74
:10631000F1E700BF9C0E002000ED00E02DE9F04108
:106320000446EFF3108772B690F80880B8F1000FBA
:1063300005D087F310886FF08B00BDE8F081056809
:10634000286828B94FF0FF322A6087F31088F4E7F5
:10635000124B1E680EB9FFF753FF0321304600F0C1
:10636000EBF82B68013313D106F10C032B60C6F850
:106370000C8087F310880A4B4FF080525A60BFF3AD
:106380006F8F237A002B14BF6FF08B000020D4E7AF
:106390003146284600F0DEF9EBE700BF9C0E0020F6
:1063A00000ED00E038B50446EFF3108572B60068E2
:1063B00010B985F3108838BD431C02D10023236037
:1063C000F7E750F80C3923600C2100F0B5F823688A
:1063D00013B94FF0FF33236085F31088034B4FF060
:1063E00080525A60BFF36F8FE5E700BF00ED00E019
:1063F00038B5EFF3108572B6012344680372237930
:106400000A2B02D985F3108838BD02681368013B56
:106410000333F7D8134604F10C0019461B68002B10
:10642000F0D09842F9D1E3680B60136813B94FF0CC
:10643000FF3313600C21204600F07EF885F31088AE
:106440006079BDE8384000F0B5B8026810B592B187
:1064500013688B4208D18A4202D10023036001E015
:106460000B681360084610BD13461B681C68A142E8
:1064700003D09A42F9D10021F4E72BB10A681A60DF
:1064800002688A42EED1E9E71946EBE708B50379DD
:106490000B2B04BF0C230371836A1A68934208D044
:1064A000B0F90610034814F0CFFB03490D20FFF7A5
:1064B000DFFE08BD7BC00300AAC0030070B5184C06
:1064C000184D23682E6843BB16B13046FFF7DEFF38
:1064D00000F0A2FA2368002BFAD00020124B002211
:1064E0001A602368114AB3FA83F352F823301C6808
:1064F0000C3C0B23B44223710DD008B1FFF7C6FF4B
:106500000B4BA16AB4F906201A801F31094A2C608E
:10651000022000F0D7F9204670BD3046DEE700BF0C
:10652000940E00209C0E0020A00E0020A80E00203B
:10653000980E002008000616F8B50A2903790446CB
:106540000D461AD90A2B14D84779184A52F82760F1
:1065500039460C307EB13368E36052F8273018605A
:1065600042F82100124A4FF000431168FB400B43F0
:1065700013602571F8BDE060F2E70A2BF9D90B4EE4
:10658000407904F10C0106EB8000FFF75EFF6279B1
:1065900056F82230002BECD105494FF0004323FA86
:1065A00002F20B6823EA02030B60E2E7A80E002068
:1065B000940E00200B4B1B681A790A2A02D95B79CA
:1065C00083420ED9EFF3058313F0FF0F03D0064B80
:1065D00001221A607047054B4FF080525A60BFF39A
:1065E0006F8F70479C0E0020A00E002000ED00E091
:1065F00008B5EFF3108372B6094B0A4A1B880A4D9F
:106600001BB2002442F82340084A28681368214638
:10661000013B1360FFF790FF2C6000F0B9F900BF59
:10662000980E0020E80E00209C0E0020A40E0020F2
:106630000C4B10B51B68EFF3108472B61A89104228
:106640000DD1186107211846FFF776FF84F31088F3
:10665000054B4FF080525A60BFF36F8F10BD84F32B
:106660001088FBE79C0E002000ED00E010B503460B
:10667000EFF3108472B6028802EA010022EA0101F7
:10668000198084F3108810BD13B5064B01901C6867
:10669000FFF7CEFF019904F1080002B0BDE81040F9
:1066A000FFF7E4BF9C0E002010B5EFF3108472B624
:1066B000038902791943072A038A018104D0082A31
:1066C00014D084F3108810E019400029F9D00C216F
:1066D000FFF732FF084B01221A6084F31088074B42
:1066E0004FF080525A60BFF36F8F10BD8B430CBFC9
:1066F00001210021E9E700BFA00E002000ED00E02D
:10670000431E9BB21F2B05D8034B53F8200010B13A
:10671000C06A704700207047E80E002010B5EFF304
:10672000058313F0FF0F0FD1EFF3108472B6074B00
:1067300002211868FFF700FF84F31088044B4FF024
:1067400080525A60BFF36F8F10BD00BF9C0E0020B7
:1067500000ED00E038B50B790A2B01D9FFF750FDA9
:106760004C7901F10C020346006818B110F8075C7F
:10677000A542F8D9C8601A6038BD00000F2A2DE97B
:10678000F84F05468A469046994633D810F00303E1
:106790001DBFC3F10402043B5B180B46A3F1340395
:1067A00018BFAD1833F0030324D419F0080F05EB1C
:1067B000030416D02D60EFF3108B72B62749012227
:1067C00051F8226017B2C6B10132212AF8D18BF3F9
:1067D00010886FF08A073DE012600432A242FBD3BA
:1067E000E9E72A46FAE702212046FFF7A5FE8BF3E8
:1067F00010882FE06FF015072CE041F822402A4660
:10680000DDE90A01E78000F08FF80C9B144AE3628F
:106810004FF0FF33C4E9083613682060013319F0E4
:10682000010FC4E90366C4E90566A562C4F830A097
:1068300084F805802671E6611360D4D10C212046CE
:10684000FFF77AFE19F0040FD1D18BF31088404680
:10685000FFF7B0FE3846BDE8F88F00BFE80E002015
:10686000A40E00200C4B0D4A10B540219A600C4C30
:10687000E02283F82220D9770022A0180132302AA2
:1068800080F80013F9D11A6942F010021A615A69AE
:1068900042F400725A6110BD00ED00E00060020099
:1068A00000E100E0064A536843F00503536052F8E4
:1068B0006C3C43F4803342F86C3C0020704700BFCE
:1068C00090ED00E0044B21F01F0142F001029860BE
:1068D000D96000201A61704790ED00E008B5EFF331
:1068E0000581C1F3080119B10448103914F0ACF95D
:1068F000034B1B68DB0700D500BE08BDB9C0030011
:10690000F0ED00E0BFF34F8F0549064BCA6802F473
:10691000E0621343CB60BFF34F8F00BFFDE700BFC2
:1069200000ED00E00400FA05134423F003034FF0E8
:10693000773210B543F8042C5A0758BF4FF088320D
:10694000A3F104045CBF43F8082CA3F108044FF042
:10695000807344E902030D4B44F80C3C00220323EE
:1069600044E9053202200123224644E907306FF052
:10697000020344F8201C42F8243D0B2342F8043D56
:10698000013B032BFAD1A4F1440010BDF1650200D4
:106990000023E1EE103AEFF3148323F0040383F3B2
:1069A0001488BFF36F8FEFF3108362B6024B4FF082
:1069B00080525A60BFF36F8F00ED00E0114910B5AF
:1069C0000C6872B6FFF77AFD62B6A04208BF10BD30
:1069D0002146BDE8104049B1EFF309821EF0100FC7
:1069E00008BF22ED108A22E9F04F0A600068B0E883
:1069F000F04F1EF0100F08BFB0EC108A80F309882A
:106A0000704700009C0E0020024B4FF080525A60ED
:106A1000704700BF00ED00E030BF62B6BFF36F8F7C
:106A200072B670470D4B0E4A0E496846904203D825
:106A3000984201D9002102E009468D460121042037
:106A40007246024202D1EFF3088001E0EFF30980C1
:106A50002DE9F00F6B4600F087F800BF58010020C9
:106A6000000004200002002008B502490620FFF7BC
:106A7000FFFB00BFC8C0030008B502490520FFF7AF
:106A8000F7FB00BFD4C0030008B502490820FFF798
:106A9000EFFB00BFE7C0030008B502490920FFF77C
:106AA000E7FB00BFF9C0030008B502490A20FFF761
:106AB000DFFB00BF0DC1030008B502490B20FFF743
:106AC000D7FB00BF1FC10300704770471C4AD2F8B4
:106AD000883043F4700310B5C2F88830FFF7F4FF34
:106AE0006A46184B1848194693421DD3174B184A4B
:106AF000184883421BD3184B184A002093421BD3DB
:106B000021B1174A17490120FFF7DCFEFFF7CAFE43
:106B1000FFF7DBFF00F092F9FFF744FB13F0F4FD01
:106B2000BDE81040FFF782BB43F8040BDCE752F8E6
:106B3000044B43F8044BDCE743F8040BDEE700BFEB
:106B400000ED00E000000020FEE7FEE7000200206C
:106B50001CCB0300E0020020E0020020BC5B002010
:106B6000080006161F0000202DE9F04F2DED068BC2
:106B700089B0904604935C4B9A6B08EE102A5A6BCE
:106B8000D3F828A008EE902ADA6A09EE102A1A6BC8
:106B9000DB6B0AEE103A554B09EE902A1A68544BFB
:106BA0009A420446894602D0524814F0D5F8B9F109
:106BB000000F6BD0504814F0CFF8504B5048198854
:106BC00009B214F041F800252E464E4814F0C4F8DE
:106BD00051464D4814F038F819EE101A4B4814F08D
:106BE00033F819EE901A4A4814F02EF81AEE101ADB
:106BF000484814F029F81AF4004F04D018EE101A7F
:106C0000454814F021F81AF0800F04D018EE901ABD
:106C1000424814F019F8424814F09EF841484146A1
:106C200014F012F8B9F1000F2CD118F0080F55D05C
:106C3000324B198809B208460391FFF761FD0399A9
:106C40000246394814F000F8384814F085F8314607
:106C5000374813F0F9FF6946364BC91A03D5364851
:106C6000494213F0F1FF049B1E4620468268C36828
:106C700001698C4641698E46AD46314691E8F00F78
:106C8000416800682D490720FFF7F2FAD4E9023085
:106C9000D4E90012E769039020690591D4E905B6AB
:106CA0000AEE900AB8052648CDE9062354BF04F140
:106CB000200504F1240514F04FF8039B0599009377
:106CC0002048DDE9062313F0BFFF1AEE901A009763
:106CD00033465A461C4813F0B7FF76E7217F1B481E
:106CE000103913F0B1FFAFE700ED00E00000002025
:106CF000FEE7FEE72DC1030043C10300980E00200C
:106D000072C103001CC2030025C2030035C2030088
:106D100045C2030055C2030065C2030075C20300EB
:106D200085C203008AC203009CC20300DBC20300C9
:106D30000CC303005801002034C3030061C30300E7
:106D400086C10300A1C10300DEC10300B5C2030078
:106D500070470000EFF3108172B6094B1A680132D8
:106D6000012A1A6009D14FF080430020C3F80001C6
:106D70001A60D3F80021002AFBD081F310887047F5
:106D80006C0F0020094A08B513680BB9FFF738FAF1
:106D9000EFF3108172B61368013B13601BB94FF01B
:106DA000804301225A6081F3108808BD6C0F0020D7
:106DB000114A117838B5F1B94FF080431C46C3F839
:106DC0001815C3F8041101219960D4F80431002B7F
:106DD000FBD001251570FFF7BDFF0023C4F80C316F
:106DE0004FF080422561D2F80C31002BFBD0BDE87A
:106DF0003840FFF7C7BF38BD700F00200C4B1B7821
:106E0000062B12D10B4B186810F00F000DD1043374
:106E10001B6803F0F003302B08D1074B1B6813F0FD
:106E2000F00F0CBF0120002070470020704700BF0A
:106E3000E00F00F0E40F00F0EC0F00F008B5FFF7F2
:106E4000DDFF20B1114AD36823F08073D360FFF7D0
:106E5000D5FF10B10E4B03221A60FFF7CFFF30B100
:106E60004FF080430022C3F80C21C3F81021FFF734
:106E70006FFF084B0122C3F84025FFF7F3FCFFF733
:106E8000EFF9BDE8084011F059BD00BFF0ED00E09A
:106E9000A005004000E00140044B1B682BB1044BEF
:106EA0004FF080525A60BFF36F8F7047A00E0020E2
:106EB00000ED00E008B5044A044B10681B689847D1
:106EC000BDE80840FFF7E8BF840F0020740F0020E2
:106ED00008B5044A044B50685B689847BDE8084011
:106EE000FFF7DABF840F0020740F002008B5044AB2
:106EF000044B90689B689847BDE80840FFF7CCBFFB
:106F0000840F0020740F002008B5044A044BD06899
:106F1000DB689847BDE80840FFF7BEBF840F00203C
:106F2000740F0020D0E902301847000070B50E46FB
:106F3000154600211022044613F064FD024BE56063
:106F4000C4E9013670BD00BF256F02000368024628
:106F50003BB11868834219BF02681A6000231360AE
:106F600070471846704708B500B109B9FFF748F9EE
:106F70004B68002BFAD0EFF3108272B60B6833B96E
:106F800003686BB11B680B6003681960016040689F
:106F900082F3108830B1BDE808400121FFF784BBBF
:106FA0000960F3E708BD38B5024608B9FFF728F9CC
:106FB0000029FBD0EFF3108572B6046824B1236872
:106FC000994206D1FFF7C2FF00230B6085F31088BA
:106FD00038BD23461B681868814202D09C42F9D113
:106FE000F2E7002BF0D0086818601068814208BFF3
:106FF0001360E9E708B5EFF3108172B6FFF7A6FF5B
:1070000081F3108808B10023036008BDF8B50D4670
:10701000044600B109B9FFF7F3F8EFF3108772B631
:10702000002621464B68002BF5D00846FFF78EFF5F
:10703000083140B90136B542F4D187F310880120F8
:10704000FFF722FBE9E70022026087F31088F8BD12
:1070500038B1054B0A0901F00F019A5C5B5C0270C4
:1070600043700220704700BF74C30300F8B50D469B
:107070005700064610B18C18A54201D13846F8BD1C
:10708000304615F8011BFFF7E3FF0644F4E790B123
:10709000D9B1002340EA0102D2070ED5C20710D5AC
:1070A000CA0710D581423EBF024608461146091A5A
:1070B000F6D100FA03F10846704740084908013349
:1070C000E8E74008EAE74908EAE70146F3E72DE97F
:1070D000F04707460D4614460AB9FFF791F81146E6
:1070E0002846FFF7D4FFA042F7D8A84241D8B4FB06
:1070F000F0F2B5FBF0F04FF00048B0FA80FE00214E
:10710000CEF1200C28FA0EF80E46002400250023AC
:10711000CEF15F0E14EB040A45EB050910EA080FE7
:1071200054464D461EBF4AF0010A4D4654469D4204
:1071300008BF94424FEA46064FEA580811D3A41AF2
:1071400065EB030546F00106002E0EDA54EA05034E
:1071500000D00136CCF1200C3E6087F804C0BDE8B9
:10716000F087002EF0D10CF1FF3C01317145D1D3F5
:10717000ECE74FF0000C6646ECE738B5054611F039
:1071800026FD044605F11000FFF70CF9204638BD36
:10719000F8B504460D46164600F11007324629465A
:1071A000204611F0DBFC00B1F8BD01213846FFF7A5
:1071B0007DF8F3E773B50A460C462321054613F024
:1071C00021FC684611F098FB6946002241F2055304
:1071D00011F8010B03EB43130344B2FBF4F004FB7F
:1071E000102001322E5C082A86EA03062E54EFD1C5
:1071F000002341F205529C4201D102B070BDE95C0E
:1072000002EB42120A44B3FBF4F104FB11310133E7
:10721000685C50406854EEE710B50446EFF3058310
:1072200013F0FF0F01D0FEF7EBFF01210548FFF738
:107230003DF8204613F0A4FA04460248FFF7B2F8DE
:10724000204610BD940F002010B50446EFF30583CF
:1072500013F0FF0F01D0FEF7D3FF01210548FFF720
:1072600025F8204613F094FABDE810400148FFF7D6
:1072700099B800BF940F0020014B186813F0D4B9DF
:107280007802002070470000014608B5024813F05C
:10729000DBFC10F045FEFEE784C3030030B5034677
:1072A000EFF3108472B60A4A0A4D10680144A942ED
:1072B00006D90C221A604FF0FF3084F3108830BDDD
:1072C000054DA942F5D31160421CF6D1F1E700BF8C
:1072D0000002002000000420BC5B0020014B188845
:1072E00000B27047980E0020032303604FF0FF3078
:1072F00070471946104611F0F1BB1946104611F0BF
:10730000D3BB132303604FF0FF3070471323036098
:107310004FF0FF307047132303604FF0FF3070478A
:1073200002294FF0000303608CBF0020012070474A
:10733000024B1B781944D161704700BF54160020DE
:1073400010B50C680B7A6489002B0CBF08238823C6
:10735000E40748BF43F0400313700D230370032379
:1073600043700B6853F8242FC0F802209B88C38019
:107370004B681A6882609B8883810E2010BD0000D4
:1073800047F611239842024603D803485043800D24
:1073900070470FF0BDBF00BFDF18020038B5084BC3
:1073A0001B785C18B0F8F430C0E90644054633B1E8
:1073B00042F210705843FFF7E3FF04442C6238BDDB
:1073C00054160020F8B54B7805460C4616460BB10E
:1073D000FEF716FFD0F88C301B6823B11B8A93424E
:1073E00003D8002BF4D1002EF2D1002384F82330EF
:1073F000A384B5F882003A4A2684431CA5F882305B
:10740000B5F8801002F10A03527A08F069F884F89E
:107410002200D5F88C301B680BB1B3F910309B1BE0
:1074200099B2AB8903F001079B075DBF94F8233045
:1074300043F0080384F82330012358BF032316BB0D
:10744000AA89900607D494F82320063342F001025B
:1074500084F82320DBB2AA8902F00602042A07D1AD
:1074600094F82320063342F0020284F82320DBB292
:10747000AA89520607D594F82320013342F040022E
:1074800084F82320DBB294F8230008B10133DBB287
:10749000C3F1FF028A42A8BF0A4684F82420CFB96C
:1074A00095B28D4216D220B90133013ADBB284F88D
:1074B000242094F82420033AD91CD2B284F8242042
:1074C00042FA81F240F01000FF2A84F82300CBB288
:1074D0007FF47EAF94F82420134484F82530F8BD5F
:1074E000801200202DE9F04791F884500C468989DC
:1074F0001746CA06C5F3400501D5FEF781FE63892C
:1075000003F03003202BF8D1282202FB054201F0C2
:10751000010192F8B53092F8B4609B1B013B43EA3D
:107520008113037092F8B3301BB900F101080726EC
:1075300017E0437092F8B330DB0700F10208F6D58C
:10754000638913F0010F234608BF072653F8242F41
:10755000C0F802209B88A8F8043018BF472600F125
:107560000808282303FB054393F8B33099070ED589
:10757000234608F1060853F8362F48F8062C9B8856
:1075800028F8023C63899A0748BF46F08006282302
:1075900003FB054393F8B3301B070AD5B4F8F63064
:1075A00088F80030B4F8F6301B0A88F8013008F18A
:1075B0000208282101FB054292F8B330D8064BD5CA
:1075C00094F88430C3F3400383F00103DBB201FB82
:1075D000034393F89100C8B1D4F88810D3F8AC30C5
:1075E00000295DD0C868181A0FF09AFED4F88830C8
:1075F00094F80111D3F810A081460C2005F05AFA36
:10760000A9EB0A09A9F19609A9EB000094F88430C6
:107610002949C3F3400383F001032822DBB202FBB4
:107620000343884293F8B23094F801213ED963F0C5
:107630007F03B0F5161F88F800303BD24FF49673E5
:10764000B0FBF3F088F80100531E000A40EA431033
:1076500088F8020008F10308282303FB054393F888
:10766000B3305B0606D594F9099004F099FE4844BE
:1076700008F8010B282101FB054191F8B4203AB12B
:10768000D4F88C00B1F8B010006843460FF097FFB3
:10769000282101FB05443E7094F8B500BDE8F08751
:1076A000D2F8AC00181A0FF03BFEAFE788F80030B4
:1076B0001E23C5E70020C5E7C4BF030070B58D8950
:1076C000ED0603460C4616461DD54A6C22B1127CC7
:1076D0001F2A01D9FEF794FD618911F0010F0CBF3B
:1076E0000421442131702146951D51F8240F186062
:1076F00089889980EDB222B1606C063300210FF0C9
:107700005EFF284670BDBDE87040FFF7EBBEEFF3AB
:10771000108272B6038823F03003038082F310884E
:107720007047000010B5104B044693F9000008F0B4
:107730000DFA638903F03003102B0ED104F15000D1
:1077400005F0CCF8002005F0BDF804F10A00FFF7C1
:10775000DEFF064B00221A6010BD202B02D104F17F
:10776000E000EDE7FEF74CFD281300209C10002000
:10777000EFF3108372B602881143018083F31088FF
:107780007047EFF3108272B6038823EA010101808B
:1077900082F310887047000010B5044604F0F8FA30
:1077A000094A10B95CB1FEF72BFD538913F0800331
:1077B00007D05378A3420CBF1046002010BD1046DE
:1077C000FCE71846FAE700BF980F002038B5294BB0
:1077D000C4681C600546EFF3108272B6638913F02B
:1077E000300F01D0FEF70CFD23F0300343F01003FF
:1077F000638182F31088638903F4C063002B33D163
:1078000094F9090008F0A2F91B4A1C49A07908F074
:10781000B1F90028E6D11A4BA97818786B6818449A
:1078200008F060FB0146F8B9A389DA0613D59B0777
:1078300011D008F063F902221248214608F068FBD3
:10784000054688B9E37863B107F0FAFE012005F038
:1078500039F8284638BD0C48214608F04FF9002277
:10786000EAE707F0EEFEF1E72046FFF75BFF0125B0
:10787000EFE700BF9C10002055555500D6BE898EFD
:1078800054160020458402002577020038B5324B9B
:10789000C4681C600546EFF3108272B6638913F06A
:1078A000300F01D0FEF7ACFC23F0300343F020038F
:1078B000638182F3108894F9090008F047F994F87D
:1078C000843026492822C3F3400302FB0343244AA1
:1078D00093F8B20008F04EF90028E3D1214BA978C3
:1078E00018786B68184408F0FDFA50BBA28912F0B2
:1078F000010112D0014608F001F91B48022221467D
:1079000008F006FB0546E0B9E378BBB107F098FE46
:10791000012004F0D7FF284638BD920707D594F818
:1079200084305B0703D508F0E9F81048E6E7104813
:10793000214608F0E3F80C480022E0E707F081FE5A
:10794000E6E794F8843043F0100384F8843020464E
:10795000FFF7E8FE0125DEE79C100020D6BE898EE9
:107960005555550054160020E5740200F77A0200C0
:1079700025770200F8B50688074F05462B8807EAE9
:10798000030405F0A9F9C0F30B0044EA00039E428A
:107990002B80F3D0F8BD00BF00F0FFFF438913F444
:1079A000C06F70B5044626D090F8842012F001050F
:1079B00021D113F4007613D0036C2BB1C06B0FF000
:1079C0006FFD236CC4E90F354FF4007104F10A0018
:1079D000FFF7D7FE04F1F600BDE87040FFF7CABF1D
:1079E0005B05F7D5406C0FF05BFDA36C4FF4806135
:1079F000C4E91136EAE770BDF8B503780446002BF8
:107A000041D005F07FFA04F1640007F0E1FB94F83F
:107A100084306FF3000384F8843004F1900007F0A1
:107A2000D7FB04F1B80007F0D3FBEFF3108772B671
:107A3000154E33689C420BD1658915F4005507D16A
:107A400008F0C8F8284604F03DFF356006F07EFDDA
:107A500087F3108804F1500004F0E0FF04F1E00027
:107A600004F0DCFFE06C18B110F0BAF90023E36415
:107A700004F10A00FFF74BFE002323702046BDE807
:107A8000F840FFF78BBFF8BD9C10002010B50446EE
:107A900004F07EF930B194F8FF30617800223C2088
:107AA00004F036F9A3891B0707D52346E26C3C2175
:107AB000002001F0ABFA0023E3642046BDE810404B
:107AC000FFF79ABF10B5044690F8FF3041780022C6
:107AD000432004F01DF9A3891B0707D52346E26C58
:107AE0003C21002001F092FA0023E3642046BDE827
:107AF0001040FFF781BF8B892DE9F041174613F045
:107B00001002044601D0FEF77BFB9D07FBD591F8E0
:107B100084305807F7D54B8903F03003202BF2D17E
:107B20002546012305F8023B62708A89920651D4EA
:107B30004A89637012F0010F0B464FF00702227062
:107B400053F8242FC4F802209B88AB800CBF072673
:107B5000472604F108058B89580713D563782278E6
:107B600043F00203637006320B46227053F8362F3F
:107B70002A609B88AB804B899A0705F1060548BFB0
:107B800046F08006237802332370637843F00803BD
:107B90006370B1F8F6302B70B1F8F6301B0A6B70D9
:107BA0008B895B060CD5237801332370637843F00F
:107BB0004003637091F9098004F0F2FB4044A8701F
:107BC00020783E702378013063F07F032370C0B2C9
:107BD000BDE8F0810726BEE7F8B5046806461746FB
:107BE0001D4659B114B120460FF05AFC0021284619
:107BF0000FF03EFC044620B93460F8BD0CB9FEF726
:107C0000FFFA238A40F272622B44934204DD20463D
:107C10000FF046FC0024EFE72A46394620460FF0D5
:107C200049FC0028E8D0F2E72DE9F34180461046F0
:107C30000D461E46FFF7B0FD0446002800F089807F
:107C40008389D8060ED55A0706D4042E08D8DFE853
:107C500006F0303F2B0C180004F09AF80028F4D0FE
:107C6000122032E09B07F0D5FAE7A389DF0601D5A1
:107C70001F2DF5D8402104F10A00FFF782FD0121F4
:107C800036E0A389DE06EBD42378002BE8D0E36B43
:107C9000002BE5D01B8A002BE2D0002DE0D104F1AF
:107CA000F600FFF767FE49E0402104F10A00FFF704
:107CB00068FDE36B002BD3D0A389D806D0D4002D68
:107CC000CED02378002B30D00C2002B0BDE8F0815C
:107CD000A389DA06C4D42378002BF5D1002DBFD0B8
:107CE000402104F10A00FFF743FD731E5942594138
:107CF00026780F46ABB21EB3226C62B14FF400710E
:107D000004F10A000193FFF73CFD206C0FF0C8FB63
:107D10000022019B22644246394604F14000FFF7ED
:107D20005BFF236C23B90720CFE7032EDDD1A6E745
:107D30004FF4007104F10A00FFF71AFD0020C4E7B8
:107D4000424604F13C00FFF747FFE36B002BA6D14E
:107D5000E9E74220B9E72DE9F341804610460F4696
:107D60001D46FFF719FD0446002850D0828912F005
:107D7000120F02F0100311D0032D0FD8DFE805F029
:107D8000070907020BB11F2F08D801210BE0426C35
:107D900022B11BB92378002B3BD10FB912201EE072
:107DA0006B1E5942594125780E46BBB215B3A26CE1
:107DB00062B14FF4806104F10A000193FFF7E1FC26
:107DC000A06C0FF06DFB0022019BA264424631467D
:107DD00004F14800FFF700FFA36C1BB9072002B0B5
:107DE000BDE8F0814FF4806104F10A00FFF7C0FCA8
:107DF0000020F4E7424604F14400FFF7EDFE636C17
:107E0000002BEBD004F1F600FFF7B4FDF0E74220C1
:107E1000E5E70C20E3E700002DE9F04190F88460ED
:107E2000F107044601D4FEF7EBF9C6F3400686F0ED
:107E30000105282303FB050292F89120002AF2D1C4
:107E400003FB060393F89120002A53D093F8B32044
:107E5000D2064FD593F8B420B3F8B0301A44D0F816
:107E60008C301B6892B2002B42D0198A8A42DADC2D
:107E70000BB1B3F9103011B29942D4D04FF02808A9
:107E800008FB05F505F190072744254439462046AF
:107E9000FFF798FA08FB064694F8011195F8B5002B
:107EA00004F008FE144BD6F898601B780A36F31AD3
:107EB000C5F89430002385F89230C5F8AC601E30C8
:107EC000FFF75EFA3044C5F898000C493A46384648
:107ED00007F014F9B4F8F43063B1D5F89830226A99
:107EE0009B1A002B06DD3846BDE8F04107F070B95B
:107EF0001946BBE7BDE8F08154160020317302003B
:107F000038B54FF482720446002112F07BFD4FF425
:107F1000006304F15002E38123820723A37010461B
:107F20001249FFF703F8002504F1E002104610495A
:107F30002466C4F8E050FEF7F9FF94F884300D4A47
:107F4000C4F8F04065F3000384F88430012384F81A
:107F5000903084F8B830A389C4F89C4043F01203F1
:107F6000C4E93142C4F8A020A38138BD3D84020099
:107F7000A98202008D78020038B5154B43678389CA
:107F800000670121044680F86410D8061AD5E0790C
:107F900004F090FDA3895A070FD500F5FB700D4B37
:107FA000E5691B78EB1AA366002384F866301E305F
:107FB000FFF7E6F92844E06638BDDB07EFD500F5AA
:107FC0005570ECE794F80011072004F073FDE6E724
:107FD000CD77020054160020F8B590F88450EE07D3
:107FE000044601D5FEF70CF990F89130002BF9D139
:107FF00090F8B920002AF5D18378591E0629F1D8C6
:108000004149C95CD0E91A639B1B404E3778DB1BA2
:1080100087690A3701FB0373013901EBC10125F0C0
:108020001F050B4400F1900745F00505C0F8AC3082
:10803000394680F88450FFF7C5F9A38994F80111F7
:1080400013F0010F3ED094F8B50004F033FD94F81E
:1080500001110546302004F02DFD94F8011105446E
:108060000E2004F027FD05F596752844D4F8AC5091
:108070003378EB1AC4F89430002384F892301E3021
:10808000FFF77EF928442249C4F898003A4638465A
:1080900007F034F82046FFF7BFFEB4F8F43093B38E
:1080A00094F884302822C3F3400302FB0343226A7E
:1080B000D3F898309B1A002B25DD2046BDE8F84008
:1080C000FFF7E4BC9D0719D513F0200F14BF04205F
:1080D0000A205A0748BF06305B0644BF0130C0B2D1
:1080E00004F0E8FC94F8011105460C2004F0E2FCD1
:1080F00094F80111054494F8B500B2E794F8B5007E
:1081000004F0D8FCB2E7F8BD9EC30300541600206B
:108110003173020010B50446643007F059F804F1D9
:10812000900007F055F804F1B80007F051F804F199
:10813000E00004F073FC94F884306FF3000384F8DB
:108140008430A3785A070BD413F0020F14BF2623F0
:108150002523A37104F15000BDE8104004F0BEBB1C
:108160002723F6E710B5037804460BB9FEF748F865
:1081700090F86530B3B9838913F0080F40F24711C6
:1081800000F1640018BF002106F0D6FF20B12046A0
:10819000BDE81040FFF7BEBF094BA26E1B78134429
:1081A000C4E90633A389DA0608D494F88430DB07DF
:1081B00004D42046BDE81040FFF70EBF10BD00BF3D
:1081C00054160020F8B5037804460BB9FEF718F8EA
:1081D00090F88450E807F9D504F094FE94F88430C0
:1081E000C5F34005D90685F0010604D52046BDE853
:1081F000F840FFF78FBF1A0705D5282000FB06407F
:10820000903006F0E5FF282707FB0540903006F088
:10821000DFFF04F1E00004F001FC63891B0704D5D3
:108220002046BDE8F840FFF7E7BB07FB064696F897
:10823000913083B194F88430C3F3400282F001029C
:1082400023F0060343EA420384F884302046BDE865
:10825000F840FFF7E1BD06F079F9B4F8F4304BB11E
:10826000D4E907329B1A002B04DB2046BDE8F84016
:10827000FFF70CBC94F8FE3043B194F8FF209A420B
:1082800004D32046BDE8F840FFF71CBC94F88430C6
:108290006FF30003204684F88430FFF77FFB20460D
:1082A000BDE8F840FFF75EBF0069FFF78BBF000035
:1082B0002DE9F843037804460BB9FDF7A1FF04F05C
:1082C00021FE2046FFF76AFBA389DD0607D56389F7
:1082D000180704D52046BDE8F843FFF78DBB04F12D
:1082E0006407384604F1500606F072FF304604F089
:1082F00095FBA07841074AD410F0020F14BF262244
:108300002522A379DFF83081934244D194F8FE30DE
:1083100023B194F8FF30013384F8FF3006F016F9EA
:10832000A378DA0735D413F0020F14BF26232723CE
:10833000A3716069FFF724F8A56998F800800544E7
:10834000C4E9065581460EF0DFFF2D1AB5EB08058E
:1083500007D5A26913464B44991AE942FBD4C4E9F4
:1083600006330025B4F8F430002B3DD0D4E90732B1
:108370009B1A002B38DBA389D80603D494F88430E9
:10838000D90756D42046BDE8F843FFF77FBB272224
:10839000B7E72523CCE75A1CD2B2A2F1250501216B
:1083A000A940084206BF0233A371A2710EF0ACFFD0
:1083B00098F800301844A389E061DB0612D494F8E1
:1083C0008430DD070ED5C3F34003282202FB0343AC
:1083D000D3F8AC30C01A002804DD2046BDE8F843CD
:1083E000FFF798BE0125BDE794F8FE307BB194F805
:1083F000FF209A420BD3A389DA0603D494F8843081
:10840000DB0716D42046BDE8F843FFF75BBB2046E8
:10841000FFF7B2FD25B92046BDE8F843FFF7A2BE3D
:10842000384606F0B7FE20B13046BDE8F84304F008
:1084300055BABDE8F88300BF541600200069FFF765
:1084400037BF0000F8B50C460546608900F03003E0
:10845000102B114601D0FDF7D3FEA389DA0639D5DA
:10846000E26B02B1127C5F0726D510F0020F14BF39
:10847000A12321230C260022C00748BF43F040035C
:10848000B71CE7710B70234653F8241F29609B88A3
:10849000AB80A189490705F1060306D5214651F8AD
:1084A000360FC5F80600898899801AB1E06B002163
:1084B0000FF085F83046F8BDDE0709D413F0020F3F
:1084C00014BF062302231F2AC5D8961DF6B2D3E790
:1084D0002023F8E707230B70A28902F0010392071B
:1084E00048BF43F002039B0143F006032B7018239F
:1084F0006B70B4F8F630AB70B4F8F6301B0AEB7062
:1085000094F884202823C2F3400203FB024292F82D
:10851000910028B1D2F8AC00E369C01A0EF000FF58
:1085200094F8843094F801112822C3F3400302FB2D
:10853000034393F8B2200D4B984211D962F07F02A9
:10854000B0F5161F2A710ED24FF49673B0FBF3F3F9
:108550006B71481E1B0A43EA4013AB710726A9E75B
:108560002A711E23F2E70023F2E700BFC4BF030015
:10857000F8B50D4616461F46FFF70EF904460028CB
:1085800000F0B480012D40F0AC8043895A0601D53B
:108590000C20F8BD03F0FCFB50B1A38903F01203DB
:1085A000022B05D1636C002BF2D01B8A002BEFD07D
:1085B000731C05D1A38913F0080F14BF8026002671
:1085C000002384F8FF302378A4F8F46084F8FE7068
:1085D0000BB10020DDE70B2104F10A0004F1F805DE
:1085E000FFF7CFF82079294604F092F808B9122055
:1085F000CFE7A389DF0766D42379DE076DD56389CA
:1086000043F0010363812B686362AB882385A389F0
:108610005D070DD5234653F8302FC4F836209B88CC
:1086200063876379D80742BF638943F0020363819C
:10863000012323700023A4F8823006F0C7FEA3892B
:1086400019075DBF228A40F27123534340F6A663A7
:108650006361A37880EA1040DA07A4F880003ED472
:1086600013F0020F14BF26232723A37104F05EFC2E
:10867000054604F031FB07460EF046FE42F2107349
:108680000646B7FBF3F003FB1070FEF779FE3044AB
:10869000E0612046FFF770FCA26E531B002B04DA4A
:1086A000E36EA5669A1A2A44E2661149002204F193
:1086B000640006F023FDA08910F0100589D1204642
:1086C000FFF78AFC85E7E06C002895D10FF076FB78
:1086D000E064002890D107205BE7064D93E725234F
:1086E000C3E7002D83D1FFF787F972E7422050E7F7
:1086F0009D73020029130020FFF70CBD38B50E4C06
:108700002568C5B10D4B93F9000007F01FFA05F17C
:10871000500004F0E3F8AB89DB0603D405F1E00078
:1087200004F0DCF8002004F0CDF820680A30FEF7F1
:10873000EEFF0023236038BD9C100020281300208A
:108740000F29F0B5024601D012203CE02D4B1978DC
:10875000002953D1017906884588847B0429F3D800
:10876000DFE801F04A3248033E00102108070DD42B
:10877000AE42E9D8A6F1200080B243F6E077B842D5
:10878000E2D8A5F1200080B2B842DDD85779032F96
:10879000DAD892F806C0BCF1010FD5D81A48012FDB
:1087A000007858722CD8527B12F0F800CCD1002AF5
:1087B000CAD0032CC8D81F7183F805C0DC709A702A
:1087C000DE811D829981F0BD1146002451F8070F0A
:1087D000186388880D492546888026461D21C5E7EF
:1087E0001146002451F8070F1863888807498880CC
:1087F0001521BBE71221B9E71321B7E70C20E2E707
:108800001120E0E7980F002028130020C80F002057
:10881000034B93F90030037001230B700020704765
:1088200028130020012906D1002301784FF0FF32E0
:108830001846FFF79DBE12207047202907D1017806
:108840001F2904D8032300220130FFF784BA122025
:108850007047202907D101781F2904D8032300225B
:108860000130FFF7E1B912207047000019292DE906
:10887000F74F0546904699460BD04FF0120B002457
:108880000123584688F8004089F8003003B0BDE85D
:10889000F08F07783846FEF77FFF044658B9784EC8
:1088A00073891B0602D54FF0070BE9E73046FFF747
:1088B00027FB34467770237813B14FF00C0BDEE7BB
:1088C000B5F801201FFA82FA3AF07F0BD5D11AF0E1
:1088D00010032DD0E16B11B1098A1F29CDD8616C2D
:1088E00011B1098A1F29C8D8AAF110010D29C4D8CD
:1088F00001A050F821F000BF3F8902007B880200F0
:108900003F8902003F8902007B8802003F89020004
:108910007B8802007B8802007B8802007B88020043
:108920007B8802007B8802007B8802003F8902006E
:108930001AF0080FA1D10AF0030103299DD01AF003
:10894000080067D0E16B11B1098A002995D1666CE6
:1089500016B1368A002E90D13746697A11F0F800A8
:108960008BD1002989D0A97A032986D801296ED80C
:108970001AF0040F6ED0E97A01293FF67EAF297D07
:1089800001297FF47AAF1BB9A97D01297FF475AF66
:10899000E97D0F293FF671AF297E01293FF66DAFC2
:1089A00095F913007F2858D1364909786172E97A20
:1089B0006171294651F80C0F20638988A186A97A34
:1089C0002171A97CE170697AA170E7812682297DF5
:1089D00084F80011A97D84F80111B4F8F610E87D3F
:1089E000A281C1F30B0141EA0031A4F8F610002B7B
:1089F0003BD00023C4F88C302B7E04F10A00042104
:108A0000002B3AD0FEF7B4FE8021FEF7B1FE94F9B8
:108A1000094035E72F796979EE793F0247EA014746
:108A2000E9780F43297A360246EA0146A9790E43CE
:108A3000B7423FF622AF1F2F7FF61FAF1F2E7FF6E4
:108A40001CAFB7F5804F02D8B6F5804F85D94FF0EF
:108A5000110B14E7A97C03298FE7CDE9003207F059
:108A600053F8DDE900326072A1E71AF0020F14BF7B
:108A700004F1440304F13C03BCE7FEF782FEC3E7C4
:108A8000980F002028130020032910B40DD9C478B2
:108A9000FB2C0AD80B1F9C4207D8437810F8042BF4
:108AA00021465DF8044BFFF7BFB812205DF8044B78
:108AB0007047032910B40DD9C478FB2C0AD80B1FBA
:108AC0009C4207D8437810F8042B21465DF8044BEC
:108AD000FFF741B912205DF8044B704701292DE9D9
:108AE000F843044602D81220BDE8F88343780222F6
:108AF00002EB83029142F6D1012BF4D8CBB10646AA
:108B00000746002500F102096278AA421CDC002514
:108B10006378AB4216DD04EB85027379B078B2F866
:108B200003202178FFF724FD04360028DCD101352D
:108B3000EEE70478002CD6D1234622462146204673
:108B4000FFF716FD0020CFE705F10108B87843468E
:108B50009A4211DCFEF720FEA0B123784BB1838945
:108B60001B0706D504EB8505B5F80330013B7F2BC9
:108B7000B9D804374546C7E719F823108142B2D067
:108B80000133E5E74220AFE710B504460846FEF79B
:108B900003FE60B1037813B18389DB0709D423682E
:108BA000C0F8F830A388A0F8FC30002010BD4220A7
:108BB000FCE70C20FAE7072903D110F8011BFFF7A7
:108BC000E3BF12207047012910B513D10078FEF7DA
:108BD000E3FD044680B1037883B9C06B08B10EF0A1
:108BE0005FFC606C08B10EF05BFC2046FFF788F973
:108BF000002010BD1220FCE74220FAE70C20F8E725
:108C00002DE9F047524B86B01C6807460D46984642
:108C100041B92046FEF786FD4FF0FF36002003F0F5
:108C200051FE58E00C62638903F03003202B08D119
:108C30000B8B43F480530B833AB90023C8F8003000
:108C4000EAE7102BF8D0FDF7DBFA032F01D0052F50
:108C5000F3D1D5F80090062209F1080104F12400AF
:108C600011F09EFD28B14FF0FF360023C8F8003008
:108C7000D4E74E46E37816F802AB032F0CBF03F09F
:108C8000010303F00203CAF3801A43BB2B8B032FAB
:108C900043F040032B832AD12E48214606F02EFFB5
:108CA00063895A0704D560785246314602F0FDFFC9
:108CB00005F11803C4F8883027480022214607F040
:108CC00027F90023C4F8883006460028CDD12B8B25
:108CD00043F010032B83304606B0BDE8F087002236
:108CE0005146304606F066FC0028CFD1BBE7052F81
:108CF000B9D15146304601F087F80028B3D1A58993
:108D00006B0707D50622314604F1360011F048FD05
:108D10000028A8D115F010020192A4D1CDE9034694
:108D200099F800300B4803F0400321468DF81430C9
:108D300006F0E4FE019A094803A907F0E9F806469F
:108D4000002892D1082104F10A00FEF711FDC2E7C4
:108D50009C10002025770200BD76020041730200BE
:108D60002DE9F041946823780E461546002B45D036
:108D70001288110611D42B8813F4805F04F10A00C5
:108D80003ED1638903F03003102B3CD1FEF7BFFCCA
:108D90002046BDE8F041FFF78BBA05282AD1A1890A
:108DA00011F0100802D163891B07E4D55706E2D5FC
:108DB00037784807C7F380170AD56379BB42DAD101
:108DC0000622B11C04F1300011F0EAFC0028D2D1D7
:108DD000B8FA88F35B092A463946304601F0F6FEB8
:108DE0000028C8D06389190708D42046BDE8F0419F
:108DF000FEF702BE0328BED1D206BCD5BDE8F08185
:108E0000A389DB0601D5FDF7FBF9638903F0300385
:108E1000202BF8D1FEF77BFC2046BDE8F041FFF7A0
:108E2000D1B9000008B50C4B03281A6808D1938902
:108E300098070FD41046FEF775FC4FF0FF3008E09E
:108E40000528F7D19389D907F4D583F01000C0F332
:108E5000001008BD0120FCE79C100020044B1A788C
:108E600022B1D878B0FA80F04009704701207047ED
:108E7000980F002070B58C68E26C05460AB9FDF7C2
:108E8000BFF923460021002600F0C0F82846E6641A
:108E900002F0EFFE02F07CFF40B194F8FF302A8927
:108EA00061783046BDE8704002F032BF70BD10B549
:108EB0000379012B02D80024204610BD4389DB072B
:108EC000F9D500F124040121204603F015FC002807
:108ED000F2D1F0E72A30704710B5074C226892F8BB
:108EE000843043F0080382F8843006F073FE206873
:108EF000BDE81040FEF716BC9C10002010B5074CD2
:108F00002046FEF779FDE06B0EF0CAFA606C0EF0B9
:108F1000C7FA2046BDE81040FEF7F2BF980F0020C8
:108F200010B5044B1C781CB9FFF7E8FF204610BDB4
:108F30000C20FCE7980F0020024B1878003818BF6F
:108F400001207047980F00200148FEF7D9BF00BFED
:108F5000980F0020044B18684369013301D011F0C9
:108F60000FB883685B681847B8C9030038B5064D69
:108F70002C6824B920460EF021FF10B12860002093
:108F800038BD4FF0FF30FBE7A8100020884210B535
:108F90001BD8052819D9B1F5486F16D8B2F5FA7F54
:108FA00013D2A3F10A0080B240F67644A0420CD856
:108FB00042F2107402FB011240F6C41063435043A6
:108FC000834294BF1220002010BD1220FCE770B530
:108FD000066883894289B1B204460846FFF7D6FF86
:108FE000054688B9E289238A9A420DD8964238BF4D
:108FF000E1819E4238BF218204F10802211D3046E2
:1090000000F01CFF284670BD1225FBE72DE9F0415A
:1090100005460E46984614460AB9FDF7F1F80A20AF
:1090200003F06AF90746002859D03E231F22237017
:1090300062700021A01C11F0E5FC0A23A370E67009
:10904000002D47D02B89A380EB7A013BA37195F8C3
:109050009430E3712B4653F8952FA2609B88A3812F
:10906000EB7A012B05D0022BD7D14046FFF71FFF2B
:1090700008E095F892305BB995F89330012B07D949
:1090800005F0F4FD20B10368C4F80E3083886382D4
:10909000E379012B0ED9EB7A012B05D0022BBCD141
:1090A0004046FFF717FF01E005F0DCFD0368636150
:1090B00083882383B5F868306383B5F89030A38341
:1090C000B5F86A30E383EB7A022B04BF95F83930A8
:1090D00084F820302046BDE8F04102F061BE012056
:1090E00003F00AF950B33E2313222370627039460D
:1090F000A01C11F087FC0123A370E670002DE9D0BD
:109100002B89A380EB7A013BA37195F89430E3712E
:109110002B4653F8952FA2609B88A381B5F8683041
:10912000E381B5F890302382B5F86A306382EB7A38
:10913000022BCFD195F839302375CBE72046BDE817
:10914000F0410EF04DBE000010B5064C22680AB981
:10915000FDF756F8002318460221FFF757FF0023BA
:10916000236010BDA81000202DE9F843044620B369
:10917000FFF7F0FE344B1B68C01AB0F5FA6F1CD233
:10918000B4F84C30002B5CD000200EF017FE002805
:1091900057D013220270012282702289A0F8032086
:1091A000B4F84C20A0F80520052242700023A4F852
:1091B0004C30BDE8F84302F0F3BD244B4FF00008FB
:1091C0001C684046C1464546012613273CB9A8B352
:1091D00002F0E6FDFFF7BEFE1B4B186031E0A37AFC
:1091E0004BB3B4F84C3013B9D4F8B4301BB338B91E
:1091F0000EF0E4FD10B30770467000F102098570AF
:1092000099F80030218909EB83020133A2F801109B
:10921000B4F84C10A2F803104278DBB204323F2BB2
:10922000427089F80030A4F84C5004D102F0B8FD27
:109230004FF001080020D4F8BC40C7E7B8F1000F98
:10924000C8D1BDE8F88300BFA0100020A410002002
:1092500038B5054605200C4603F076F888B10020A5
:109260000EF0ACFD68B105220270042242700022AB
:1092700082702A894471BDE83840A0F8032002F0CA
:109280008FBD38BD0378012B0FD813B98378032B1A
:109290000BD84378032B08D8437A33F0010004D16C
:1092A00013F0010F08BF1220704712207047000012
:1092B00030B518298BB0044603D8122528460BB0C8
:1092C00030BD4C4B1B680BB10C25F7E705F0C4FC17
:1092D0000028F9D1A51D6179284600F095FD0028E8
:1092E00040F08180237B8DF8013023798DF80030A8
:1092F000002B69D163798DF80230D4F80630CDF8AF
:1093000003306389ADF8073001238DF809306278A6
:10931000237843EA0223ADF80A30E278A37868465E
:1093200043EA0223ADF80C30FFF7ACFF05460028F6
:10933000C4D1B4F80F30B4F80D209A42BDD80593CB
:10934000A27C637C43EA0223ADF81E30227DE37CDD
:1093500043EA0223ADF82030A27D637D43EA022375
:10936000ADF82230E37D227E05A843EA0223ADF862
:109370002430FFF72CFE054600289FD1FFF7F6FDAD
:1093800098BB00F08DFD044688B305AA694600F03D
:109390008DFF204600F0E0FF29466A46204605F092
:1093A00025FC0546002889D01349D4F8BC200B6859
:1093B000A34210D10A600023C4F8BC300F4B5A6896
:1093C0001460BC345C6079E78DF80200CDF80300CE
:1093D000ADF8070098E71946D3F8BC30A342FAD19C
:1093E000C1F8BC20E7E70B2568E7072566E70925F4
:1093F00064E700BFAC100020A4100020F010002093
:109400002DE9F041054686B0407A0C4610F038FF51
:1094100000010A30844203D2122006B0BDE8F08178
:109420005C4F3B680BB10C20F7E705F015FC0028FA
:10943000F9D105F10308A978404600F0E5FC06469D
:10944000002840F0A1806B788DF805302B788DF8DE
:109450000430002B4BD1AB788DF80630D5F80330B3
:10946000CDF80730B5F80730ADF80B306B7A8DF8D2
:109470000D3001A8FFF706FF0028CED105F10A0440
:10948000454D43F6FC789DF80D3003F001030028AC
:1094900034D02BB934460FCC3F4D0FC523682B6019
:1094A000FFF764FD002871D100F0FAFC04460028A3
:1094B0006ED0394A01A900F0F9FE204600F04CFFB9
:1094C00001AA0121204605F091FB0028A5D03349CF
:1094D000D4F8BC200B68A3424ED10A600023C4F824
:1094E000BC302F4B5A681460BC345C6095E78DF833
:1094F0000600CDF80700ADF80B00B7E7002BC9D088
:10950000E388A2889A4287D87B60627A237A43EA0A
:109510000223FB81E27AA37A43EA02233B82627B45
:10952000237B43EA02237B82A37BE27B284643EA38
:109530000223BB82FFF74BFD00287FF46EAF21882A
:109540001FFA81FCACF104039BB243453FF664AFC4
:10955000628890B2031F9BB243453FF65DAF8445DE
:10956000FFF45AAFADF80E10ADF81020002E08BF72
:109570002E461034012086E71946D3F8BC30A342AA
:10958000FAD1C1F8BC20A9E70B2046E7072044E741
:10959000092042E7AC100020B0100020A4100020E9
:1095A000F0100020022938B50C4626D1008800F0C2
:1095B0006BFC054618B3C378DA0601D50C2038BD1C
:1095C0001B070CD4B0F8483013F0080407D1C37A55
:1095D000022B0AD000220321284601F021FFEB785C
:1095E00043F01003EB700020E9E703F023FA234671
:1095F00000F008021343EDD1E0E71220DFE7204638
:10960000DDE7F8B507880546B8B200F03DFC044632
:10961000002855D0B0F8483003F04103002B51D159
:1096200090F83F6016F0020604D1C37A022B02D1F3
:109630001A2543E0062623785A060FD5E27A012A36
:1096400003D0022A40D0FCF7DBFD6FF3861394F8B9
:10965000381023702322204602F0D4F96378DB0609
:1096600002D5E37A022B31D06B88A4F80A3198B284
:10967000AB88A4F80C3199B2EB88A4F80E31B5F898
:1096800008C0A4F810C19AB21FFA8CF3B5F80AC04A
:10969000A4F812C1AD89A4F814511FFA8CFE1FFA68
:1096A00085FCE64514D8FFF771FC054630B9024643
:1096B000A4F808713146204601F0B2FE2846F8BDF4
:1096C0000225FBE70C25F9E72325F7E72A25F5E72F
:1096D0001225F3E70E292DE9F047054690461F466F
:1096E0006FD1B0F8009003F0A5F9002300F002025A
:1096F00013431FFA89F460D0204600F0C5FB0446EE
:1097000000285CD003892A88A0F808319A4201D049
:10971000FCF776FD6888A4F80A01A988A4F80C1162
:10972000EA88A4F80E212B89A4F81031B5F80AC0F4
:10973000A4F812C1AD89A4F814519BB292B289B2B7
:1097400080B21FFA8CF6FFF721FC1FFA85FA054656
:1097500050BB564588BF122523785B061DD52DBB0F
:1097600014211B200DF084FE064690B1D0F800A015
:1097700004F591725146204601F05DFD124B8AF8C6
:1097800000001B5C0133DBB203223146204601F0AE
:10979000C9F923786FF3861323700223A8F8009089
:1097A0003B702846BDE8F0871225D5E794F83810BD
:1097B0003B22204602F026F9EBE70125EDE70225E2
:1097C000EBE71225EDE700BFA6C3030003292DE94F
:1097D000F843804616461D4629D1078803F02AF92A
:1097E0004FF0000900F002024B461343BCB218D000
:1097F000204600F049FB0446A8B1017811F0400171
:1098000013D098F8022090F8381002F0FBF8237873
:1098100069F3861323704846022337802B70BDE816
:10982000F8830120F8E70220F6E70846F4E7122063
:10983000F5E70000F8B50546EFF3108772B60A4B5E
:109840001E687EB1B47A6CB901201C6004F036FC4D
:109850003046022100F002FE044B2B60204687F3C5
:109860001088F8BD0C20FAE7AC10002049910200E6
:1098700038B505460088B0F5706F0AD2AB781A2B60
:1098800009D8042B05D9012202FA03F30F4A134227
:1098900005D1122015E0292B01D03B2BF9D100F086
:1098A000F3FA78B190F83C4074B990F90020002A9E
:1098B00001DAFCF7A5FCAA7880F83C2001F086FDCF
:1098C000204638BD0220FCE70C20FAE720003804CF
:1098D000022938B50C4618D1008800F0D5FAB0B18D
:1098E000B0F8484014F0100113D1457815F0040584
:1098F00005D12A46042101F093FD284638BD44F0E5
:109900001004A0F848400846F8E71220F6E7204681
:10991000F4E70C20F2E70229F8B50C4615461E467E
:109920000FD10088108080B200F0AEFA30B190F90B
:109930000C300020AB7003233370F8BD7F2320462A
:10994000F8E71220F9E70229F8B50C4615461E463D
:1099500021D10788B8B200F097FAAB1C38B9C5F826
:1099600002001871204607232F803370F8BD41781C
:1099700011F0100107D050F8252FC5F80220027908
:109980001A710020EFE750F8202FC5F80220027965
:109990001A710846E7E71220E8E7052938B50546B9
:1099A00001D0122038BD05F086FD0128F9D92B79A8
:1099B00013F0E004F5D1294601F0E6F82046F1E77E
:1099C00047F611239842024603D803485043800DBE
:1099D00070470DF09DBC00BFDF180200F8B50546CA
:1099E00010460E461446FFF7EBFF07460DF098FCB5
:1099F000231ADBB228681F2B08BF013738442860C0
:109A0000307808BF00230344DBB21E2B83BF1F3B0B
:109A100033702B68337084BF01332B60F8BD0000B6
:109A200008B506F0D7F8002002F04CFF014B0022E9
:109A30001A6008BDEC10002010B50446FFF7F0FFD7
:109A40002CB104F19C00BDE8104002F047BF10BDEE
:109A5000FFF7F2BFF8B504460D46174605F00AF9C0
:109A60000346064653F8012F22609B88A3800346D5
:109A700004F10C0053F8072FC4F806209B8863817B
:109A8000696D0DF07BF9AB6D2374AB6D1B0A6374CC
:109A9000B5F85A30A37495F83A30E374B5F87010FD
:109AA00004F114000DF066F9B5F8681004F1160021
:109AB0000DF060F9B5F8901004F118000DF05AF9A6
:109AC00004F11A00B5F86A100DF054F92B46222063
:109AD00053F8202FE2611B7984F8203095F8392063
:109AE00095F82E3043EA421384F8213033783B70E6
:109AF000F8BDB0F84810CB0710B504460BD50021CF
:109B000001F0FAFC0021204602F021F863786FF39F
:109B10004103637010BD11F04001F4D0062101F043
:109B2000EBFC94F83710EEE713B5C36F446F90F871
:109B300079201C440D4B1B781E2AA4EB030490F8DB
:109B4000783001D9FCF75CFB1344DBB21E2B01A873
:109B500088BF013405F088FB28B1019B1A1B34EA49
:109B6000220428BF1C46204602B010BD5416002017
:109B70002DE9F04F067816F004068FB0044644D065
:109B800063784FF0000B43F0200363705D460127BC
:109B90005E4663789A060BD50EAB039300238DF8CF
:109BA0002430ADF82630ADF828300DF1240B03AD8C
:109BB00094F832300BB147F008070EB147F01007A8
:109BC00094F833300BB147F0040723788BF8017019
:109BD0005B0740F1A9805F480027214605F08EFF12
:109BE0005D483A46294606F093F958B9637866F31A
:109BF00086139906637005D523785A0744BF43F04E
:109C0000080323700FB0BDE8F08FD0E92C5A002D67
:109C100078D14378990600F18180BAF1000FAFD076
:109C2000DAF80430C0F8B430AAF110051BB900F11D
:109C3000B402C0F8B8209AF809200093D34602F085
:109C40000302032A3BF8088B4DD1294620465FFAD0
:109C500088F901F0FAFE009B9AF80970AAF80C90B6
:109C60009A46C4F8B050002303EB0902BAF1000F82
:109C700001D142458DDA2046CDE90032FFF754FF8D
:109C8000019AE68B4245B8BF009B1FFA89F9B8BF1D
:109C90004B448246607CB6BFA8EB03081FFA80F8ED
:109CA0001FFA88F8404528BF4046012102F002FF14
:109CB00001218046484602F0FDFE06F5E17303EB04
:109CC0000806E37A012B08BFE38B304404BF9633C8
:109CD000C018FFF775FE06460DF016FB0644A6EB0E
:109CE0000A06F60F55E7A08B012102F0E7FE94F873
:109CF0001190C14528BFC146484528BF48465FFA74
:109D000080F9A8E76B8BB5F8108095F81C9005F1E9
:109D1000180B3BB96F7E07F00307A5E7AB46A946D2
:109D2000A8462B4601279FE7E37A022B0FD176B98D
:109D300094F834305BB994F83630D80607D42B68E1
:109D40003846197801F038FB00283FF444AF002072
:109D5000022742E7519A020061C8020070B5C46848
:109D6000274E054634600CB9FCF74AFAA37A002B5B
:109D7000FAD005F066FC042002F0A4FDD4E9151227
:109D800094F82F0005F0F6FEE27A1E4B012A1CD053
:109D9000022AE9D118786B68A978184406F068F8A7
:109DA0000546F8B92378D4F8842043F020032370C3
:109DB000D4F888303D3202EB4302014605F0F6FD4F
:109DC0000DF0A2FA6066284670BD18786B68A97815
:109DD000184406F087F828B92046FFF7C9FE054663
:109DE0000028EDD004F19C0002F078FD05F0F2FEB1
:109DF000002002F067FD002333600125E0E700BF8B
:109E0000EC100020541600200B4B70B51C68054662
:109E10000E460CB9204670BD0622294604F1950075
:109E200010F0BEFC20B994F894307340DB07F1D5F4
:109E3000D4F8BC40EDE700BFA4100020F8B540F214
:109E4000E24303FB00F4204616460F46FFF7B8FD39
:109E500005460DF065FA241AE4B21F2C05BF002355
:109E60000135347033703D60F8BD406E4B6EC01AE2
:109E7000C00F7047034B1B680BB1D86D70470DF0D6
:109E800043BA00BFEC100020012805D10348837AB3
:109E9000002B08BF002070470020704708110020E9
:109EA000044B186820B1D0F8BC201A6002B95B607E
:109EB000704700BFF01000208378DB062DE9F041E9
:109EC00004460D460AD590F83120818D00F120031B
:109ED000BDE8F041B0F84A0005F002BB90F82F0051
:109EE000012604F120070DB9BDE8F08194F8303067
:109EF00094F82E000344D8B2252884BFA0F125038E
:109F0000D8B2C0F3C702224484F8300092F820206F
:109F100000F0070306FA03F3134209D194F8312045
:109F2000B0FBF2F302FB13003946C0B205F0A6FA0B
:109F3000013DADB2D7E70000437870B59D070446F8
:109F400001D5FFF7D6FD94F83C306BB194F90030A1
:109F5000002B06DAE37A022B0AD10023A4F8903012
:109F600006E0204601F032FA94F90030002BF1DBD4
:109F70002168744AB4F84A500A40112A05F10103D5
:109F800008BFB4F890209BB204BF9B189BB25D1B26
:109F9000ADB20DB9FCF734F9012DA4F84A3040F008
:109FA0009E80626FE36F1A4494F8793062671E2BCB
:109FB000F0D894F878100B44DBB21E2B85BF1F3B02
:109FC000013284F8783084F8783088BF626763782B
:109FD000D90752D5B4F84A20B4F820319A424CD16E
:109FE000E37AB4F81A01012B15D0022B03D1B4F88F
:109FF00048305A060FD4B4F8683083420BD1B4F815
:10A000009020B4F81C319A4205D1B4F86A20B4F813
:10A010001E319A4203D0637843F002036370B4F8B0
:10A020001E31A4F86A30B4F81C31A4F8903094F8CA
:10A03000163184F83A3040F2E2467343C4F8843073
:10A04000B4F81831A4F8703004F17902A4F868006B
:10A0500004F17C01FFF7F2FEB4F8182132B172432B
:10A0600004F1780104F17400FFF7B8FC636FC4F8E1
:10A070008C3063786FF3000363706378DB061CD564
:10A08000638DB4F84A209B1A1BB2002B15DC04F137
:10A090002506304605F00FFAD4F82530236294F8EF
:10A0A000293084F82430637884F831006FF3041386
:10A0B00063700121204601F01FFA29462046FFF770
:10A0C000FBFE94F9003084F82F00002B14DA236E85
:10A0D000626F9B1A002B0FDC4FF0FF3070BDB4F89D
:10A0E000683040F2E2425A436A4304F1780104F1D5
:10A0F0007400FFF773FC6AE7E37A022B1FD194F830
:10A100003920D4F88010606F05F0FCF9B4F86820AD
:10A1100040F271235343963B9842DDD2D4F8843009
:10A120001030C4F888001844FFF74AFCA330064BEF
:10A130001A78636F9B1A0344E3650020CEE7A320DF
:10A14000F5E700BF1111400054160020012370B53F
:10A150008372037804466FF3000303700E460DF01C
:10A16000D3F8E37A6066022BC4F88C0006D0E57A57
:10A17000012D4CD0022D5FD0FCF742F8B4F87020CE
:10A180003569F368C4F8803040F2E24000FB0255C4
:10A19000B179222002F08EFCB378242B05EB00026B
:10A1A00032D896F90530022B29DC002BE4DD02F6CB
:10A1B000C412F36863672146002301F8783F04F175
:10A1C0007400FFF70BFC94F83A30656F40F2E24000
:10A1D0005843C4F8840000F59C500830FFF7F0FBAA
:10A1E00001350544E565204604F060FF0028BED037
:10A1F0002046FFF7A1FE0028F5D000201BE0032B2E
:10A20000BAD102F6A662D4E702F2E242D1E70D4BE0
:10A210001A68002AB0D0002631461E602046334618
:10A22000FEF7F4FE204601F024FD324603212046CD
:10A2300001F0F6F8012070BD31462046FEF71AFE07
:10A24000F8E700BFA8100020144B002210B51C68CE
:10A250001A600B7BC3F3800384F894308B68196811
:10A26000C4F895109B88A4F8993098B1A37843F06E
:10A270001003A370636D83EA1343A3851146204640
:10A28000FFF71AFE84F82F0000212046BDE8104099
:10A29000FFF75CBF84F830000121F0E7AC1000202C
:10A2A000014B1868FFF7C8BBEC100020012370B504
:10A2B000C372022380F83A300023A0F870300423E0
:10A2C00080F83930044615460E4602F005FD0C2391
:10A2D000B0FBF3F202FB1303053384F82E301C4B62
:10A2E0005A7A84F8312053F80A2F22621B7984F8B5
:10A2F000243005F06BF8606502F0EEFC154BC4F8F5
:10A30000FC3020F07F40A065737884F893303346AA
:10A3100053F8032FC4F895209B88A4F89930B3789C
:10A3200084F894302B68A4F868306B68E3672B7A64
:10A3300084F879306B89A4F89030AB89A4F86A303E
:10A34000EB89A4F86C302B8AA4F86E3070BD00BF86
:10A35000801200205D9D020038B57F230373FF2328
:10A36000002580F83B3000F19C024FF00853044672
:10A370000564C36305608572C0F84350A0F84E5071
:10A38000A0F8505080F8375080F892508564A0F8BB
:10A390000851C0F89C5015491046FCF7C7FD2346EC
:10A3A000C4F8AC4043F8B45FC4F8B8304FF48073DD
:10A3B000A3860F4BC4F8B0509A7862735A78A27390
:10A3C000DA88DB89E3820B4BA282C4E906331B23C4
:10A3D000E373A374084B658641F61B3222821A6828
:10A3E000A4F84C50C4F8BC201C6038BD4DA5020038
:10A3F000F810002048014801A4100020C38A028BF5
:10A40000418B934228BF1346C28B9A42828A16BF61
:10A41000C383002301238A4228BF0A46818B9142CD
:10A4200018BF8283C17B827B18BF01238A4228BF69
:10A430000A46817C914218BF8274017C427B18BF1E
:10A4400001238A4228BF0A46417C914202D04274CD
:10A4500001F034BB002BFBD170470000F8B5044677
:10A46000EC300D4604F0B4FEEFF3108672B6334BB9
:10A470001B68A34201D1FFF7D3FA86F31088304B53
:10A4800004F1C00118680FF0B8FD2E4A1368A3420A
:10A490001AD1D4F8BC301360D4F8B00020B10CF05D
:10A4A000FFFF0023C4F8B03004F1B407D4F8B4605F
:10A4B000A6B17368C4F8B4300BB9C4F8B870A6F18B
:10A4C00010000CF0EDFFF1E71A46D3F8BC30A342C0
:10A4D000FAD1D4F8BC30C2F8BC30DDE704F19C00FE
:10A4E00002F09CFAE378A67203F01803182B07D148
:10A4F0003146204601F04DFBE37866F30413E37028
:10A50000E378DA0607D52946204601F042FBE378D6
:10A510006FF30413E37045B1022D02D123785B077A
:10A5200003D529462046FEF793FE0023C4F8BC302D
:10A53000054B5A681460BC345C60F8BDEC10002018
:10A54000B8C90300A4100020F010002038B504465C
:10A5500002F0D8FC24690CB9FBF752FEA37A002B59
:10A56000FAD003F0F3FF237813F002051AD103F0B9
:10A570000C030C2B09D194F83D10002908BF1321BE
:10A580002046BDE83840FFF769BF04F19C0002F0A7
:10A5900045FA2378DB0748BFC4F884502046FFF70C
:10A5A000CBFC08B11621EBE7237884F8340060F384
:10A5B00000032370204600F06BFF1C4BC4F8FC30F6
:10A5C000204604F0C9FCC8B9A37A012B0BBFB4F82C
:10A5D0006830B4F86A3041F64C5042F210700BBF4C
:10A5E000584358433E250825FFF7EAF9636FD4F82E
:10A5F0008C209B1A834207D32946C1E72046FFF7E8
:10A600009BFC0028DCD0CDE72046FEF7ADFDE378CB
:10A6100003F01803182B07D10021204601F0B9FAE6
:10A62000E3786FF30413E37038BD00BF5D9D020053
:10A6300030B5147B242B94BF05232523E4075468ED
:10A6400048BF43F080039CB12068C1F80100A08896
:10A65000A1F80500107B850701D543F0400312687F
:10A660001068C1F807009288A1F80B200B7030BD6C
:10A6700090F89340E4074ABF074C084C43F040036E
:10A68000002CECD02568C1F80150A488A1F8054041
:10A69000012480F89240E2E72F13002029130020C4
:10A6A00010B5084C002002F00DF9206840B1037885
:10A6B0006FF3000300F89C3B02F010F900232360C5
:10A6C00010BD00BFEC100020024B1868EC3004F005
:10A6D0007FBD00BFAC1000201C4B2DE9F041884627
:10A6E0001C68074600F1180115466AB1DA89A4F81A
:10A6F00090201A8AA4F86A205A68A4F868209A68F8
:10A700001B7BE26784F879300022204604F072FC5B
:10A710000646B0B904F0AEFA42460146BB7E20467A
:10A72000FFF786FF3146304605F0E8F9002D0CBFF3
:10A730002A4602220648214605F0EAFB18B1FFF737
:10A74000C3FF4FF0FF30BDE8F08100BFAC10002028
:10A75000559A02000368187800F02000FFF774BDD6
:10A760000120FFF771BD000037B50446EFF31085F7
:10A7700072B60A4B1B68834207D085F310882046C7
:10A7800003B0BDE83040FFF769BE0191FFF748F91B
:10A7900085F3108803F0DAFE0199F0E7EC10002051
:10A7A00038B5144D2C680CB901200DE0636D8B4257
:10A7B0000BD0002002F086F804F19C0002F08EF825
:10A7C00000232B604FF0FF3038BD2389C3702378FE
:10A7D000022243F00103A2729A062370E4D56FF3BC
:10A7E00045132370C368C4F880306367036984F835
:10A7F0007830D9E7EC1000200B881B062DE9F041DA
:10A8000005460E4601D4FBF7FBFCC878FFF73CFB7E
:10A81000044640B343789F0701D5FFF76AF92B68D8
:10A820001A7812F003071ED093F80180B8F1000FD8
:10A8300001D1012F17D131792173E17A022905D194
:10A84000510742BF217841F01001217094F8351072
:10A8500002F00802914206D0012F84F8352007D17A
:10A86000B8F1000F0CD12846BDE8F0410CF018BE3D
:10A87000032F05D129462046BDE8F04100F05CBE1B
:10A880006A79072A98BF002205F110010A449B1A31
:10A890009BB2012BB7D9022128460CF091FF2E68FC
:10A8A0002189304641EA07310CF064FAB01C414678
:10A8B0000CF060FA2846BDE8F0410BF085BA0000C4
:10A8C0002DE9F04F0D88954B06781C6890F80190A3
:10A8D00015F0800585B007468B4600F0188109F118
:10A8E000020001F0DFFE0546002C00F00781DBF8D6
:10A8F0000C30DBF8108002930121484602F0DAF8B0
:10A90000BBF800301906804429D494F83430013360
:10A91000DBB2012B84F8343000F2F080E37A012BB3
:10A9200003D0022B07D0FBF76BFC6378C3F38013D3
:10A93000002B00F0E380E37A012B00F0B880204682
:10A94000FFF716F98246002D78D1BAF1000F02D038
:10A950002046FFF771F8504605B0BDE8F08F4FF084
:10A96000000A84F834A04046FFF72AF8029B84F8D6
:10A970003660184406F0030BBBF1030FC4F88C00DB
:10A9800006BFBB780193CDF804A025B1320794F837
:10A99000333017D5C3B9627894F8323012F0200200
:10A9A00006F0040002D1D4F8B010A1B188B193B977
:10A9B00083F0010384F8323052B363786FF34513A8
:10A9C000637008E0002BE6D183F0010384F8333094
:10A9D000E1E7002BECD1BBF1030F0CD1019B022B63
:10A9E00009D1B9F1020F06D1237843F00403237093
:10A9F000FB7884F83D30E37A012B92D1637806F03E
:10AA0000100603F04003334314BF012300238FE7F4
:10AA1000D4F8B0A0BAF1000FDDD09AF8191001F007
:10AA20000301032912D15046C4F8B020214601F099
:10AA300016F882460028CED0002D89D03846294607
:10AA400004F068FF284601F04FFF7EE7BAF81A20AD
:10AA5000BAF81C10BAF810000A4492B28242AAF85E
:10AA60001A2012D351B1B4F84C20013292B2022A0A
:10AA7000A4F84C2002D92A4801F030FF50460CF0CF
:10AA80000FFD0023C4F8B030A5E7821A92B201216D
:10AA9000A08B039202F012F8039A617C8A4228BFCD
:10AAA0000A46904228BF1046AAF81C0093E72046A9
:10AAB000FFF73AF8D4F8B020814612BBD4F8B4308E
:10AAC00013B3B3F110021FD0508B1B881B1A607C8C
:10AAD0009BB298424FF0010128BF184601F0EAFFEF
:10AAE0000646E08B029B00F596708044A9EB0300BC
:10AAF0000CF016FC4644B0423FF621AF4FF0FF3A4F
:10AB00009AE702F11003DFE701210020E6E7002CBD
:10AB10007FF4EDAE4FF0FF3A1AE700BFEC100020D3
:10AB2000E8120020032A10B504BFCB800B8200235B
:10AB30000B764B834A76EFF3108272B64B61D0F8F6
:10AB4000B83001F1100414311C60C0F8B81082F361
:10AB5000108810BD13B50446C1F30B000192FFF736
:10AB600093F958B111F4405F019B0CBF02220122FE
:10AB7000214602B0BDE81040FFF7D4BF204602B026
:10AB8000BDE810400CF08CBC70B50E4C064605229A
:10AB900020460D460FF004FE40B104F8016C2B680E
:10ABA00023602B792371084B1C6804B970BDE17ACE
:10ABB000012903D10022204600F032FCD4F8BC4029
:10ABC000F3E700BF8A120020A41000202DE9F84FFF
:10ABD000724F3C6805468A469146984600F1020B42
:10ABE000002C40F0B480FFF75BF90446002800F029
:10ABF000BD8005F10E000CF0E6F86065B5F8132095
:10AC0000AB7C43EA0223A3656B7D84F83A3005F1FF
:10AC100016000CF0CAF8A4F8700005F118000CF04A
:10AC2000C4F8A4F8680005F11A000CF0BEF8A4F806
:10AC3000900005F11C000CF0B8F82B46A4F86A004F
:10AC400053F81E2F2262844604F120001B79037101
:10AC500095F82330B4F8686003F01F0384F82E30B1
:10AC600095F82320520984F83920B4F87020B242B4
:10AC700000F29080B21F92B240F67A418A4200F20E
:10AC8000898094F83A20002A00F08480B4F890106B
:10AC9000B1F5FA7F7ED2053B0B2B7BD842F21073C5
:10ACA00003FB0CFC01FB066340F6C4114B439C45BF
:10ACB00070D9013E082E28BF082696426AD3DBF8D9
:10ACC0000030C4F89530BBF80430A4F8993084F80B
:10ACD00094A004F0F0FB012884F831005AD9B4F8AC
:10ACE000680004F1790204F17C01FFF7A7F8022360
:10ACF000E3722046FFF730FBB8F1000F02D12B784A
:10AD00009B063BD5A37843F01003A370636D83EAE1
:10AD10001343A38500212046FFF7CEF8204B84F88B
:10AD20002F00C4F8FC3049462046FFF70FFAF0B96F
:10AD30003B68D4F8BC20A34224D13A600023C4F875
:10AD4000BC30184B5A681460BC345C600FE00622BB
:10AD5000594604F195000FF023FD60B92A7894F864
:10AD60009430520603F0010303D523B10020BDE85F
:10AD7000F88F002BFAD0D4F8BC4031E784F830804B
:10AD80000121C8E71946D3F8BC30A342FAD1C1F873
:10AD9000BC20D3E70020C4F8BC00D2E7A4100020F8
:10ADA0005D9D0200F0100020214B186870B518B1AD
:10ADB00000211960FFF752FB1E4C206818B10DF0FE
:10ADC0000FF8002323601C4B1C4C00221A602068E3
:10ADD00018B10021FFF742FBF9E705F0F3F8FB2873
:10ADE00028BFFB20C5B2164C2E1D012130466570D0
:10ADF00001F060FE0121E0813046257001F05AFE2D
:10AE00000121A0813046A57001F054FE0121E080AF
:10AE1000304601F04FFE03212081304601F04AFE0A
:10AE20001B23E3704FF4A4736081A38070BD00BF47
:10AE3000EC100020A8100020AC100020A41000206E
:10AE4000F810002008B50D4B002119600C4B4FF491
:10AE50009E7218460FF0D6FD01220281094AC0F801
:10AE6000F80000F1BC0110605160032280F8EC2072
:10AE700000F01AFEBDE80840FFF796BFA4100020BE
:10AE800008110020F0100020F8B5B0F84A50B0F8D2
:10AE900090301D44073504460E46ADB2002A5CD002
:10AEA0009089B2F802C04FF6FF73984253D0B4F8BD
:10AEB0006810B2F80AE040F2E24707FB0CF379436E
:10AEC0004743AEEB050010F4004F3AD101FB007789
:10AED000B7FBF3F103FB117340F2E241B3FBF1F373
:10AEE000A4F81831D388A4F81E319388A4F81C3133
:10AEF000A4F81AC1012384F81631304694F81631AB
:10AF0000A4F8205100F8013BB4F818110BF032FFFF
:10AF1000B4F81A11F01C0BF02DFFB4F81C11701DC1
:10AF20000BF028FFB4F81E11F01D0BF023FF29468B
:10AF300006F109000BF01EFF637843F00103637014
:10AF4000F8BDA5EB0E004843C01BB0FBF3F103FBBB
:10AF500011001B1AC0E70023C2E7B0F80C31A0F8BB
:10AF60001A31B0F81031A0F81E31B0F80E31A0F847
:10AF70001C31A0F8182190F83A30BCE738B50C46DF
:10AF80000546817B601C0BF0F5FEE98AE01C0BF0A6
:10AF9000F1FE697B601D0BF0EDFEA98AE01DBDE8A6
:10AFA00038400BF0E7BE2DE9F84305460C4616463F
:10AFB00001F1020901F104088F1D002A3DD011881A
:10AFC00020460BF0D7FE718848460BF0D3FEB188BF
:10AFD00040460BF0CFFEF18838460BF0CBFE002345
:10AFE0002372B5F84A1004F109000BF0C3FE04F116
:10AFF0000B004FF6FF710BF0BDFE04F10D004FF694
:10B00000FF710BF0B7FE04F10F004FF6FF710BF06C
:10B01000B1FE04F111004FF6FF710BF0ABFE04F12D
:10B0200013004FF6FF710BF0A5FE04F115004FF66B
:10B03000FF71BDE8F8430BF09DBEB0F808310BB9C5
:10B04000FBF7DEF8B0F80A1120460BF093FEB5F8D6
:10B050000C1148460BF08EFEB5F80E1140460BF071
:10B0600089FEB5F81011B7E72DE9F34104460D4606
:10B070001B20142101920CF0FBF90746D8B1066899
:10B08000019A06F10108082D3ED8DFE805F0051801
:10B090003D384A5B606D670041462046FFF7F4FE8D
:10B0A0000025324B35705B5D0133DBB2032239463C
:10B0B0002046FFF737FD384602B0BDE8F0812C4B43
:10B0C0001A68C6F801201B7988F80430D8F80030D7
:10B0D000C4F8253098F80430B4F84A1084F82930C0
:10B0E000B4F890301944073189B26185B01D0BF076
:10B0F00041FE637843F0100363700125D1E7E37AE2
:10B10000012B03D0022B0AD0FBF77AF8082501F0B7
:10B1100091FC02460B4640460BF038FEC1E70E2577
:10B12000F5E7637843F004036370092373704FF607
:10B13000FF71B01C0BF01EFE0021301D0BF01AFE3B
:10B140000C25AEE794F83C3073700225A9E7002285
:10B1500041462046FFF727FF0F25A2E7314620464C
:10B16000FFF70CFF14259CE712259AE7A6C30300FE
:10B170008A12002000692221FFF7F6BA2DE9F0417A
:10B18000044608460D460BF010FE0746A81C0BF0BF
:10B190000CFE8046281D0BF008FE0646A81D0BF08D
:10B1A00004FE1A2F12D9B8F5A47F0FD31A2E0DD989
:10B1B000B0F5A47F0AD32083A4F81A802046277410
:10B1C000E673FFF71BF90020BDE8F0810120FBE7E3
:10B1D00070B50E2B16460446C27A0D4627D1012AB9
:10B1E00027D101F027FC2A7884F83F200B4655F838
:10B1F000011F2164A988A4F84410A979E57884F88E
:10B200004610290758BF25F0280502EA000258BF5A
:10B2100045F0280584F83F2058BFE5700246701CB1
:10B220000BF0B4FD94F83F307370092070BD022A12
:10B23000D6E70720FAE708B5C37A012B01F101012F
:10B2400003D0022B05D0FAF7DBFFFFF71DFE00202D
:10B2500008BDFFF7A8FE1020FAE7F7B50446084638
:10B260000D4617461E460BF0A0FDA4F82201A81CAF
:10B270000BF09BFDA4F82401281D0BF096FDA4F80B
:10B280002601A81D0BF091FDA4F828012B7A84F863
:10B290002A3105F109000BF088FDA4F82C0105F115
:10B2A0000B000BF082FDA4F82E0105F10D000BF050
:10B2B0007CFDA4F8300105F10F000BF076FDA4F839
:10B2C000320105F111000BF070FDA4F8340105F115
:10B2D00013000BF06AFDA4F8360105F115000BF020
:10B2E00064FDB4F82831A4F83801B4F82621B4F884
:10B2F0002411B4F82201FDF749FE002855D10F2E84
:10B3000004F5917215D1B4F86830B4F8221199425D
:10B310000FD8B4F8241199420BD3B4F86A10B4F8DA
:10B320002831994205D1B4F89010B4F826319942E9
:10B3300036D0E37A022B01D0102E1ED1B4F808319A
:10B34000DBB1B4F82231B4F80A01834215D3B4F862
:10B350000C118B4211D8B4F8243198420DD899427F
:10B360000BD3B4F82611B4F80E31994205D1B4F8D4
:10B370002811B4F81031994212D00620019200F041
:10B38000BBFFB8B1019A2046114600F0BBFB237801
:10B3900084F8386043F040032370FF2003B0F0BD11
:10B3A00039462046FFF747FFF8E71E237E70BB7043
:10B3B0001120F3E71A23F9E700F00300032803D173
:10B3C0008B1E5842584170470020704770B590F866
:10B3D0003C3004460BB9FAF713FF00220521FFF7B2
:10B3E00043FEA0B12378B4F86A6043F08003237071
:10B3F00042F210735E430BF087FF47F611239E4223
:10B40000054605DC054B73439B0D2B44236670BD3D
:10B4100030460BF07DFF0346F7E700BFDF18020060
:10B42000052938B504460D4601D1FAF7E9FE90F832
:10B430003B30FF2B0CD1FFF717FE48B1012D84F8EC
:10B440003B5005D049F6404104F1C0000BF04CFCE4
:10B45000012101FA05F5B4F848100D43A4F848504D
:10B4600038BD90F83F309B0611D5437B1B2B0AD883
:10B47000837B1B2B07D8838AB3F5A47F03D8C38AA9
:10B48000B3F5A47F03D900220821FFF7C9BF704795
:10B4900038B590F83C5004463DB190F90030002B8F
:10B4A00021DBBDE83840FFF791BF90F83B30FF2B20
:10B4B00019D1B0F84830B3B1B4F848302B41DA07AD
:10B4C0000ED5042D10D163781B070DD50021204621
:10B4D00000F085FBB4F8483023F01003A4F848309E
:10B4E00001350E2DE8D138BD294620460022BDE8A1
:10B4F0003840FFF795BF000038B590F83B308B42DD
:10B5000004460D4608D10B4B00F1C00118680EF03F
:10B5100074FDFF2384F83B300121A940B4F8485062
:10B5200025EA0105A4F848502046BDE83840FFF759
:10B53000AFBF00BFB8C903002DE9F0470E68DFF8C0
:10B54000C094B778292F0446884600F24E8273785B
:10B5500019F80720013BDBB29A4240F04682FB1EFD
:10B56000242B58D8DFE803F04B574B575757574B0E
:10B57000575757514E4E57485754574557574257AC
:10B58000573E5757575757575757571313004FF0B2
:10B59000000A202501F04EFA00EA0A0201EA05033A
:10B5A000134338D1032F40F0248294F83FA01A238C
:10B5B0001AF0040A1FBF7770B3704FF0000A11250C
:10B5C00004BF73700D2519F805303570072D03F190
:10B5D000010308BF7770DBB2032241462046FFF724
:10B5E000A1FAC8E04FF0007A0025D3E74FF4803A83
:10B5F000FAE74FF4106AF7E74FF0100AF4E74FF05C
:10B60000010AF1E74FF0020AEEE74FF0080AEBE714
:10B610004FF0200AE8E7711CF51C152F00F293800B
:10B62000DFE817F01600530091009100910091009F
:10B630009100B5000D011501910091003E01BB0183
:10B6400073017A01AA01BB01EA01750173008D0043
:10B65000E37A012B54D0F37884F81631301D0BF0C7
:10B66000A4FBA4F81801B01D0BF09FFBA4F81A016D
:10B6700006F108000BF099FBA4F81C0106F10A0082
:10B680000BF093FBA4F81E0106F10C000BF08DFBF0
:10B69000B4F84A30A4F82001C31A9BB247F6FE72F0
:10B6A000934204D928212046FFF75EF80BE0627828
:10B6B00042F00102627033B90130A4F8183184F805
:10B6C0001631A4F82001FF251BE0E37A012B17D0E7
:10B6D00006F108000BF069FBB4F84A30C31A9BB2BC
:10B6E00047F6FE729342DDD860852B68C4F825309A
:10B6F0002B7984F82930637843F010036370E2E714
:10B700000725EDB24FF0000A2FE029462046FFF74B
:10B7100035FD8246002840F0688194F83B30082BC4
:10B7200007D0B4F84830DA0544BF23F48073A4F896
:10B73000483031462046FFF721FC152543E794F8B1
:10B740003B30082B02D04FF0000A11E0294620467A
:10B75000FFF714FD082100288246204616BF4FF04F
:10B76000FF3AFF250725FFF7C7FEFF2D7FF42BAF1C
:10B7700040460BF095FEE3789A0605D56FF3451326
:10B78000E3702046FFF76DFE5046BDE8F087F57880
:10B7900095B10E3DEBB2062B3ED8062D3CD8DFE826
:10B7A00005F01A223D3B333B040094F83F3023F070
:10B7B000200384F83F30082594F83B30AB4282D117
:10B7C00029462046FFF798FE062D29D11A2120464A
:10B7D00000F0BDF977E794F83F3023F0080384F8D0
:10B7E0003F300325E8E794F83F3023F0020384F864
:10B7F0003F30E37A012B11D1002220460025FFF7CC
:10B8000043FB84F837507CE794F83F3023F0100373
:10B8100084F83F303D46CFE70E25CDE70625CBE740
:10B82000032D7FF450AFE378DB0603D51A212046C1
:10B8300000F0AFF9E3786FF30413E37043E70823F4
:10B84000324629462046FFF7C3FCC5B25AE7F378D3
:10B8500084F83F3056F8043F2364B388A4F844309A
:10B86000B37984F84630E3781E075EBF23F02803DF
:10B8700043F02803E370B4F848301D0703D50321D3
:10B880002046FFF739FEE378D8067FF55CAF00214C
:10B89000204600F07EF9E3786FF30413E37052E77B
:10B8A000F37884F83E30351D28460BF07EFAA4F874
:10B8B0004E00B01D0BF079FA6378A4F8500043F005
:10B8C000080313F0040A63701DD143F0040363708E
:10B8D000092373704FF6FF71B01C0BF04BFA28462A
:10B8E00051460BF047FA3D46B4F848A01AF0100A4A
:10B8F0003FF43BAF2046002100F071F904212046BF
:10B90000FFF7FAFDFEE6FF25EEE70E2398E7072195
:10B910002046FFF7F1FD16E7237859062AD4B4F83C
:10B9200048305A0614D5E37A012B03D0022B07D0F6
:10B93000FAF766FC0F2373702323B370112084E79A
:10B9400006212046FFF7D8FD2321204600F0FFF80E
:10B95000E37A012B06D16378DB0603D50F237370DE
:10B960002A23EAE70F23324629462046FFF775FCD3
:10B97000C0B26AE7FF2068E7E37A022B0BD0237896
:10B98000580644BF6FF386132370B4F84830590645
:10B99000F0D51023E7E7072057E794F83B300D2F49
:10B9A0000CBFF5783579062B04D0082B7FF4CBAE8D
:10B9B0001946ADE7112F7FF4C6AEE27A012A0AD00C
:10B9C000022AB5D119462046FFF796FD29462046A2
:10B9D00000F0BDF8B7E64FF0000A00222046FFF75E
:10B9E00053FA554684F837A0EDE54FF0FF3A0725A6
:10B9F000E9E54FF0000AFAE74FF0000A1325E2E507
:10BA0000A6C3030070B504460E461B20142115463C
:10BA10000BF02EFD0146B0B1032E036805D01122B4
:10BA20001A705E709D70032307E094F83F20520760
:10BA3000F5D40D221A705D70022320460322FFF711
:10BA400071F8002070BD0120FCE70B681B78272BE4
:10BA500002BFC37843F04003C3700020704710B5A5
:10BA600003681A78022A03D0112A0BD0002405E0BB
:10BA70000B7843F002030B704FF0FF340BF010FD16
:10BA8000204610BD91F83B20062AEFD15A780F2AA4
:10BA9000ECD19B78232B1FBF81F837304B7843F0D4
:10BAA00002034B70E2E700000346024A0249C0303D
:10BAB0000BF006B975B102009412002010B50446CF
:10BAC000072000F019FCE0B100200CF077F9C0B1BC
:10BAD0003E2202700B224270072282702289A0F857
