:020000022000DC
:1060000000020020C5750200517502006175020092
:106010007175020081750200917502000000000098
:1060200000000000000000000000000035750200C4
:10603000A175020000000000E9740200B1750200C1
:1060400033BE02002DD8020099CC02006178020014
:106050007D78020033BE020049C0020033BE020058
:1060600033BE02006DCA020073CA020033BE0200D2
:1060700033BE020033BE020033BE020033BE020054
:1060800033BE0200B5C4020033BE020033BE0200BC
:1060900033BE020033BE020033BE020033BE020034
:1060A00033BE020033BE020079CA02007FCA02007A
:1060B00033BE020033BE02000000000000000000FA
:1060C00033BE020033BE020033BE020099780200E4
:1060D00033BE020033BE020033BE0200F5D102001F
:1060E00033BE020033BE020033BE020000000000D7
:1060F0000000000033BE020000000000B57802007E
:1061000030B50023DCB241FA04F5ED0703F10103D9
:10611000F8D590F90030A2405A4011405940017022
:1061200030BDF7B5054600680C4616461F4606F01A
:10613000A3F800232246CDE90073392133462868AD
:1061400006F018F90446286806F0ACF8201E18BFBF
:106150000120404203B0F0BD30B585B0054600686F
:1061600003920C4606F088F801220023CDE90023B3
:1061700039212246039B286806F0A0F804462868C7
:1061800006F090F8201E18BF0120404205B030BD37
:10619000F0B51C4685B0054616460023DFB246FA28
:1061A00007F2D20703F10103F8D501230DF10F0225
:1061B00028460191FFF7B5FFA0B99DF90F3001996D
:1061C000BC405C4004EA06025A408DF80F20284685
:1061D0000DF10F02FFF7C0FF003818BF0120404249
:1061E00005B0F0BD4FF0FF30FAE737B504460FC9F0
:1061F00040F2F51584E80F000020013D0ED158B99A
:1062000000230DF10502802120468DF80530FFF7AF
:10621000A3FFA8B14FF0FF3003B030BD01230DF153
:10622000070292212046FFF77CFF10B14FF0FF30AC
:10623000E3E79DF80730AB2BE2D06FF00100DCE71D
:10624000A3880DF106025B42812120468DF80630BD
:10625000FFF782FF0028DDD1A37903228F2120469A
:10626000FFF796FF0028D5D1E379002B4AD1237A96
:10627000C0228F212046FFF78BFF0028CAD1637A06
:106280000C228F212046FFF783FF0028C2D16389AB
:106290000DF107025B42832120468DF80730FFF79E
:1062A0005BFF0028B6D1012211468DF805000DF1E3
:1062B0000500FFF725FFA288003A18BF012202213E
:1062C000FFF71EFFE279003A18BF01220421FFF711
:1062D00017FF6289003A18BF01220821FFF710FF5B
:1062E000024680212046FFF737FF002892D1237B0A
:1062F00002228D212046FFF74BFF003818BF0120F6
:10630000404289E7013BDBB23F228E212046FFF766
:106310003FFF0028ABD07DE713B502230C4601AA4E
:106320009421FFF7FEFE20B9BDF80430238002B0AF
:1063300010BD6FF00300FAE713B500230C4600937D
:10634000ADF804306A4606239621FFF7EAFE50B9FD
:10635000BDF800302380BDF802306380BDF8043002
:10636000A38002B010BD6FF00300FAE713B500235D
:106370000C46ADF8043001AA01239C21FFF7D1FEA1
:1063800020B9BDF80430238002B010BD6FF00300C7
:10639000FAE710B50C46FFF7E9FF18B91A23E380B6
:1063A000012010BD6FF08B00FBE710B50C46FFF726
:1063B000B3FF18B91A23E380012010BD6FF08B00E2
:1063C000FBE713B50C466946FFF7B6FF68B9BDF8A1
:1063D00000302380BDF802306380BDF80430A38014
:1063E0001A23E380032002B010BD6FF08B00FAE7A0
:1063F0004269013201D00AF083BC83685B681847A8
:1064000073B51148114E082100F0CAFD40F2012475
:10641000684600F0C2FDBDF80230A342F8D1304614
:106420000BF094FD019D2C4624B92146284604F02A
:1064300097F8EBE794F90E3023B9D5E90101102262
:1064400007F010FB2468EFE7C0020020E8340300E7
:106450002DE9F04F884B1E688FB0032130460AF0BB
:10646000C5FD8648082100F09BFD822007F08CFFC7
:10647000804630B982480BF069FD01200FB0BDE8BD
:10648000F08F0024ADF82C400225204605F082FC58
:10649000044640B97B480BF059FD7B480BF056FD94
:1064A0004FF0FF30EAE70BAB00950022282103F004
:1064B0003DFFBDF82C30072BE7D10523DFF810A2F4
:1064C0008DF82C30012550468DF824500BF03EFD00
:1064D0003046FFF78DFF0095074609AB00222021CB
:1064E000204603F02FFF42F20F7B3046FFF780FF7C
:1064F000C01B5845E7D8012130460AF077FD0095CA
:1065000009AB00222021204603F010FF9DF82490C3
:10651000B9F1010FE9D15D480BF018FD00250BAB77
:1065200000225021CDF80090204603F00BFF09AB6C
:106530002A461721CDF8009020468DF8245003F00C
:1065400001FF534B5348CDE90153534B00930622AF
:106550002B464FF4806100F0EBFE10F1160F01D1D5
:106560004E489BE74E4BADF834000BA928460C93E0
:106570000B9503F0B9FF3046FFF73AFFDFF854A15F
:10658000DFF854B1069007A9404607F00BFF011E43
:1065900004DC44480BF0DAFC00206FE7C9B207A81E
:1065A00007F02AFC40480BF0D1FCBDF91C309DF9E6
:1065B0001D208DF8153000238DF814204FF00109AF
:1065C000022205A918468DF8139004F0E3F8054659
:1065D00020B936480BF0BAFC50463CE0B0F90C70DC
:1065E0006FB9334B1B8883810DF113024B4639463B
:1065F000384603F095F9814648B92E4800E05846E0
:106600000BF0A4FC0021284603F0AAFFE4E743684E
:1066100005601F71014640F20222B4F91A0202F02D
:10662000EBFE002805DC24480BF090FC3946484678
:10663000EAE709A800F0B1FCBDF8261040F20623F5
:10664000994203D01D480BF0CFFBC5E70A9909B169
:106650001B48F8E71B480BF079FCBDF91C101A48E1
:106660000BF0C2FB012119480BF0BEFB012206A969
:1066700030460AF0D7FC86E7C44903000007002033
:10668000F6340300143503002F3503006D35030085
:106690009135030000030020016402009C350300D3
:1066A0000000FFFFBE350300E43503000C36030095
:1066B000F81200204B3603006336030079360300DE
:1066C0009D360300C2360300244203000137030055
:1066D00052350300E33603002436030070B5064E3E
:1066E000064CA41BA4080025AC4200D170BD56F88E
:1066F000253098470135F7E7844A03009C4A030098
:1067000013B5002006F060FD084C014620460AF053
:106710003DF8204609F040FB054B06480094012255
:106720004FF480610AF03EF802B010BD400B00202B
:106730001C3703004007002007B5134600220092D3
:106740000A460179006807F045FA003818BF0120B1
:10675000404203B05DF804FB07B5134600220092E7
:106760000A460179006807F03FFA003818BF012097
:10677000404203B05DF804FB30B5044607C98BB056
:1067800084E8070005F078FD0DF10F02D0212046C6
:10679000FFF7D2FF38B1206805F084FD6FF00105E6
:1067A00028460BB030BD9DF80F30582BF3D1B622E0
:1067B000E0212046FFF7D0FF002858D10DF10F024D
:1067C000F3212046FFF7B8FF002850D19DF80F3085
:1067D000002BF3D10193182300932179206804AB97
:1067E000882205F0C7FD002841D1BDF81030A381F3
:1067F000BDF81230E381BDF814302382BDF81630A5
:106800006382BDF81830A382BDF81A30E382BDF868
:106810001C302383BDF81E306383BDF82030A38372
:10682000BDF82230E383BDF824302384BDF8263040
:1068300062796384A379F5211A4320468DF80F20ED
:10684000FFF78AFF98B9627A237A920042EA4312EC
:10685000E3791A43D2B2F42120468DF80F20FFF7D6
:106860007BFF054618B9206805F01CFD98E72068F5
:1068700005F018FD4FF0FF3592E700001FB5044604
:10688000006805F0F9FCE379032B1AD0627A237AC9
:10689000920042EA431242F00102D2B2F4212046B1
:1068A0008DF80F20FFF758FF00283ED10DF10F02A1
:1068B000F3212046FFF740FFB8BB9DF80F301907C2
:1068C000F4D406230022CDE900322179206804F1B6
:1068D0003403F72205F04EFD38BB206805F0E2FCDA
:1068E00094F8382094F8373094F83900120142EACD
:1068F0000332A38942EA1010C3EB12125B00C3EB10
:10690000D003B4F90E00584302FB02F3B4F910208F
:106910001B1353439B1303EBE020206300EB800029
:10692000803040F30F2004B010BD206805F0BAFCA1
:106930000048F8E70080FFFF2DE9F0410446FFF72B
:106940009DFF94F8350094F83450226BB4F91CE0A4
:10695000000140EA053094F83650D317B2F5FA3208
:1069600043F1FF3340EA1515B4F91A00A2FB02C740
:1069700002FB03F107EB41074FEAE07800FB03F16C
:1069800002FB0811A0FB020841444FEA41484FEACC
:10699000EE760EFB07F10CFB061148EAD038AEFB91
:1069A0000CE6400410EB0E003144B4F918E0064642
:1069B000B4F9140041EB0801434301EBCE014FEA67
:1069C000E07E02FB0E33A0FB020213441B0343EAEA
:1069D00010530203B4F916004FEAE07E47430CFB64
:1069E0000E77A0FB0CC038444FEA1C2C4CEA006C1C
:1069F00012EB0C0203F5004343EB2023608AA2FB59
:106A0000002C00FB03CC4FEAEC7353EA6C004FEA16
:106A10006C0250D0C5F5801000F0004545EA5005E5
:106A2000C007801B40F6354665EB0105A0FB06015B
:106A300006FB05110AF022FB450B45EAC1454E1342
:106A4000B4F9223005FB06F2A5FB055606EB42061B
:106A50004FEAE37CB4F920205E4305FB0C66A3FB00
:106A600005352E444FEAE27C02FB01F507460CFB9C
:106A70000055A2FB00200544D20CB4F91E0042EAE6
:106A800045325B0E43EAC613D21941EBE5459A182D
:106A90004FEAE07345EB6665120A1B0142EA0562A4
:106AA00043EA10730001801843EB2525000A40EAF1
:106AB0000560BDE8F0814FF0FF30FAE710B50C46F5
:106AC000FFF7DCFE4FF602632080E380012010BD5B
:106AD00013B51723CB800C46FFF72EFF0122019040
:106AE00001A9204607F02AF9012002B010BD41F6A5
:106AF000C813584348BF00F2FF3040F38F2070475F
:106B0000704700004FF080435722C3F81C25BFF3A5
:106B10004F8F0549054BCA6802F4E0621343CB600E
:106B2000BFF34F8F00BFFDE700ED00E00400FA0562
:106B300030B50144884201D1184630BD10F8014BF0
:106B4000634008245DB25B00002DDBB2B8BF534048
:106B5000013CF7D1EEE7002308B918467047421E02
:106B600010400133F8E7000008B5FFF7B7FD034810
:106B70000BF0ECF9FFF76CFC002008BD3C3703007C
:106B80001FB5EFF3108372B6074B029300230193F6
:106B9000064B0093072204234FF4C061044800F021
:106BA000C7FB00F08BFC00BF7B370300696B020062
:106BB000F00C002008B507F02BF8BDE8084007F0FE
:106BC000BDBD704708B50B4B1A680C4652B901227F
:106BD0001A60FFF7F6FF084821460BF005F9074851
:106BE0000BF0B4F9EFF3108372B600F01FFC00F065
:106BF0001FFC00BFF0120020803703009C37030009
:106C000070B50D460021044600F0D6F90D4E70B95E
:106C1000BFF35B8FE388BFF35B8F32881BB212B286
:106C20009A4204D06DB90121204600F0C5F933889D
:106C3000BFF35B8FE380BFF35B8FA3880133A38037
:106C4000012070BDF81200200021FFF7D9BF838812
:106C5000013B9BB2838033B9BFF35B8FC380BFF32B
:106C60005B8F00F0DDB97047F8B50246EFF3108690
:106C700072B6304B1C68676A002F54D0D4E90630D6
:106C8000984250D0581CA061206A034039B961690C
:106C900029B9591C03D186F310881846F8BD002B7A
:106CA00045DB07EBC30103C982E80300656955B3FF
:106CB00055F80C196161002B0CDBD4E90720A3699E
:106CC000D31A9842A9BF531C4FF0FF320240E36130
:106CD00007EBC2022B6993E8030082E803002B79DB
:106CE000062B02D186F310881BE0002328462B6177
:106CF0000C2100F013FA687986F310880E2810D85A
:106D000000F04AFA0DE0002BECDA0421204600F0F6
:106D100005FA86F31088084B4FF080525A60BFF393
:106D20006F8F0123B9E74FF0FF330029AFD0226105
:106D3000BCE700BFFC12002000ED00E00346D0E9F4
:106D4000072010B59C69141BA04201DA002010BD79
:106D5000541C0240DC61F9D4586A00EBC20203C93A
:106D600082E803001A896FEA42426FEA52421A81AE
:106D7000184600F07BFA0120E9E7000008B50E4B49
:106D800053F82130A3B11A79042A0BD103C81A6928
:106D900082E8030018460C2100F0C0F9074B0120DF
:106DA000186008BD01461846BDE80840FFF7C6BF99
:106DB0004FF0FF30F5E700BF48130020001300201C
:106DC0002DE9F0411D46294B53F82140284B1B88E3
:106DD0000380064690462CB985F310884FF0FF30AB
:106DE000BDE8F0812379042B36D0224B01462046A2
:106DF0001F68FFF7A3FF78B185F310883B79062B56
:106E000002D01D4B1B682BB11C4B4FF080525A60B7
:106E1000BFF36F8F0120E3E7B8F1000F02D185F3D4
:106E20001088DDE73B793E61062B0CBF062105216A
:106E3000384600F073F904F11400394600F06AFA9C
:106E400023896FEA43436FEA53432381204600F0CE
:106E50000DFA85F31088D7E7D0E90001236983E8AC
:106E600003000C21204600F059F9F2E748130020F6
:106E7000F8120020FC1200200013002000ED00E0BA
:106E800010B50146EFF3108472B6054B1B880380E2
:106E9000044B1868FFF752FF84F3108810BD00BF41
:106EA000F8120020FC12002021230380FFF766BFA8
:106EB000EFF30583DBB20BB1FFF7F6BF064B1B8880
:106EC0001BB2994201D1FFF7DBBFEFF3108372B61B
:106ED0000122FFF775BF00BFF812002010B4EFF3D6
:106EE000058212F0FF0203D05DF8044BFFF7DCBF10
:106EF000074B1B881BB2994203D15DF8044BFFF787
:106F0000BFBFEFF3108372B65DF8044BFFF758BFB5
:106F1000F8120020F7B505460C461646EFF310832D
:106F2000019372B6094A17680621384600F0F6F850
:106F300095E80300019B3C61012284E8030031468F
:106F4000204603B0BDE8F040FFF73ABFFC12002036
:106F500038B5EFF3108572B60D4BB0F9002053F839
:106F600022402379062B04D085F310884FF0FF30A0
:106F700038BD03C9236983E8030020460C2100F0D3
:106F8000CDF8607985F3108800F006F90120EFE76D
:106F9000481300200021FFF767BE0121FFF764BE00
:106FA000044B1B6800220139C3E9062258621962AA
:106FB000704700BFFC120020F8B504460D46EFF301
:106FC000108772B603683BB94FF0FF33036087F355
:106FD000108801252846F8BD11B987F31088F9E714
:106FE0000D4B1E680321304600F098F823680133EA
:106FF0000DD106F10C0323600023F36087F31088A2
:10700000064B4FF080525A60BFF36F8FE2E7314674
:10701000204600F07FF9F1E7FC12002000ED00E0CF
:1070200038B50446EFF3108572B6006810B985F3E1
:10703000108838BD431C02D100232360F7E750F8C5
:107040000C3923600C2100F069F8236813B94FF064
:10705000FF33236085F31088034B4FF080525A6052
:10706000BFF36F8FE5E700BF00ED00E0026810B5E9
:107070004AB113688B4207D19A4202D100230360C0
:1070800001E01B68136010BD13461B681C68A14219
:1070900002D09A42F9D1F6E7002BF4D00A681A60C0
:1070A00002689142EFD1EAE770B5174D174E2B6891
:1070B000346833BB24B123790B2B04BF0C23237119
:1070C00000F040FA2B68002BFAD00023104A002170
:1070D00011602A680F49B2FA82F251F82220106832
:1070E0000C380B22844202710AD023B11A790B2A80
:1070F00004BF0C221A71084BB0F906201A803060C8
:1071000070BD2346E2E700BFF4120020FC1200200D
:107110000013002008130020F812002070B50A297F
:10712000037904460D461AD90A2B14D84279184B14
:1071300000F10C0153F8220078B10068E06053F8C8
:107140002200016043F8221012494FF00043D3405F
:107150000A6813430B60257170BDE160F2E70A2BEA
:10716000F9D90B4E407904F10C0106EB8000FFF7D2
:107170007DFF627956F82230002BECD105494FF0A3
:10718000004323FA02F20B6823EA0203E2E700BF9E
:1071900008130020F41200200B4B1B681A790A2AEE
:1071A00002D95B7983420DD9EFF30583DBB21BB1C2
:1071B000064B01221A607047054B4FF080525A600F
:1071C000BFF36F8F704700BFFC1200200013002038
:1071D00000ED00E008B5EFF3108372B6094B0A4AE0
:1071E0001B880A4D1BB2002442F82340084A286835
:1071F00013682146013B1360FFF790FF2C6000F0FD
:107200005DF900BFF812002048130020FC12002096
:107210000413002010B50346EFF3108472B6028900
:1072200002EA010022EA01021A8184F3108810BDEB
:107230000C4B10B51B68EFF3108472B61A8910421C
:107240000DD1186107211846FFF768FF84F31088F5
:10725000054B4FF080525A60BFF36F8F10BD84F31F
:107260001088FBE7FC12002000ED00E010B5037968
:10727000048A072B03D0082B0CD0002408E00389D4
:107280001C4005D00C21FFF749FF054B01221A6075
:10729000204610BD038934EA0303EED10124F1E74F
:1072A0000013002013B5064B01901C68FFF7C0FFC8
:1072B0000199204602B0BDE81040FFF7ABBF00BF08
:1072C000FC12002010B5EFF3108472B60389027926
:1072D0001943072A038A018104D0082A13D084F3B2
:1072E00010880FE01942FAD00C21FFF717FF074B67
:1072F00001221A6084F31088054B4FF080525A60C7
:10730000BFF36F8F10BD8B43E9D1EDE70013002071
:1073100000ED00E030B54C7901F10C020346006845
:1073200018B110F8075CA542F8D9C8601A6030BDE2
:107330000F2A2DE9F84316461F4627D810F00303FD
:107340001EBF0439C918C3F10402A1F1280118BFF6
:10735000801831F0030319D4C418EFF3108972B602
:107360002049012251F822500FFA82F88DB10132E2
:10737000212AF7D189F310886FF08A082FE00221C3
:107380002046FFF7CBFE89F3108828E06FF0150840
:1073900025E041F822400246A4F80680DDE9080114
:1073A00000F058F8104A20604FF0FF33C4E9083568
:1073B0001368667101331360FB07C4E90355C4E920
:1073C00005552571E561DAD40C212046FFF7A6FEAC
:1073D0007A07D8D489F310883046FFF7DDFE40469F
:1073E000BDE8F88348130020041300200C4B0D4A1D
:1073F00010B540219A600C4CE02283F82220D97706
:107400000022A0180132302A80F80013F9D11A693D
:1074100042F010021A615A6942F400725A6110BDBA
:1074200000ED00E00060020000E100E070470000B5
:10743000BFF34F8F0549064BCA6802F4E06213435D
:10744000CB60BFF34F8F00BFFDE700BF00ED00E052
:107450000400FA051A4422F0030210B54FF0773405
:1074600042F8044C540758BF4FF08834A2F104038B
:107470005CBF42F8084CA2F108034FF0807243E968
:1074800002020D4A43F80C2C0020032243E9052098
:1074900043F8201C01220224194643E907246FF017
:1074A000020241F8242D0B2241F8042D013A032A4F
:1074B000FAD1A3F1440010BDD57102000023E1EE22
:1074C000103AEFF3148323F0040383F31488BFF31B
:1074D0006F8FEFF3108362B6024B4FF080525A6009
:1074E000BFF36F8F00ED00E0114910B50C6872B664
:1074F000FFF7DAFD62B6A04208BF10BD2146BDE825
:10750000104049B1EFF309821EF0100F08BF22EDC1
:10751000108A22E9F04F0A600068B0E8F04F1EF0D0
:10752000100F08BFB0EC108A80F309887047000084
:10753000FC120020024B4FF080525A60704700BF8F
:1075400000ED00E030BF62B6BFF36F8F72B67047D8
:1075500008B502490620FFF735FB00BFAE37030030
:1075600008B502490720FFF72DFB00BFBA3703001B
:1075700008B502490520FFF725FB00BFCD37030002
:1075800008B502490820FFF71DFB00BFE0370300E4
:1075900008B502490920FFF715FB00BFF2370300C9
:1075A00008B502490A20FFF70DFB00BF06380300AB
:1075B00008B502490B20FFF705FB00BF1838030090
:1075C00070477047174A08B5D2F8883043F4700303
:1075D000C2F88830FFF7F4FF134B1448DA1C121A74
:1075E000C11E22F00302994288BF002210490AF00E
:1075F000C1F9104B1048DA1C121AC11E22F0030206
:10760000994288BF002200210AF0CAFAFFF7D9FF89
:1076100000F082F8FFF774FA0AF056F9BDE8084066
:10762000FFF7AEBA00ED00E0BC020020000200202F
:10763000BC4A0300FC410020C0020020704700004B
:10764000EFF3108172B6094A13680133012B1360FE
:1076500009D14FF080420020C2F800011360D2F837
:107660000031002BFBD081F310887047CC13002031
:10767000EFF3108172B6064A1368013B13601BB921
:107680004FF0804301225A6081F31088704700BF99
:10769000CC130020114A38B51378EBB94FF0804471
:1076A000C4F81835C4F804310123A360D4F80431B8
:1076B000002BFBD001251570FFF7C2FF0023C4F893
:1076C0000C314FF080422561D2F80C31002BFBD0F9
:1076D000BDE83840FFF7CCBF38BD00BFD013002055
:1076E0004FF0704393F8E02F062A12D1D3F8E40F3D
:1076F00010F00F000DD1D3F8E82F02F0F002302A7D
:1077000008D1D3F8EC3F13F0F00F0CBF012000209C
:10771000704700207047000008B5FFF7E1FF30B167
:10772000134AD2F8FC3023F08073C2F8FC30FFF724
:10773000D7FF20B14FF080430322C3F8A025FFF705
:10774000CFFF30B14FF080430022C3F80C21C3F8C3
:107750001021FFF773FF074B0122C3F84025FFF705
:1077600045FEFFF727FABDE8084006F067BA00BFFC
:1077700000ED00E000E00140044B1B682BB1044B1E
:107780004FF080525A60BFF36F8F70470013002094
:1077900000ED00E00B4B98420DD0B0F1402F0CD023
:1077A00003F5003398420AD003F5404398420CBFDA
:1077B00003200020704700207047012070470220FE
:1077C000704700BF0030004008B5FFF7E3FF0A4BE9
:1077D00043F82010094B43F82020094B1B56002B7F
:1077E00008DB0122590903F01F0302FA03F3054ADB
:1077F00042F8213008BD00BFD4130020E41300205C
:107800002638030000E100E0FFF7DEBF70B5FFF7A8
:10781000C1FF044607480E4600EB840001211546CF
:10782000FFF7CAFB044B43F82460044B43F8245091
:1078300070BD00BFF4130020D4130020E413002017
:10784000FFF7E4BF08B5FFF7A5FF034B03EB80008C
:10785000BDE80840FFF7E4BBF4130020FFF7F2BFD8
:1078600008B5044A044B10681B689847BDE80840F7
:10787000FFF782BFE4130020D413002008B5044AA8
:10788000044B50685B689847BDE80840FFF774BF39
:10789000E4130020D413002008B5044A044B906878
:1078A0009B689847BDE80840FFF766BFE4130020D7
:1078B000D413002008B5044A044BD068DB6898470D
:1078C000BDE80840FFF758BFE4130020D4130020A0
:1078D000102A0BD100F8012B4B1E0F3113F8012F8A
:1078E00000F8012B9942F9D1012070476FF0020096
:1078F000704700002DE9F0430A23C1F8F0304378C7
:107900000278354C354D1B0443EA0263C27853407C
:10791000827843EA02230B60437902791B0443EA2D
:107920000263C2795340827943EA02234B60437A6F
:10793000027A1B0443EA0263C27A5340827A43EA22
:1079400002238B60437B027B1B0443EA0263C27BFE
:107950005340827B224843EA0223CB6001F1900628
:10796000CA6854F8048BC2F307434FEA126E50F80A
:1079700023C050F82EE0C2F30723CEF3072E50F8B1
:107980002370D3B205EA0C2C50F82330C3F30F2335
:1079900003F47F490B6888EA030889EA080383EA4D
:1079A0000E030CF07F4C05EA072707F47F0783EAF4
:1079B0000C037B404F680B617B408F684B617B40C1
:1079C0008B61B14283EA0203CB6101D01031C7E77A
:1079D0000020BDE8F08300BF404103000000FFFF2E
:1079E000303D03002DE9F04FCDB0894601300FA99D
:1079F0001446FFF77FFF0028C0F2F2814B9F0FAEC5
:107A00000196BD0006EB071332460021681A814239
:107A100002F11002A3F11003C0F23681C049C1483F
:107A20004FF0010C0FAB674500F348810F9B99F8AD
:107A300003E099F8078099F80BC099F80F5099F86E
:107A40000E208EEA030E99F800308EEA036E99F844
:107A500001308EEA034E99F802308EEA032E109B15
:107A600088EA030899F8043088EA036899F8053031
:107A700088EA034899F8063088EA0328119B8CEAC3
:107A8000030C99F808308CEA036C99F809308CEAF9
:107A9000034C99F80A308CEA032C129B5D4099F84C
:107AA0000C3085EA036599F80D3085EA03459D4B56
:107AB00085EA02257F100199019E0969B6694FEA9E
:107AC0001E625FFA85F953F8222053F829904A4044
:107AD0005FFA88F1013F53F8211082EA3162C5F361
:107AE000074153F8211082EA3122CCF3072153F8E1
:107AF000211082EA31424FEA18614FEA126B53F8C3
:107B000021000199496981EA00015FFA8CF053F87C
:107B1000200081EA3061CEF3074053F8200081EA6B
:107B20003021C5F307204FEA156553F8200053F8BC
:107B3000255081EA30414FEA1C60CCF3074C53F8E2
:107B4000200053F82CC080EA060080EA3960C8F3B0
:107B50000749019E53F82990F66980EA3920CEF34F
:107B600007295FFA8EFE85EA060553F82EE0019E8E
:107B700053F82990C8F3072885EA3E6585EA3C2535
:107B800053F828C0D6F820E085EA3C45C2F3074602
:107B900080EA39400296C5F307260396C6B20496DA
:107BA000019E766A05964FEA10660696C1F307466F
:107BB0000796C2F30726D2B208960D92EEB2019A4A
:107BC0000996019E02F12002B66A0192C0F30729CC
:107BD0005FFA81F84FEA116CC0F30740C1F3072147
:107BE000C5F3074AD2680A964FEA15650B900C91C7
:107BF00000F09A8053F82B0053F82810059E53F894
:107C000025508EEA000E53F82A008EEA316E53F8A2
:107C100029108EEA302E8EEA314E049953F82C004A
:107C200053F82110464086EA316002990A9E53F8C3
:107C3000211080EA3120039953F8211080EA31485D
:107C40000698099953F8200053F82110464086EA17
:107C50003160079953F8211080EA312C089953F8C4
:107C600021108CEA314C0D9955400B9A53F8211094
:107C700053F8222085EA316585EA32250C9A53F8BB
:107C8000222085EA324516E752F8100C1E6942F8A8
:107C9000106C186152F80C0C5E6942F80C6C58615B
:107CA00052F8080C9E6942F8086C986152F8040C6E
:107CB000DE6942F8046C0431D861A7E610331D1F59
:107CC00003F10C0B55F8042F4FEA126EAB4551F837
:107CD0002EA0C2F3074ECAF3072A51F82E8050F89F
:107CE0002AA0C2F3072ED2B251F82EE051F822207A
:107CF000C2F30722C8F3072850F8222050F8288042
:107D0000CEF3072E8AEA326250F82EE082EA382259
:107D100082EA3E422A60D5D10CF1010C83E600BF15
:107D2000303D0300303803002F4B13F8087013F870
:107D30000A0013F8096013F80B1047EA062600043E
:107D400040EA016086EA0E064640310E2170310C91
:107D5000049F6170E670310A039E0298DF5D9E5DAC
:107D6000185CA17047EA062613F80C10059F000462
:107D700040EA01607E404640310E2171310C617154
:107D8000310AA1710699E671585C07995E5C089901
:107D90005F5C0999595C41EA07210A9F360446EA6B
:107DA000006079404140080E2072080C6072080A99
:107DB000A072E172585D0C9D0B995E5D0D9D595C42
:107DC0005B5D43EA06235A400B0443EA00635A40D2
:107DD000130E2373130C6373130AA373E27301204E
:107DE0004DB0BDE8F08F00BF303C03002DE9F04FEF
:107DF000CBB00F4601300DA91646FFF77BFD0028DA
:107E0000C0F29681F8780D9BFC79FD7A97F80FB057
:107E100097F80CE058403B7880EA03607B7880EA72
:107E20000340BB7880EA03200E9B5C403B7984EAE8
:107E300003647B7984EA0344BB7984EA03240F9BBF
:107E40005D403B7A85EA03657B7A85EA0345BB7A28
:107E500085EA0325109B8BEA030B8BEA0E6B97F8E0
:107E60000DE0499B8BEA0E4B97F80EE04FEA630C4E
:107E70000DAFB14B01978BEA0E2B0199019F096958
:107E8000FF69020EBCF1010C53F8222082EA010EB8
:107E90005FFA8BF253F822208EEA326EC4F3074267
:107EA00053F822208EEA322EC5F3072253F82220FF
:107EB0008EEA324E4FEA146253F82210019A526948
:107EC00081EA0208C2B253F8222088EA3268C5F378
:107ED000074253F8222088EA3228CBF3072253F8CE
:107EE000222088EA32484FEA1562EDB253F8221098
:107EF000019A53F82550926982EA0102E1B2C4F373
:107F0000072453F8211082EA3162CBF307414FEA8C
:107F10001B6B53F8211082EA3122C0F30721C0F312
:107F2000074053F8211053F8200082EA314253F8F9
:107F30002B1081EA070181EA356181EA302153F88B
:107F40002400019F81EA30414FEA1E604FEA186B1E
:107F500053F82040D7F820A053F82B700297C8F3AD
:107F60000740C2F3074B53F820505FFA81F9C2F380
:107F7000072053F8299053F8200053F82B700397EB
:107F8000C1F3072B53F82B7004975FFA8EFB53F85D
:107F90002B700597019F4FEA126B7F6A069753F883
:107FA0002B700797C1F3074B4FEA116153F82B7001
:107FB00053F821100897CEF3072B0B9153F82B7031
:107FC000019909975FFA88FBCEF3074E53F82B709F
:107FD0000A9701F12001019F53F82EB00191C8F3D7
:107FE0000728D2B2BF6A53F828E053F82220C968A4
:107FF00027D084EA0A0484EA396484EA352484EACE
:108000003040069D029C6C40059D84EA3564039DCA
:1080100084EA3524049D84EA3544079D7D400A9F07
:1080200085EA3765089F85EA3725099F85EA374540
:108030000B9F4F4087EA326282EA3B2B8BEA3E4B32
:108040001BE73E4BC0F30F2000F47F4003EA0424FB
:1080500003EA0525C9F3072940EA090905F47F0564
:1080600004F07F442C4389EA0A0989EA04094FEAAB
:10807000196030704FEA194070704FEA1920B070E3
:10808000049886F80390040A059804F47F44C0F32A
:1080900007202043069C6040029C03EA042404F06D
:1080A0007F45039C03EA042404F47F042C436040CE
:1080B000040E3471040C7471F071040A0998B471DF
:1080C000050A0A98079C4FEA1E2EC0F3072005F404
:1080D0007F450EF47F4EC2F3072205434EEA0202AB
:1080E00038466840514003EA04250B9A089C03EA8D
:1080F000022203EA042403EA0B2305F07F4504F47B
:108100007F0402F07F4203F47F031343254345407D
:108110005940280E0B0E30723373280C0B0C707202
:108120007373280A0B0AB072F572B373F1730120EE
:108130004BB0BDE8F08F00BF303D03000000FFFFF3
:1081400010B40C4640F8044B646811461A462346A6
:108150005DF8044B184750F8043B9B68184703F040
:1081600070BB036802463BB11868834219BF0268BE
:108170001A6000231360704718467047EFF31082AF
:1081800072B60B6833B903685BB11B680B60036898
:1081900019600160406882F3108820B10121FFF767
:1081A00091B80960F5E7704708B5EFF3108172B632
:1081B000FFF7D7FF81F3108808B10023036008BDE3
:1081C00038B1054B0A0901F00F019A5C5B5C027043
:1081D00043700220704700BF68410300F8B50D46A8
:1081E0005700064610B18C18A54201D13846F8BD9B
:1081F000304615F8011BFFF7E3FF0644F4E7F8B536
:108200000E465700054610B18C18B44201D13846CD
:10821000F8BD284614F8011DFFF7D2FF0544F4E726
:1082200003461A46013311780029FAD1101A704713
:10823000037803F01F0309330421C82201394FEAF0
:1082400052020ED140781B0100F01F005BB20930D2
:108250000421C82201394FEA520207D11843C0B2A3
:108260007047934224BF9B1ADBB2E7E7904224BFDA
:10827000801AC0B2EEE7F8B5064608460C46FFF78E
:10828000CFFFC3070FD4450826B1013E04EB4507D5
:10829000BC4201D12846F8BD2046FFF7C9FF023491
:1082A00006F8010FF4E70025F4E707B50422019171
:1082B0000DEB0201FFF7A3FF03B05DF804FB000024
:1082C0000E4B994230B517D80A2301221C468B4227
:1082D0000FD960B183180A25B1FBF5F405FB141022
:1082E000303003F8010D084609282146F4D810461D
:1082F00030BD63430132EAE70A22EAE7FFC99A3B4D
:10830000002910B50B464FEAD17404DA10B12D23C1
:1083100000F8013B4B421946FFF7D2FF204410BD45
:108320002DE9FF41161E05460F4604D104B0BDE8F5
:10833000F041FFF7E5BF0CDDFFF7E2FF044625B192
:1083400032463021281809F02BFCA01904B0BDE8F2
:10835000F08181EAE171A1EBE77101A8FFF7B0FFBD
:10836000002FC6F10008044604DA0DB12D232B704E
:10837000012700E00027A0450ADBC6F10108A8EBB1
:10838000040825B142463021E81909F009FC4744A8
:1083900025B1224601A9E81909F0ECFA3C4435B1AF
:1083A00030192B195A1B824203D22E232B54601CE6
:1083B000CCE713F8012C03F80129F3E7FFF7B0BF6E
:1083C00013B5074B01911B680446986809F0DCF867
:1083D0000199204602B0BDE8104006F0C5B900BFC3
:1083E0005402002007B5014601A8FFF7E9FE02216B
:1083F00001A8FFF7E5FF03B05DF804FB07B50146F0
:108400006846FFF752FF08216846FFF7D9FF03B01F
:108410005DF804FB10B50446FFF702FF0146204655
:10842000BDE81040FFF7CCBF90B1D9B1002340EABE
:108430000102D2070ED5C20710D5CA0710D5814256
:108440003EBF024608461146091AF6D100FA03F16A
:1084500008467047400849080133E8E74008EAE762
:108460004908EAE70146F3E72DE9F8430C460746D9
:10847000114620461546FFF7D7FF84423BD3B5FB94
:10848000F0F9B4FBF0F00026B0FA80FE4FF000489F
:10849000CEF1200528FA0EF834463346B446CEF124
:1084A0005F0EDB184CEB0C0110EA080F18BF43F00D
:1084B00001034B4571F100028C464FEA44044FEA38
:1084C000580811D3B3EB090361F1000C44F0010427
:1084D000002C0CDA53EA0C0300D00134C5F120055E
:1084E0003C603D71BDE8F883002CF1D1013D0136BF
:1084F0007645D6D3EEE700252C46EFE7F8B50B4DD1
:1085000006460F462846114610221C4602F034FA51
:108510003146074E3A46284602F046FA314628468A
:1085200002F080FA33682360F8BD00BF1C140020FD
:1085300058140020F8B50B4D0F4611460646496EFB
:10854000102228461C4602F017FA3146064E3A46DB
:10855000284602F029FA3146284602F063FA3368C9
:108560002360F8BD1C140020581400207FB5154668
:1085700000211022044668461E4609F011FB4923DB
:108580008DF80030D5F8B830CDF8063020462B688D
:10859000CDF80A3002F07BFEE96D8DF80F00102255
:1085A0000C480C4D02F0E8F90A481022694602F026
:1085B000FBF944B9084C0748214602F033FA236816
:1085C000336004B070BDD4E90112284602F0ECF922
:1085D0002468EEE71C14002058140020F0B585B084
:1085E0000D46064600211746684610221C4609F033
:1085F000D7FA49238DF8003001238DF80530204645
:108600003368CDF80630CDF80A50ADF8017002F0AD
:108610003EFE0A998DF80F0010220D480C4D02F015
:10862000ABF90B481022694602F0BEF94CB9094C6F
:108630000748214602F0F6F922680B9B1A6005B044
:10864000F0BDD4E90112284602F0AEF92468EDE746
:108650001C140020581400202DE9F04389B08846EE
:10866000174600211022054668461E4609F098FA72
:10867000102200210DEB020009F092FA2249109A13
:10868000096822481023FFF75BFD012300241E40E8
:108690008DF81030D8F80030DFF870808DF8114078
:1086A0008DF812408DF813408DF814408DF8156048
:1086B000CDF81630CDF81A708DF81E400DBB09B0FC
:1086C000BDE8F08313F00F096F6808D11B11013367
:1086D0006A4604A940468DF81F30FFF73CFD09F1BA
:1086E00020030DEB0309BB5D19F8202C5340BB554B
:1086F0000136AA68B24204EB0603E3D82D681C4693
:10870000DCE70026F5E700BF2C3803000414002046
:1087100070B50C460C491646096802461D460B48C2
:108720001023FFF70DFD09482A462146FFF713FDE8
:1087300046B105F1100204F110010448BDE8704093
:10874000FFF709BD70BD00BF2C38030004140020E2
:1087500030B585B01C460023CDE902330093036891
:10876000CDF801308388114DADF805300B881049E4
:10877000626EADF80730096810232846FFF7E0FC69
:10878000E26D0123694628468DF80030FFF7E3FCCF
:108790000223A26D8DF8003069462846FFF7DBFC06
:1087A000E36DC4E9183305B030BD00BF04140020E8
:1087B0002C380300036870B501330360C36B1546A2
:1087C00000224261C0F8B020DA0786B004460E46A7
:1087D0000CD5012223F001038DF80E20C3634FF660
:1087E0008C7203A9ADF80C2001F011FDA36802936F
:1087F0000023A36001A920468DF80660ADF804505F
:1088000001F07DFD06B070BD70B5837F856803F013
:108810000F0386B0093300F11902CDE90123134497
:1088200000210493042304460095039105932E46EA
:108830002D68002DFBD1204600F078FD049B84F8C4
:10884000D300224629466846FFF790FE03AB33600B
:1088500094F8D33094F8D2201A33694654F8233070
:10886000204600F087FC356006B070BD030C024660
:108870001B0410B543EA010002F580444FF6FE7375
:108880009C4205D992B291423CBF00F57F40FF3037
:1088900010BDF8B50E460746154600212822184699
:1088A0001C4609F07DF9D6F80100D7F8B8106660CB
:1088B0002A1F8842324406F1080302D04FF0FF30ED
:1088C000F8BD757915F00F0011D0C4E904300344E8
:1088D0009A42F3D913F8011B84F8241029BB00280D
:1088E000ECD19A4282BFD21AE361226201E09A423D
:1088F000F0D87F68F1883846FFF7B8FF8742DDD8A7
:1089000007F580478742D9D3206033785B095A1F27
:10891000534253412372C5F34013C5F3001584F845
:10892000253084F826500020CAE7DF29D9D9C5E7C9
:108930007FB51E4600F11903002A02934FF01C0375
:108940008DF80C3014BF0423022304465B014376E8
:1089500022692368D0F8B800A4F81F30003A18BF85
:10896000012208235201C4F81A00A2770D462046BE
:108970000DEB03018DF80D3000F0BCFAA27F9DF8DD
:108980000D3022F00F0200F00F000243A2775A1CB4
:108990008DF80D20029AD65466B1A36D009321463E
:1089A000284651F8B82B0023FFF756FE9DF80D001E
:1089B00004B070BD636EF1E7FFF726BF1FB590F8F6
:1089C0003830044663B94FF68C72C0F8B03001A954
:1089D0008DF80630ADF8042001F019FC04B010BD8C
:1089E000C1684B1EC36051B9426932B16FF0730266
:1089F00004B0BDE81040FFF7DDBE0121F8E70749EC
:108A0000002005F0C3FA00F5742101F5107120462D
:108A100004B0BDE8104001F01DBC00BF80841E0002
:108A20002DE9F0410B2A90B004460D46164617D9A1
:108A3000036E002203AFCDE90621CDE90037A6F190
:108A40000408CDF8208006ABC988681CFFF7C6FD76
:108A500055F80830039A9A4205D02046FFF7AEFF3A
:108A600010B0BDE8F08106AB324629462046FFF73C
:108A700010FF0028F1DB0A9D05B109AD0D9B63B124
:108A80009DF83C30002B3BD0A36D0799CA8800931A
:108A9000012319440CA8FFF7DFFD069B636063699F
:108AA0001BB19DF83D30002BD7D09DF820300BB185
:108AB0000123236125B1D5E90112204600F0F0F928
:108AC000002211462046FFF775FE9DF83E3033B177
:108AD0000523394620468DF80C3001F00FFC9DF837
:108AE0003C30002BBCD09DF820208DF80C2039465E
:108AF0000CAA204604928DF8143001F0CDFBAFE7AC
:108B0000636E0CADC1E72DE9F04790F838300446AC
:108B10000E46154653B94FF680732B80B5F90030D9
:108B2000012B1CBF0023C4F8B0300CE0D0F8B0908B
:108B3000D1F800800123C0F8B030B9F1000F04D0A3
:108B40004FF6F0731380BDE8F0870B79013BDBB281
:108B5000DE2B02D94FF6B373DFE7487900F02EFC25
:108B600010B94FF6EA73D8E74946204600F0C2F93B
:108B70000746404602F08BFB00F1080370791F4462
:108B800000F013FCB84202D24FF68673C5E796F8A0
:108B900008A03379BAFA8AF77F093A464146204657
:108BA000FFF7C6FEC4E90497BAF1000F0AD0237E8E
:108BB000C4E90283737984F8D2302046FFF724FE9B
:108BC0000123AAE70523F3E74B78012B9EBFC36B74
:108BD00023F00203C36370471FB54B788DF808304C
:108BE0008B788DF80930044601238DF8063001A9F1
:108BF0000023ADF8043001F00AFBE36B23F001031E
:108C0000E36304B010BD1FB50023019300F1190305
:108C1000029317230446039300F088FB84F8D300E3
:108C20001A3094F8D22054F8203001A9204600F0E0
:108C3000A1FA04B010BD2DE9F04190F838308EB0A3
:108C400004460D4616467BB16FF04C020023C4F873
:108C5000B03003A920468DF80E30ADF80C2001F09D
:108C6000D6FA0EB0BDE8F081112A01D0212AEBD14D
:108C7000771E102F05F1010894BF0022012206ABD8
:108C8000606E4146FFF744FD043E3A4606A9404661
:108C900008F070FE01AB224631462846FFF74AFC39
:108CA000AB59019A9A42CFD12346002204F14801E0
:108CB0004046FFF74DFD0023AA880293AB79ADF83B
:108CC00008208DF80A30029B2364D5F80730C4F8D9
:108CD000B830EB7A84F8C0302B7B012B38BF0123EE
:108CE000102F84F8C13003D909A9204600F03BFBBE
:108CF000022384F838300022A8E7000090F84A30B8
:108D00005A0913F01F030AD12AB1012A0DD0094BC9
:108D10004364182303E0084B436401221346013BDC
:108D200043EA421380F84A307047034B43640222FF
:108D30000A23F4E760C08400005125022DE9F047C2
:108D40000B7C86B004461546042B00F28480DFE8D5
:108D500003F0036EA373940090F8383013B14FF60C
:108D6000EA7307E0D0F8B0300122C0F8B0201BB1A0
:108D70004FF6F0732B806EE0436C002B02DA4FF657
:108D80007C73F7E78B68426E03F1100053F8046BB5
:108D900042F8046B8342F9D12046D1E900788E680D
:108DA00091F80C9001F0B1FA036804AAD3F814A06A
:108DB00063210423D047BDF81030A4F848300423C1
:108DC000C4F8BC300023637684F8D290D8F8000051
:108DD000D8F8041002AB03C33868796803C302AB48
:108DE00003CBC4F81A00C4F81E1003CBB4F8483003
:108DF000ADF80430BDF80430C4F822003246C4F89F
:108E000026106385132104F12C0304F11900FFF7E8
:108E100075FB05F097F8C0F31401204601F01AFA2B
:108E2000636CD4F8AC209B1A63640123A2E7C36B84
:108E300043F00103C363F8E74FF6EA732B800B7826
:108E4000012B0BD0022B10D02BB90A79022A02D0A9
:108E50002B8080F8382006B0BDE8F08700232B80F7
:108E60004B681B68C0F8B830F5E7097900232B8000
:108E700006B0BDE8F04700F0A5B80B783BB1012B78
:108E80007FF46DAF0023B8342B80AC60E3E72B8018
:108E900090F838302B72DEE700F09EF8002369E787
:108EA0002DE9F047824616460F4679B172B100238C
:108EB000DFF83880DFF838901D46B34206D2FA5CFE
:108EC000022A07EB030103D00B2A0BD0BDE8F08781
:108ED0000335EDB242465C19B442F7D8504690478C
:108EE000E3B2EAE70235EDB24A46F4E7D98B020075
:108EF000C98B0200C36B13F0010310B507D029B171
:108F00004B790A685C1C4C710224D4540123C26B57
:108F100092070DD559B14A790868541C4C710B243D
:108F200084544A790868541C4C71012181540233DD
:108F3000D8B210BD13B501F0E8F901238DF8073060
:108F400002681A2194690DF10702A04702B010BD12
:108F50002DE9FF411D4606460191174601F0D5F95E
:108F6000019B04463BB10368D3F8188004230DEB42
:108F700003023521C0478DF80C5023683F21D3F8F8
:108F8000188003AA01232046C0473946304600F026
:108F900089F9A5B101238DF80D3022683821956932
:108FA00020460DF10D02A8471E23ADF80E302368B0
:108FB0000DF10E029D69642102232046A84704B0EA
:108FC000BDE8F08190F8C03001F00F0123F00F03ED
:108FD0000B4380F8C03070472DE9F341044601F09F
:108FE00094F901278DF8027003680DF102029D6962
:108FF0003D213B460646A84734238DF803303368AD
:109000000DF103029D6962213B463046A847336853
:109010000025D3F81880019504230DEB03023921B4
:109020003046C04794F8C030C4F8AC5023F00F036A
:10903000C4E90455C4E9005584F8C030257684F8A5
:109040003850E56384F8C1702764A4F8485020467E
:1090500000F056F902B0BDE8F08110B500F15803F8
:109060004165044602F1100152F8040B43F8040B69
:109070008A42F9D100232046C4F8B03084F84A303F
:10908000FFF73CFE2046BDE81040FFF7A5BF0000FB
:1090900037B5054601F039F9D5F8BC30012B044647
:1090A00003D10849284601F0D5F803238DF807308D
:1090B00023680DF107029D691A2101232046A84764
:1090C00003B030BD40420F00D0F8BC30022B03DCAF
:1090D000002B04DC07D07047042B02D07047FFF749
:1090E000D7BFFFF790BDFFF767BC000010B50123A5
:1090F000C0F8BC3090F838300446CBB190F8C1309D
:109100000C492046594301F0A5F894F8C01094F892
:10911000D200C1F3021100F0EDF801230246002154
:109120002046FFF715FF2046BDE81040FFF702BFBD
:109130000523E5E740420F00D0F8BC30012B10B505
:10914000044606D0022B0FD02046BDE81040FFF7A2
:10915000F1BE90F8C020064902F00F02FFF7F8FEBA
:109160000223C4F8BC30EFE7FFF728FC0023F8E740
:1091700008E6D3332DE9F0478AB005460E46174678
:10918000019301F0C2F8032304460199C5F8BC30ED
:109190003A4600232846FFF7DBFE23680DF10F0255
:1091A000D3F814803D2101232046C047304602F009
:1091B0006EF8294A9DF80F9080460DF1100C02F1CF
:1091C000180E10685168634603C3083272459C4606
:1091D000F7D1C7F10F0E4FF0010C0CFA0EF293000D
:1091E000052F03EBC20328BF052703EB920C0AAB44
:1091F00003EB870109F1040711F8170C11F8183C6B
:1092000080450ED27B43083303FA0EF36344C5F85E
:10921000AC30236831461B68204698470AB0BDE849
:10922000F087A8EB000011F8168C11F8151C4144CA
:109230005A1CB0FBF1F95FFA89FA01FB190002EB45
:109240004A02C0B208F1FF384045C8BF01327A4334
:1092500002F10803D8E700BF7841030013B50446C4
:10926000CDE90021FFF766FE0023C4F8BC3020469C
:1092700001F00AF80199009A0B785B09032B09D0D9
:10928000052B07D0012B0BD1204602B0BDE81040C2
:10929000FFF7D1BC204602B0BDE81040FFF7C0BBCD
:1092A00002B010BD37B50D4601F02FF8052D04466C
:1092B00019D80E4B5B5D8DF806300D4B5B5D8DF85C
:1092C000073003680DF106029D693B210123A84781
:1092D00023680DF107029D693C2101232046A84720
:1092E000002003B030BD6FF01500FAE79041030095
:1092F00096410300884286BF401AC0B200207047E2
:109300000723A0F8A830084B836603F5433303F521
:10931000A073C36603F5433303F5A07303673422D8
:109320000021743008F03CBCA027BE3338B5044699
:10933000B0F8A800FDF70FFC0146002004F026FE5F
:109340000125C3B2B4F8A81000222B44B1FA81F071
:10935000C0F11F00C0B2013205FA00F4934221EAC5
:109360000401F3DC38BDF7B5032300F174044FF0BA
:10937000000C642701260D888A78CDF804C0ADF86A
:1093800004508DF80620019AB0F8A8507A4344F8AA
:10939000042B06FA03F201332A43082BA0F8A82075
:1093A00001F10301E7D103B0F0BD022804D903287D
:1093B0000CBF7B20FA2070473B20704705288CBFEC
:1093C00000200120704700B589B006930A9BADF8D4
:1093D0001C30BDF82C308DF81410ADF81620ADF807
:1093E0000630024605AB03A901A80293FDF792FDE2
:1093F000049809B05DF804FB07B501910146684681
:10940000ADF80220FDF76AFD03B05DF804FBF7B587
:109410000446019117461E4601F030F80199204696
:1094200001F085F80199054640B1204601F07AF82F
:10943000691E0446304601F025F924B901F03AF8D6
:10944000284603B0F0BDB4F908003A463146FFF7AC
:10945000D3FF002803DC0521304601F081F82046C7
:1094600001F077F80446E8E713B590F81932043BA9
:10947000012B0FD8806803680DF106025C69052195
:109480000223A047BDF80630082B14BF022003209A
:1094900002B010BD0220FBE7A0F5AE708068036843
:1094A0001B69184770B585680446FFF7DDFF2B6818
:1094B00001465E6904F5B87208232846B04710F1EA
:1094C000860F09D0D4F85031002843F00103C4F8C6
:1094D0005031C8BF84F8780170BD0000002A70B513
:1094E00006460D461EDA12F1100F06D05242B3683E
:1094F0001B68596851B1114608E063B100F07EFF66
:1095000004468CB1094808F021FD0C212846BDE82D
:10951000704001F025B800F03DFF0446304600F0F1
:1095200051FFEEE70022E2E770BD00BF9C4103005F
:10953000D0F86C3170B504460D46164633B113466B
:10954000BDE870406FF00F02FFF7C8BF62B9D0F8F6
:109550007C314BB100F032F82946204600F01AFF6A
:1095600028B3154808F0F2FCA3681B685B681BB9B8
:109570000121284601F086F8636829465B68204689
:109580009847A3681B685B68024603B180B1334605
:1095900029462046FFF7A2FF15B12D68002DFBD10B
:1095A0002EB1D4F8503143F40033C4F8503170BDBB
:1095B000C4F86C51F0E700BFD0410300D0F87C3113
:1095C00010B504467BB11A685968C0F87C210022A6
:1095D0001A605A6039B10122FFF7AAFF2046BDE8A0
:1095E000104000F0EFBE10BD38B5846839B904F5FD
:1095F000AE7104F5AA70BDE83840FEF7BFBDA368A0
:109600001B685B6823B1042902D104F5B271F0E74D
:10961000052904D8032905D8022908D038BD063900
:109620000129FBD82046BDE83840FFF7C7BF636873
:1096300020469B68984705462046FFF7BFFF002D50
:10964000ECD0084995F90E002B4640F20122FFF7B5
:10965000DEFE01460028E1D12846BDE8384000F092
:109660007FBF00BF0000FFFF10B5A0F5B27400215E
:10967000A06803685B6898470023D4F86C11C4F8AD
:109680006C31D4F85031024623F40030C4F8500154
:10969000C3F340432046BDE81040FFF71FBF000062
:1096A00070B58AB000240593109B43600F9B8360C4
:1096B000C0E90344CDE907040D4608A80121164678
:1096C000FDF77AFC0E9B029307AB0193074B059ABB
:1096D0000093314623462846FDF72AFE012108A8BB
:1096E000FDF76AFC09980AB070BD00BF0D97020033
:1096F00020B1436813B10C30FDF7A6BA704720B112
:10970000436813B10C30FDF7A2BA70472DE9FF4151
:109710000468DFF814810546002640F20523204640
:10972000CDE90066ADF80230FFF7E2FFB8F800308F
:10973000A4F81A32384BC4F86031384BC4F8683199
:10974000374B1B68C4F85831102104F5CC70C4F8AD
:109750005461FDF725FC636820461B689847A860A4
:10976000281DFDF75DFCAA68B24204F5AA7749DB23
:109770002046FFF7C4FF41F233263846FEF714FDBA
:109780000546002839D102A8FDF704FC002804DCB6
:1097900048F20100FDF786FDEFE7BDF80A30B3F5AA
:1097A000017F27D00FD840F20222934211D040F21D
:1097B0000322934213D063685B69002BDDD002A9BA
:1097C00020469847D9E7B342F5D12046FFF7F6FE89
:1097D000D3E703992A462046FFF7AAFECDE7636840
:1097E0001B690399204698476946019002A8FDF736
:1097F000AFFBC2E76368DB68F3E74368002BBCD0CC
:109800009847BAE7B8F80010064809B208F0ECFA31
:10981000304604B0BDE8F0819994020069960200D8
:10982000FC12002008420300F812002070B50C461C
:109830000546FFF75DFF217807290AD040290CD1A2
:10984000636800221A7001242846FFF758FF20465B
:1098500070BD636895F81822F4E7A8686268036829
:109860005E692389B0470446EEE770B50D460446AD
:10987000FFF73EFF2978072911D01B29A0682B8903
:1098800017D0026896696A68B047061E0CDD2B780F
:10989000023B032B08D82046FFF704FE04E06B6868
:1098A0001B7884F8183201262046FFF728FF30463F
:1098B00070BD6A68D4F850111578012D0CBF41F4C1
:1098C000803121F48031C4F8501101688D691B2169
:1098D000A847E8E737B5114B04468068C0E9013472
:1098E0000368DB689847002815DB204602F040FA41
:1098F000A06803680DF106025D6928210223A847CC
:10990000BDF8063084F819322046FFF7CBFD40231E
:1099100084F81832002003B030BD00BFE995020082
:109920002DE9F041174603F108020A440E460021D2
:1099300080461C4608464FF0FF3300F02BFF0546DB
:10994000F0B140680022428082804FF400420670ED
:109950004470C280B8F1000F05D026B132464146AE
:10996000083008F007F85FB154B168684378A34243
:1099700006D10378083322463946184407F0FAFF27
:109980002846BDE8F081002100F0EABD2DE9F04154
:10999000876890B07E8C7B8AADF81830804606F0E0
:1099A00028060D46002930D091F90E3001334FD1F1
:1099B00049680B79D80654BF46F0010646F01106F7
:1099C00013F0C00F05BF0B784878234B08330CBF4A
:1099D0005B18022032071BD507F11601082297F801
:1099E0001EC00CF10104BC77CDE9036C0AACBDF8D4
:1099F00018600090ADF80860ADF80460204601F0F2
:109A00006FF870B92846FFF7BEFF6FF015041BE032
:109A10000A780AB10831E2E798F8782108F5B871B8
:109A2000DDE72B68CDE907343B68C0B21B680990BD
:109A300007A938469847D8F808301B685B68044681
:109A400013B92846FFF79FFF204610B0BDE8F0810C
:109A50006FF04C04F8E700BFD04203002DE9F04F4F
:109A6000866833689C6800231A4689B00546194603
:109A70003046A0470228024640F3AA800023019006
:109A80001946184600F086FE3368019A044640B92C
:109A90009D68014603463046A847204609B0BDE808
:109AA000F08F9F68416803AB3046B847071E04DC5F
:109AB0002046FFF768FF0024EFE7D5F85031D903BF
:109AC0001ED500231A4619461846FFF729FF0646F9
:109AD0000028EDD043689DF80E205A71BDF80C2087
:109AE000DA800DB1B5F91A525D8023461A461B681B
:109AF000002BFBD116603946204600F0D9FECCE79A
:109B0000606801F071F881460028D1D08742CFD338
:109B1000D4F804B002AA06A9584601F0E2F802AA55
:109B2000824604A9584601F093F8BAF1000FBFDB52
:109B30000028BDDDC1B25FFA8AF306AA04A8FFF7C8
:109B4000EFFE80460028B3D0BAF1020F43680AD175
:109B50009DF818209DF819100A40FF2A02BF1A79B3
:109B600062F07F021A719BF80020D20603D51A79A1
:109B700042F010021A71D8F804309DF80E205A7184
:109B8000BDF80C20DA800DB1B5F91A525D8033684A
:109B900004F10E025D69192101233046A847002215
:109BA0004946204600F014FE20B92046FFF7EBFEA0
:109BB00040467EE786680146204600F001FD2346C8
:109BC0001A461B68002BFBD1BF1BC2F8008092E72E
:109BD00000287FF770AF33689C6800231946304631
:109BE000A04768E71FB5054C0294079C0194069CAA
:109BF0000094FFF755FD04B010BD00BF28420300DC
:109C000013B50C4C0823A38103F0EAFD204602F0B3
:109C10009BF804F1280003F01BFF074B0093074952
:109C2000019402234FF460720548FFF7DBFF02B096
:109C300010BD00BF041A002040420300841600201B
:109C40006814002013B5094C09492046002205F08C
:109C5000D7FC084B00930849019402234FF460722B
:109C6000064800F055FB02B010BD00BF981C002054
:109C7000544203004A420300FC1C00207C1A0020CE
:109C800008B5FFF7DFFFBDE80840FFF7B9BF0020C8
:109C9000704700B50B688BB01BBA019303238DF896
:109CA000243001238DF8143002AA01AB05A90693D4
:109CB000FFF744F80BB05DF804FB30B50D460978AA
:109CC000682989B005D864290DD8022937D0202900
:109CD00018D080686A6803685C692B89A44609B05B
:109CE000BDE830406047A1F166036A68022B03D8E3
:109CF000DFE803F0221F1A0090F84E3113700020A5
:109D000009B030BD042300246A4603A954308DF8FD
:109D10001C308DF80C40FFF711F89DF808306A6888
:109D20001B1B18BF0123E9E790F8483103F001033A
:109D3000E4E790F84A31E1E790F84931DEE70123A2
:109D400004246A46543003A98DF80C308DF81C4069
:109D5000FEF7F4FF029B6A681B681BBA136020467B
:109D6000CEE7F0B54B681A785E781A44012E0446A7
:109D7000177A91B008462DD100F022FC94F84831B2
:109D8000DB07054604F1540007D505AA0BA901908D
:109D90008DF83C60FEF7D2FF019894F84B318DF8B6
:109DA000253094F84D310895B3FA83F35B0903AA83
:109DB00008A98DF824708DF82830FEF7A4FEBDF9AF
:109DC0000C40002C03DA2146284600F0C9FB20464F
:109DD00011B0F0BD6FF01504F9E700004B8843F2B5
:109DE0005742934213B5044605D043F2584293427A
:109DF00007D002B010BD543002B0BDE81040FFF7EC
:109E000063B95430FEF77AFF064B07481B88074AB0
:109E100000681BB2009304F59C71054B07F022F912
:109E2000E7E700BFF8120020C049030080EE3600CB
:109E300000020020013900F1080311F8012F03F896
:109E4000012D8342F9D1704770B50C4688B00546A4
:109E5000FFF74EFC217853295AD845290FD81729E6
:109E60006DD02FD8022900F0CA8003296CD0A868D1
:109E7000626803689E692389B047044642E0A1F105
:109E800046030D2BF3D801A252F823F0559F020090
:109E9000559F02005D9F02006F9E0200759F0200A9
:109EA000979F0200759F0200759F0200759F020038
:109EB0006F9E0200279F02006F9E02006F9E0200AD
:109EC0000BA002002029D2D163681B7805F1540051
:109ED000002B75D095F84E41002C68D005F1440355
:109EE000039305F14C03049305F134030024059317
:109EF00095F84B318DF81C408DF818306A4603A94F
:109F0000FEF71CFF2846FFF7FAFB204608B070BD9D
:109F100065293BD06829AAD195F8483143F001035F
:109F200085F8483109E063681878FFF747FA002898
:109F30007CD063681B7885F84B310024E2E76368C6
:109F40001B7885F84D31F8E7616805F14400FFF7AB
:109F500071FFF2E7616805F14C00F8E7636805F10D
:109F6000340203F1100153F8040B42F8040B8B4246
:109F7000F9D1E2E7636805F1240203F1100153F817
:109F8000040B42F8040B8B42F9D1D6E763681B78C7
:109F900085F84E31D1E7636805F1140203F1100131
:109FA00053F8040B42F8040B8B42F9D1C5E70323A5
:109FB0008DF81C3001238DF80C408DF810309DE792
:109FC00002236A4603A98DF81C30FEF7B7FEBDF9DF
:109FD0000040002C96D1D5F85031A86823F0010339
:109FE000C5F850310921436898474FF48173A5F8AB
:109FF0004C310123C5F8484185F84E3182E761684C
:10A0000005F15400FFF745FE97E703238DF81C3058
:10A0100002238DF80C3063686A461B788DF8103087
:10A0200003A905F15400FEF789FE86E76FF01504D9
:10A0300068E700BF2DE9F04188B00446FFF74AFC0D
:10A04000051E6DDBA368384A5A600023C4F8483106
:10A050004FF48173A4F84C31012384F84E31334915
:10A060003348FEF708F933493348FEF704F933491A
:10A070003348FEF700F92D493248FEF7FCF8324923
:10A080003248FEF7F8F832493248FEF7F4F8284B28
:10A0900004F1140203F11001174653F8040B42F8BF
:10A0A000040B8B42F9D1294904F1440004F14C0816
:10A0B000FFF7C0FE20494046FFF7BCFE204B04F1ED
:10A0C000340203F1100153F8040B42F8040B8B42E5
:10A0D000F9D11C4B04F1240203F11001164653F888
:10A0E000040B42F8040B8B42F9D104F154001949D6
:10A0F0000390FFF7CEFD039804AA4146CDE904760C
:10A10000CDE90666FEF7A9FF134B14481B88144AD5
:10A1100000681BB2009304F59C71124B06F0A2FF7D
:10A12000284608B0BDE8F08169A10200644203003E
:10A130007C20002074420300A820002085420300F8
:10A14000B020002098200020A6420300902000208C
:10A150007C4203008C200020F8120020C04903003C
:10A1600080EE360000020020F0B5806885B041B96D
:10A1700000F5AE7100F5AA7005B0BDE8F040FDF73E
:10A18000FDBF042900F154043BD00B291AD0022949
:10A190002BD154F84C6C33689D6800231A4619463D
:10A1A0003046A8470023024601901946184600F0A1
:10A1B000F1FA3368019A9F68054648B9034601469B
:10A1C0003046B847204605B0BDE8F040FEF7B4BFC2
:10A1D000416803AB3046B847002808DC2846002118
:10A1E00000F0BEF92046FEF7A7FF05B0F0BDD5E9A7
:10A1F00001122046FFF732F80021284600F0B0F99E
:10A20000F3E7204605B0BDE8F040FEF76FBF8B785E
:10A2100083B9B1F90030DBB9A0F1540350F84C0C0C
:10A22000B0B1D3F8502142F00102C3F85021082107
:10A2300043681847012B0BD190F8F42022F001025B
:10A2400080F8F4200A7980F8F5204A7980F8F62021
:10A250007047000007B5094B1B884FF47A72B1FBB9
:10A26000F2F200F1D40106481BB200930068054BDE
:10A2700006F0F8FE03B05DF804FB00BFF812002002
:10A28000C049030008020020024B00F1D401186805
:10A2900006F06FBDC049030070B50E464968002343
:10A2A000D1E901120546184600F074FA0446E0B1FF
:10A2B0000021012306F108020846FFF731FB03469F
:10A2C000A0B14168542D14BFB5F9C62100224A80BF
:10A2D0002046024600680028FBD113600649234649
:10A2E00040F20122FFF793F800B170BD2046002133
:10A2F000BDE8704000F034B90000FFFF70470B4626
:10A30000B1F90010586800F02BB950F84C0C7047A8
:10A310001FB5054C0294079C0194069C0094FFF71E
:10A32000BFF904B010BD00BFB842030013B54FF42D
:10A330000174B0F91A020194049C0094FFF743F8E9
:10A3400002B010BD13B540F20324B0F91A02019413
:10A35000049C0094FFF737F802B010BD10B501213E
:10A3600004460A48FCF728FE0949002201EBC20313
:10A37000586830B95C601C460448FCF751FE204622
:10A3800010BD0132102AF1D10024F5E74021002050
:10A39000C020002010B504460846FFF7DFFF70B16B
:10A3A00000230360D4F87C3133B11A461B68002BBC
:10A3B000FBD11060184610BDC4F87C01FAE74FF0DD
:10A3C000FF30F8E741F2332313B5A0F88231EFF301
:10A3D000108472B6B0F91A32009300F5C47100F51A
:10A3E000C073054841F28832006806F03BFE84F3F2
:10A3F000108802B010BD00BFC849030010B5044664
:10A400000846FFF7ABFF30B1D4F87C310360C4F8E5
:10A410007C01002010BD4FF0FF30FBE740B901B1D7
:10A420007047044B186800B9704743689342FBD0EB
:10A430000068F8E75021002070B50D4D0D4E0E4C10
:10A440000B480121FCF7B8FD33682BB9BDE870401B
:10A4500009480121FCF7B0BD2846FCF7E1FD0121C8
:10A460002046FCF7A9FD2046FCF7DAFDE8E700BF2F
:10A4700048210020442100204C21002010B50A4C26
:10A480000A480121FCF798FD23681BB908480121FF
:10A49000FCF792FD236805485A1C1CBF013323605A
:10A4A000BDE81040FCF7BCBD44210020482100203D
:10A4B0004C21002008B501210848FCF77DFD084A21
:10A4C0001368591C05D0013B136013B90548FCF70C
:10A4D000A7FDBDE808400148FCF7A2BD48210020C7
:10A4E000442100204C21002038B50D4688B9FFF7E3
:10A4F000A3FF094B1A6814464CB908482A601D602E
:10A50000FCF78EFD0648FCF78BFD204638BD24681D
:10A51000F2E76FF01500F9E7502100204C210020F0
:10A52000482100200A4601460020FFF777BF70B59A
:10A5300005460E46FFF7A2FF002004463246294694
:10A54000FFF76CFF18B9FFF7B5FF204670BD013467
:10A55000F4E718B142680021FFF760BF70470000C0
:10A560002DE9F34104460D4614480121FCF724FD72
:10A57000002640F206272CB9104802B0BDE8F04191
:10A58000FCF74EBDE37BD4F80080012B13D1D4E956
:10A590000101E67300F098F81021204600F094F8CD
:10A5A000B4F90C1029B16846ADF802700195FCF7BA
:10A5B0007FFC4446DFE7013BE373F1E754210020D1
:10A5C00010B504468C42084606D12468002101607B
:10A5D000FFF7C6FF204610BD0029F7D02346002B09
:10A5E000F4D01A68904202D102681A60EEE713466E
:10A5F000F5E7000030B5144CC31D226823F00703B3
:10A600000020BAB1516899420ED3C91A07290ED950
:10A610000E4D13445D1BB5F5C05F0FD900202060BF
:10A620001068C3E9000105E010461268E9E7136805
:10A6300010B92360104630BD0360FBE708B9236002
:10A64000EEE70360ECE700BF58210020582100200E
:10A6500010B5094C01212046FCF7AEFC074A084B17
:10A66000136000214FF4C0522046C3E90012BDE838
:10A670001040FCF7D5BC00BF542100205821002019
:10A680006021002038B504460D4607480121FCF73B
:10A6900093FC24B9BDE838400348FCF7C1BCE37B18
:10A6A0002B44E3732468F4E754210020054B8342D4
:10A6B00006D803F5C053834294BF002001207047A1
:10A6C000002070476021002038B5024610B3FFF724
:10A6D000EDFFF8B1184C2068002308B190421AD35E
:10A6E000073121F00701106014485518401B072856
:10A6F00098BF091851608BB92260136853B1516833
:10A700001144591A072905D819681160991A5B680C
:10A710000B44536038BD03460068DEE759681A6091
:10A720001944511A0729E8D811681960D11A5268DA
:10A730000A445A601A46E0E7582100206039002098
:10A740002DE9F843804610200F4615469946FFF73D
:10A7500051FF044650B1DDB12846FFF74BFF0646D6
:10A7600038B920461021FFF7AFFF34462046BDE838
:10A77000F8831FB12A46394607F0FCF80123E3733A
:10A780000023C4E90086A56084F80E90A381EDE75C
:10A790002E46F3E773B5B2F5C05F05460E46144684
:10A7A000019310D801210948FCF706FC2246019BC1
:10A7B00031462846FFF7C4FF04460448FCF730FC46
:10A7C000204602B070BD0024FAE700BF54210020EB
:10A7D0002DE9F8430D460446012134489146FCF723
:10A7E000EBFB2DB124B1A368AB4201D3636833B94D
:10A7F0002E48FCF715FC00273846BDE8F8831020EA
:10A80000FFF7F8FE06460028F2D0A268AA4245D01B
:10A81000EB1D23F007039D4240D22846FFF7EAFED6
:10A82000074638B930461021FFF74EFF1F48FCF7A6
:10A83000F7FBE1E7A068401BFFF7DCFE804640B96C
:10A8400030461021FFF740FF29463846FFF73CFF0E
:10A85000CEE761682A46384607F08CF8D4E9011241
:10A860004046521B294407F085F8D4E90101FFF75F
:10A870002BFFC4F80480A3680C485B1BA36023680B
:10A88000B560C6E900370123F373002386F80E9004
:10A89000B3812660FCF7C4FB3746ADE76768AA4280
:10A8A00014BF7B1900236360E5E700BF542100203B
:10A8B00070B504460D461E480121FCF77DFBA168DA
:10A8C000A94204D11A48FCF7ABFB002012E035B9CD
:10A8D0006068F0B1FFF7F8FE6560A560F2E7A94295
:10A8E00017D22846FFF786FE064620B91048FCF727
:10A8F00097FB0C2070BD616829B1A268AA4228BFED
:10A900002A4607F037F8D4E90101FFF7DDFE66605B
:10A91000E3E7EB1DCA1D23F0070322F00702934271
:10A92000DBD26068C91A1844FFF7CEFED5E700BF36
:10A930005421002010B5431E01390F3013F8012FA8
:10A9400011F8014F834282EA04020A70F6D110BD69
:10A9500070B502464C1E00F10F05137812F8016F16
:10A960005B0043EAD613954204F8013FF5D1C37B5F
:10A970005B00CB7370BD0000102A70B505460E4613
:10A9800014460CD13C22002107F00AF90549234660
:10A99000324628460968BDE87040FDF7D1BB6FF02C
:10A9A000020070BD2C3803002DE9FF4704468A469B
:10A9B000164600F128084FF0000900F1180776B399
:10A9C000A36B102B17D139464046C4F83890FFF7D7
:10A9D000B1FF6A4639462046FDF7BDFB3D466B4652
:10A9E0000DF1100C1A4603CA6245286069601346CF
:10A9F00005F10805F6D1A06BC0F11005B54228BFDE
:10AA00003546EDB251462A46404406F0B3FFA36BEB
:10AA10002B440F2BA363A6EB0506AA44CFD804B0A2
:10AA2000BDE8F08770B58AB0044610220D4602A832
:10AA3000002107F0B5F802A906AA2046FDF78BFB16
:10AA40009DF91830002B02A906A843DAFFF780FF12
:10AA50009DF8173083F087038DF81730A36B102B08
:10AA600004F1280619D09DF9083002A9002B0846E8
:10AA700033DAFFF76DFF9DF8173083F087038DF809
:10AA80001730A06B0021C0F11002304407F088F8A5
:10AA9000A36B2344802283F82820314602A8FFF7C5
:10AAA00049FF04F1180130460191FFF743FF06AA60
:10AAB00001992046FDF74FFB2A4606AB0AAD1C461E
:10AAC00003CCAC4210605160234602F10802F6D17B
:10AAD0000AB070BDFFF73CFFC0E7FFF739FFD0E7D2
:10AAE0002DE9F0410F469DF8248080F80080102168
:10AAF0001E460446069B4170154602B1BFB103B124
:10AB0000AEB118F0050F02D055EA030010D09DF841
:10AB10002820A270002B58D09DF82020E270082B2E
:10AB20009DF82120227134D001D8022B02D00020C0
:10AB3000BDE8F0812B491A46304606F0E9FE18B907
:10AB400028F0200884F800801823637073786371FC
:10AB50003378A3710720002DEAD0BDF81C20BDF882
:10AB600020309A4234D1237843F040032370082DDB
:10AB70001CD0DCD8002DDBD0022DD8D1637863F057
:10AB80007F0363707A782254431C3A78E25402308F
:10AB9000CEE71C236370221D06F1080313F8011D84
:10ABA00002F8011FB342F9D10D20D4E7637863F0B6
:10ABB0003F03637007F10803044413F8012D04F800
:10ABC000012BBB42F9D10830B2E70320002DAFD0F2
:10ABD0009DF81C202254431C9DF81D20E254023095
:10ABE000C5E700BFD042030010B50178044601F06C
:10ABF0000700022828D098B1627802F00C02082AD7
:10AC000012D00C2A13D001F040031A431ED10320A6
:10AC1000637813F0C0030CD1002A08BF002002E0C3
:10AC200011F04002F3D010BD07200122F0E70D2003
:10AC3000FBE74A0658BF0230802B01D10230F2E711
:10AC4000C02B03D10830EEE70320ECE70020EAE751
:10AC500070B5437803F00C03082B08D103785C0629
:10AC600003D5C37813700379537007230FE00C2BBF
:10AC700008D103785B0603D5C3781370037953704A
:10AC80000D2304E053BB03785E0627D403234478E6
:10AC900014F0C0041ED005786D0607D4402C1DD0DA
:10ACA000C65C16705D1C0233455D5570802C13D157
:10ACB000C25C4A70184443780B70022070BD18447F
:10ACC00001F1080310F8012B03F8012D8B42F9D193
:10ACD0000820F3E72046F1E7C02CF0D06FF0150014
:10ACE000ECE7437803F00C03082B09D1C378137009
:10ACF0000379537043794B7083790B70022070474E
:10AD00000C2B0ED1C378137010F8043F537001F16F
:10AD1000080310F8012F03F8012D8B42F9D1082008
:10AD200070473BB9037813F0400F14BF6FF0150064
:10AD3000002070476FF01500704707B503688DF865
:10AD40000710DB690DF107020221984703B05DF897
:10AD500004FB036800221B6A022118470B78032BAF
:10AD600005D0072B00D02BB90368DB6A1847034BCB
:10AD70000362F9E76FF01500704700BF6003400100
:10AD800010B50446FFF7D9FF002805DB2046FFF782
:10AD9000E0FF0B30FAD0002010BD37B50023044689
:10ADA0000D46837701210192FFF7EAFFA369019A1B
:10ADB0005B68204629469847022003B030BD0368EF
:10ADC00010B5DB690022012104469847002808DB02
:10ADD000236800221B6A0121204698470B30F7D0D8
:10ADE000002010BD036810B4DC680023A4465DF8A1
:10ADF000044B604703689B6B184710B590F82930E7
:10AE0000032B044609D90021FFF7F4FF2046002256
:10AE1000BDE810400221FFF7C0BF013380F82930A0
:10AE20000121FFF7ADFF204600F06CFF032010BDAD
:10AE30000368DB6B184710B500210446FFF7A0FF3D
:10AE4000002808DB2368216B5B6820469847204672
:10AE500000F058FF002010BD73B590F82E506B1E07
:10AE600004460E46042B58D8DFE813F005004E00C8
:10AE700064009700DD004B1E062B4ED8DFE803F080
:10AE80000E2A4D4D044D3900FFF7D5FF00284FDB4A
:10AE90000325284684F82E5002B070BD00212046BC
:10AEA000FFF76EFF0028F9DB236820469B68984770
:10AEB000032805DDA36920461B6898470225E8E7BB
:10AEC000002211462046FFF78DFF2046FFF777FF4F
:10AED0003546DEE700212046FFF752FF0028F9DB68
:10AEE000002211462046FFF77DFF2046FFF767FF4F
:10AEF000CFE70021FFF721FF002819DB2046FFF7ED
:10AF000028FF0B30FAD0D9E7052908D003D8013E35
:10AF1000012E13D901E0062906D00025B9E7FFF775
:10AF20008AFF0028B4DAC9E7FFF749FF0028C5DB2C
:10AF30000125AEE7022907D80029C9D00022114611
:10AF40002046FFF74FFFA4E70429E6D103681B68FA
:10AF5000DA0718D49B0716D402F0F4FF94F82B10EC
:10AF6000434B0840618C4143186806F03FF894F861
:10AF70002B30627F591CB2EB510F82BF5B0043F054
:10AF8000010384F82B3023680022DB691146204638
:10AF900098471030F7D004257BE70029B7D1036824
:10AFA00001AA1B6A98479DF80450022D26D00CD99F
:10AFB000032DB2D123681B68D90725D501AA032127
:10AFC0002046FFF7EAFE054663E7236884F82A6017
:10AFD0001B68DE0703D4580701D4A37F13B901AA65
:10AFE0002946EDE701212046FFF704FF2046FFF741
:10AFF000E6FE204600F08EFE05254AE784F82A602A
:10B000002046FFF7FAFEDEE79A07D7D494F82A30F5
:10B010005A1C84F82A2094F82C209A42CED9204633
:10B0200000F070FE35E7022988D00329E8D0012915
:10B030007FF473AF032201A9FFF7D4FE00283FF489
:10B0400028AF9DF804309B077FF523AF204600F022
:10B050006BFE9DF8045094F829308DF801300021E2
:10B060002046FFF7C7FEC5F300156A46B8E700BFE4
:10B07000C849030008B590F82E20013A012A18D8D3
:10B0800009B9002008BD4A6812780163C2F3401272
:10B09000017F8277002280F8292080F82A2001226F
:10B0A0008A40013A80F82B200521FFF7D5FE0328BE
:10B0B000E7D06FF00F00E5E701232DE9F34180F8B9
:10B0C0002E3003685B690446884617469847051E7C
:10B0D00071DB3B68E3607B682361B8F80030A382D2
:10B0E0002323A38440F20353A3830423A38523686B
:10B0F0001B6819074BBF1A220522E284E2844CBF69
:10B100000022022284F828205A0404F10C0601D5FA
:10B11000032319E003F47C33002B93FAA3F2B2FA71
:10B1200082F208BF4FF0FF3201230E2A02F1010123
:10B1300003FA02F0ECD0B0F5804F40DC0D2903D0CB
:10B140000E2914BF0023022384F82F3023682046E1
:10B150009B6998470B30F9D004F114020021204676
:10B16000FFF766FE324601212046FFF761FE04F13B
:10B17000240202212046FFF75BFE94F82F308DF861
:10B180000030E38CADF8023094F828308DF80430AC
:10B19000694694F82D308DF805302046FFF7DEFD26
:10B1A00023686FF045015B6A204698472046FFF709
:10B1B00006FE0028FADB284602B0BDE8F08110291F
:10B1C00004D0122914BF00230623BDE70423BBE7E4
:10B1D000F8B590F82E707B1E012B04460E4628D839
:10B1E000012F11D031462046FFF7B8FD051E12DAB7
:10B1F0002046FFF7AEFD0B30FAD0012F09D12046D3
:10B20000BDE8F840FFF7DBBD0021FFF796FD051E06
:10B21000E8DA2846F8BD7388E384337984F8283067
:10B22000737984F82D303378072B18BF84F82F30CA
:10B23000DEE76FF00F05ECE708B590F82E30012B34
:10B240000AD0022B0BD10621FFF706FE012814BFFE
:10B250006FF00F00002008BD6FF07700FBE76FF084
:10B260000F00F8E708B590F82E30012B06D0022B1E
:10B2700014BF6FF00F006FF0770008BD0721FFF7D4
:10B28000EBFD022814BF6FF00F000020F5E700234C
:10B2900008B918467047826800681344F8E738B563
:10B2A000054604F00FFB044605F11000FBF7B8FE5D
:10B2B000204638BD0028BFBF00F1FF306FEA404094
:10B2C0006FEA504000B2704730B5044607C985B0F8
:10B2D00084E80700002500F0CFFF0DF10F0321796E
:10B2E000206800950F2202F075FC9DF80F303D2B71
:10B2F00027D1E2796379217920680095134343F0DF
:10B30000800320228DF80F3002F06EFC237A217921
:10B3100020680095212202F067FC637A2179206879
:10B320000095222202F060FCA37921792068009523
:10B33000232202F059FC206800F0B4FF284605B033
:10B3400030BD4FF0FF30FAE7F0B5044685B0002677
:10B3500002270068ADF80C600D4600F08DFF2179E2
:10B360002068019603AB0097282201F003F8BDF88E
:10B370000C302B802179206803ABCDE900762A229E
:10B3800000F0F8FFBDF80C306B802179206803AB2A
:10B39000CDE900762C2200F0EDFFB5F90000FFF7B3
:10B3A00089FF0246B5F90200FFF784FF0346BDF9A5
:10B3B0000C00FFF77FFF4FF47A7190FBF1F092FBE6
:10B3C000F1F2A88093FBF1F320682A806B8000F0F3
:10B3D00069FF05B0F0BD10B50C46FFF7B5FF4FF69D
:10B3E0000F53E380032010BD7FB5044607C9002535
:10B3F00084E8070000F040FF1222217920680095C0
:10B40000802302F0F1FB354B0F21186805F0EEFDAB
:10B410002179206800950DF10F030F2202F0DAFB6D
:10B42000A84206DA206800F03DFF4FF0FF3004B07C
:10B4300070BD9DF80F30692B49D104232373E37944
:10B440006279217920689B00002543EA0213DBB270
:10B45000102200958DF80F3002F0C6FB237AA279F6
:10B46000217900959B0043EA0213DBB206461122C4
:10B4700020688DF80F3002F0B7FBA379627921794B
:10B480000095934238BF1346DB0043F00603DBB25E
:10B4900006440A2220688DF80F3002F0A5FBA27A3C
:10B4A000637A2179009543EAC203DBB2064408229D
:10B4B00020688DF80F3002F097FB0644206800F0FA
:10B4C000F1FEAE42ACBF28466FF00100AFE76A2B39
:10B4D00001D10823B2E76FF00200A8E7C0490300DA
:10B4E0002DE97044044685B04FF0000A00680D460F
:10B4F00000F0C2FE21792068CDF800A00DF10F0305
:10B500001E2202F067FB21792068CDF800A00DF122
:10B510000F03282202F05EFB9DF80F302B8021796B
:10B52000CDF800A006460DF10F032922206802F095
:10B5300051FB9DF80F202B88CDF800A043EA022391
:10B540002B80217906440DF10F032A22206802F096
:10B5500041FB9DF80F306B802179CDF800A00644A7
:10B560000DF10F032B22206802F034FB9DF80F2011
:10B570006B88CDF800A043EA02236B802179064452
:10B580000DF10F032C22206802F024FB9DF80F30F0
:10B59000AB802179CDF800A006440DF10F032D22D8
:10B5A000206802F017FBAB889DF80F2043EA0223C6
:10B5B0000644AB80206800F075FE56451BDBE2793F
:10B5C0000E4B33F912002A88AB8847F6FF7112FB45
:10B5D00000F292FBF1F22A806A8813FB00F312FB5F
:10B5E00000F293FBF1F392FBF1F2AB806A805046DC
:10B5F00005B0BDE870844FF0FF30F9E7E04203008A
:10B600002DE97044044685B04FF0000A00680D46ED
:10B6100000F032FE21792068CDF800A00DF10F0373
:10B620001E2202F0D7FA21792068CDF800A00DF192
:10B630000F03222202F0CEFA9DF80F302B802179E1
:10B64000CDF800A006460DF10F032322206802F07A
:10B65000C1FA9DF80F202B88CDF800A043EA022301
:10B660002B80217906440DF10F032422206802F07B
:10B67000B1FA9DF80F306B802179CDF800A0064417
:10B680000DF10F032522206802F0A4FA9DF80F2087
:10B690006B88CDF800A043EA02236B802179064431
:10B6A0000DF10F032622206802F094FA9DF80F3066
:10B6B000AB802179CDF800A006440DF10F032722BD
:10B6C000206802F087FAAB889DF80F2043EA022336
:10B6D0000644AB80206800F0E5FD56451BDB227A6E
:10B6E0000E4B33F912002A88AB8847F6FF7112FB24
:10B6F00000F292FBF1F22A806A8813FB00F312FB3E
:10B7000000F293FBF1F392FBF1F2AB806A805046BA
:10B7100005B0BDE870844FF0FF30F9E7E842030060
:10B72000F0B5074685B0006800250E4600F0A4FD80
:10B730003979386800950DF10F03202202F04AFA9A
:10B74000A84206DA386800F0ADFD4FF0FF3005B0D2
:10B75000F0BD3979386800950DF10F0321229DF86D
:10B760000F4002F037FA0028ECDB9DF80F30386804
:10B7700044EA032400F096FD3A7B1923934024B257
:10B780001C44A4B264235C43144134802846DEE7A1
:10B7900010B50C46FFF7A4FE0028A3BF4FF60953CF
:10B7A000E38003206FF08B0010BD10B50C46FFF74F
:10B7B00027FF0028A3BF4FF60A73E38003206FF032
:10B7C0008B0010BD10B50C46FFF7AAFF0028A3BFE1
:10B7D0004FF60263E38001206FF08B0010BD73B55C
:10B7E0000A460C462321054606F0DAF9684602F0BF
:10B7F000E9F96946002241F2055311F8010B03EB08
:10B8000043130344B2FBF4F004FB102001322E5C1E
:10B81000082A86EA03062E54EFD1002341F205528E
:10B820009C4201D102B070BDE95C02EB42120A44B5
:10B83000B3FBF4F104FB11310133685C50406854F0
:10B84000EEE738B50C46054608212046FFF7C7FF4E
:10B850002A7BA3795340A3716A7BE3795340E37158
:10B86000237823F0010343F00203237038BD70B541
:10B87000044602F067FB00232246A077237463840A
:10B880002323638252F8123B9D692046AC46022373
:10B89000BDE87040062160471B2911D81B2911D82B
:10B8A000DFE801F02C1013171F1F291010101010C3
:10B8B000101010101043101010101030103E103ADD
:10B8C000282930D06FF085007047838A13800220CA
:10B8D0007047D0F816301360D0F81A305360082043
:10B8E0007047438C13F0040F4FF002001ABF082377
:10B8F000138010807047438A1380E8E7C37F13806A
:10B9000001207047438C13F0200F02D001201070EB
:10B91000704700231370F3E7438C13F0020FF4E732
:10B9200090F91030F6E70423E6E76623E4E710B564
:10B930000C46062C11461A4607D8062C0BD8DFE811
:10B9400004F00D0A111721213300192C41D01B2CB2
:10B9500036D0172C2BD06FF0850012E00B88C37700
:10B9600002200EE000238382143006F003F8F7E78C
:10B970000023C0F81630C0F81A30163005F0FAFF70
:10B98000082010BD0B88022B04D0082B07D06FF0C5
:10B990006900F6E7428C22F004024284E0E7438C1F
:10B9A00043F004034384DBE70B884382D8E70A783B
:10B9B000438C12B143F02003F4E723F02003F1E7B6
:10B9C0000A78438C12B143F00203EBE723F0020341
:10B9D000E8E791F9003003740120D2E7C26E4368B2
:10B9E00042F00102C2660021184737B505461C46E1
:10B9F0002830AB6A29B922B99B6803B0BDE8304052
:10BA00001847DD6801ABA84734B19DF80430AE3B60
:10BA100023809DF80530A37003B030BD283812B1E3
:10BA2000537880F87430012380F8753002294FF084
:10BA3000040380F8763005D0032902D16FF00F039C
:10BA4000036770476FF07503FAE7012380F84D3004
:10BA5000022380F84E3070470329A0F128000ED051
:10BA6000042905D0012907D1C36E43F0080302E081
:10BA7000C36E43F00203C366436800211847C36ED8
:10BA800043F00403F7E7006F7047422970B414468F
:10BA90000DD0572912D01A2913D190F85630022B05
:10BAA0000CBF012302231370002070BC704790F973
:10BAB0007430002B08DB23700120F6E790F8573034
:10BAC000F9E770BCFFF7E8BE6FF08500EDE72DE900
:10BAD000F041044600F1280501274FF00008EFF37C
